:100000002EC200000C94E40E0C94110F4FC200009D
:100010004DC200004BC20000A4C3000047C2000054
:1000200045C2000043C2000041C200003FC20000C0
:100030003DC200003BC2000039C2000037C20000D0
:100040000C943E0F33C200000C94230B0C945D0BF8
:100050002DC200002BC2000029C2000027C20000F0
:1000600025C2000023C20000436F6D6D616E647392
:1000700020617661696C61626C653A003D3E0064A6
:10008000697361626C656400656E61626C656400D1
:1000900020200D0A000D0A0044004500205325646D
:1000A00020005363686564756C6572733A0D0A00CD
:1000B0004D656D6F72793A200A0D454550524F4D8E
:1000C000207665722025643B2052414D2025640A2C
:1000D0000D0020204C6F6F702075200044657669FC
:1000E0006365206D696C6C697320000A535953492C
:1000F0004E464F3A0A0D4275696C643A2025732FBB
:1001000025730A0D002000200031576972653A00FE
:1001100054656D706572617475726520666F7220CA
:1001200044657669636520312069733A2000444F45
:100130004E45005741524E210000000007000201C9
:10014000000003040600000000000000000102049B
:100150000810204080010204081020010204081049
:100160002004040404040404040202020202020340
:1001700003030303030000000023002600290000FE
:10018000000000250028002B0000000000240027AC
:10019000002A00504120506F77657209203D2025CC
:1001A000530D0A00435243204C656E677468092062
:1001B0003D2025530D0A004D6F64656C0909203DF3
:1001C0002025530D0A004461746120526174650951
:1001D000203D2025530D0A0044594E50442F4645DA
:1001E000415455524500434F4E4649470052465FE1
:1001F00053455455500052465F434800454E5F52A8
:10020000584144445200454E5F41410052585F50AE
:10021000575F50302D360054585F414444520052CD
:10022000585F414444525F50322D350052585F416F
:100230004444525F50302D31000D0A002530327891
:1002400000203078002553092563203D000D0A0069
:1002500020307825303278002553092563203D0071
:100260004F4253455256455F54583D253032783AF7
:1002700020504F4C535F434E543D2578204152430C
:100280005F434E543D25780D0A0053544154555355
:100290000909203D203078253032782052585F44BB
:1002A000523D25782054585F44533D2578204D41D8
:1002B000585F52543D25782052585F505F4E4F3D55
:1002C00025782054585F46554C4C3D25780D0A0042
:1002D0001112131415160A0B0C0D0E0F0001020358
:1002E00004050003F902F102EA0250415F4D415852
:1002F0000050415F484947480050415F4C4F57000C
:1003000050415F4D494E001C0315030D033136204B
:1003100062697473003820626974730044697361A0
:10032000626C656400330329036E524632344C30EC
:10033000312B006E524632344C30310050034A03A8
:1003400042033235304B42505300324D425053003D
:10035000314D42505300005EBCE2613FDD83C29CE0
:100360007E20A3FD1F419DC3217FFCA2401E5F0193
:10037000E3BD3E6082DC237D9FC1421CFEA0E1BF45
:100380005D0380DE3C62BEE0025CDF81633D7C2277
:10039000C09E1D43A1FF4618FAA427799BC584DAA5
:1003A0003866E5BB5907DB856739BAE40658194753
:1003B000A5FB7826C49A653BD987045AB8E6A7F905
:1003C0001B45C6987A24F8A6441A99C7257B3A6437
:1003D00086D85B05E7B98CD2306EEDB3510F4E1065
:1003E000F2AC2F7193CD114FADF3702ECC92D38D13
:1003F0006F31B2EC0E50AFF1134DCE90722C6D33C5
:10040000D18F0C52B0EE326C8ED0530DEFB1F0AEF6
:100410004C1291CF2D73CA947628ABF51749085624
:10042000B4EA6937D58B5709EBB536688AD495CBD2
:100430002977F4AA4816E9B7550B88D6346A2B7584
:1004400097C94A14F6A8742AC896154BA9F7B6E8B6
:100450000A54D7896B35C404D005D207190C11246E
:100460001FBECFEFD8E0DEBFCDBF12E0A0E0B1E00D
:10047000EAE7F6E402C005900D92A233B107D9F77E
:1004800024E0A2E3B2E001C01D92A83BB207E1F76D
:1004900014E0CEE5D4E004C02297FE010E947B1D4B
:1004A000C635D107C9F74FD20C943B23A9CDE091B3
:1004B0008702F09188020994CF93DF9368E670E099
:1004C00083E593E00E94EC0CC3E3D2E088818823AB
:1004D00029F0BE0183E593E00E94FC0C279682E0A0
:1004E000C738D80799F7DF91CF910895FF920F93FE
:1004F0001F93CF93DF938B01F090320227E0F29E9F
:10050000E0011124CD5CDD4F44E050E0BC01CE01A0
:100510000E94C61F1C821E830D83F394F092320248
:10052000DF91CF911F910F91FF9008956CE572E0DC
:1005300084E291E0DBDF6CE572E089E291E0D6DFF6
:1005400067E572E08BE291E0D1CF6CE770E083E584
:1005500093E00C94AD0CF9CF93C24F925F926F92DF
:100560007F928F929F92AF92BF92CF92DF92EF9243
:10057000FF920F931F93CF93DF9380919702811186
:10058000B1C087E091E09F938F9380E091E09F93CB
:100590008F938BEE90E09F938F93C3E5D3E0DF932F
:1005A000CF9347D6CCD46CED70E0CE010E94AD0C59
:1005B0000E94880FAB01BC012AE030E0CE010E940E
:1005C000AB0D62ED70E0CE010E94AD0C40918D024A
:1005D00050918E0260918F02709190022AE030E07B
:1005E000CE010E94BD0D81E090E00E943B22182FB9
:1005F000AFD19F938F931F921F9380EB90E09F93B7
:100600008F93DF93CF9315D682EA90E09F938F93D9
:10061000DF93CF930ED68DB79EB744960FB6F8945E
:100620009EBF0FBE8DBF00E010E08CE9482E80E039
:10063000582E98E9692E90E0792E2AE9E22E20E0E2
:10064000F22E35E0832E912C40E9C42E40E0D42ECA
:1006500055E9A52E50E0B52E1F930F935F924F9250
:10066000DF93CF93E6D5802FE2D40F900F900F90B9
:100670000F900F900F90882319F0FF92EF9202C015
:100680007F926F92DF93CF93D4D50F900F900F90FE
:100690000F900F5F1F4FC801B4010E94441D892BAA
:1006A00019F4BF92AF9202C0DF92CF92DF93CF9343
:1006B000C0D50F900F900F900F900A30110561F682
:1006C0001CD2DF91CF911F910F91FF90EF90DF909F
:1006D000CF90BF90AF909F908F907F906F905F90E2
:1006E0004F9044C4DF91CF911F910F91FF90EF90F5
:1006F000DF90CF90BF90AF909F908F907F906F9042
:100700005F904F9008958091960291E089278093A1
:10071000960260E371E083E593E00E94D20C809141
:100720009602882319F068E870E002C06FE770E075
:1007300083E593E00C94EC0C7BC180C1089560913B
:100740008C0281E0682760938C0284E00C94831013
:1007500060918B0281E0682760938B0286E00C94A5
:1007600083101F920F920FB60F9211242F933F9375
:100770004F935F936F937F938F939F93AF93BF93A9
:10078000EF93FF9388E10FB6F89480936000109286
:1007900060000FBE809194028111DADFFF91EF912A
:1007A000BF91AF919F918F917F916F915F914F9189
:1007B0003F912F910F900FBE0F901F901895EAE771
:1007C000F0E080818F77808380E880BFE4E6F0E00E
:1007D0008081816080838EE380937E0081E08093BE
:1007E0007F008081886080838081806480838081B5
:1007F000806880831092950283B7817F83BF14BE87
:10080000E0E6F0E088E1808386E48083A89508959F
:10081000CFD3109296021092930281E080939702B8
:1008200061E084E00E944A1061E083E00E944A1087
:10083000C6DF80919702B7D080919702811101C0E5
:10084000FFD380919702811127C040E052EC61E014
:1008500070E083E593E06CD769DE6DEA72E08CE3CB
:1008600091E044DE63E873E081E491E03FDE6CEA0E
:1008700072E086E491E03ADE65E477E08BE491E0B3
:1008800035DE65E079E080E591E030DE66E179E033
:1008900084E591E02BDE5FDE88D2809197028111A2
:1008A00002C05BDEB2C4089510927A0080916400A9
:1008B0008160809364008091640082608093640012
:1008C00080916400886080936400809164008064FB
:1008D000809364008091640080688093640014BEFB
:1008E00088E18093600086E480936000A89583B7D8
:1008F000817F846083BFF89483B7816083BF80E683
:1009000085BF80E485BF7894889583B78E7F83BF49
:100910008091890290918A02019690938A02809335
:1009200089020B977CF080919302811108DF80D0BF
:1009300085D080919302811102DFA7D210928A02A2
:100940001092890208950E94E60F62DFADDFFECFAC
:10095000CF93DF9300D0CDB7DEB72091AE043091B6
:10096000AF042115310511F428EB34E0CE010196D6
:10097000821B930B0F900F90DF91CF9108950E94EF
:100980005C1181E090E0089510929B0210929A020F
:100990008DE591E0909399028093980210929F02C6
:1009A00010929D020895EF92FF920F931F93CF93A1
:1009B000DF931F92CDB7DEB7682F83EA92E0698399
:1009C0000E949413698183EA92E00E94F71383EAFC
:1009D00092E00E947D12082F2DE0829FC001112419
:1009E0007AD49093A2028093A102892B29F463E325
:1009F00071E083E593E0F0D7E12CF12C10E06091F9
:100A0000A1027091A2026E0D7F1D412F83EA92E038
:100A10000E948F121F5F8DE0E80EF11C101778F313
:100A20000F90DF91CF911F910F91FF90EF9008955C
:100A300083EA92E00E945F1482E0D6C21F93CF93B4
:100A4000DF9310E083EA92E00E947D121817A0F471
:100A5000C091A102D091A2028DE0189FC00DD11DBE
:100A60001124612F83EA92E00E944D1569877A87ED
:100A70008B879C871F5FE6CFDF91CF911F910895F1
:100A800083EA92E00E945F146EE271E083E593E0F6
:100A9000A3D760E171E083E593E05FD760E083EA8C
:100AA00092E00E944D15AB01BC0122E030E083E5ED
:100AB00093E00C94B30EFF920F931F93CF93DF93A9
:100AC000EC0188E0F82E8E018881803128F461E6FF
:100AD00071E083E593E066D7219640E150E0F801AC
:100AE000608183E593E00E94B70DFA9461F7DF918E
:100AF000CF911F910F91FF9008951F93CF93DF9394
:100B000069E071E083E593E067D710E083EA92E063
:100B10000E947D12181770F54AE050E0612F83E5BE
:100B200093E00E94B70D67E071E083E593E015D78D
:100B30008DE0189FE00111248091A1029091A20202
:100B40008C0F9D1FB8DF65E071E083E593E005D76A
:100B5000E091A102F091A202EC0FFD1F41855285A8
:100B60006385748522E030E083E593E00E94B40E53
:100B70001F5FCCCFDF91CF911F9108952DE0AC0185
:100B8000249FC001259F900D1124E091A102F091B6
:100B9000A202E80FF91F6185728583859485089507
:100BA00067E086EB92E00E943D1C66EB72E083EA10
:100BB00092E00C946E12CF93C82FE0915303F09102
:100BC00054030190F081E02D682F83E593E00995AF
:100BD0008C2F992787FD9095CF910895CF93DF9320
:100BE00000D01F92CDB7DEB79E012F5F3F4FAE0101
:100BF0004E5F5F4FBE016D5F7F4F84ED92E00E94BC
:100C00005D18809196028823F1F18B818823E1F0B1
:100C10008091910290919202019741F483E691E0D4
:100C20009F938F930E941F200F900F9080919102AD
:100C300090919202029741F48DE691E09F938F93F9
:100C40000E941F200F900F908A818823E1F08091ED
:100C5000910290919202019741F480E891E09F9374
:100C60008F930E941F200F900F908091910290917E
:100C70009202029741F48EE891E09F938F930E9435
:100C80001F200F900F908981811107C084ED92E0A1
:100C90000E945018882309F47CC0809191029091A1
:100CA0009202019719F544E060ED72E084ED92E064
:100CB0000E945318809196028823C1F08091D3023C
:100CC0008F938091D2028F938091D1028F938091E4
:100CD000D0028F9383EA91E09F938F930E941F200D
:100CE0000F900F900F900F900F900F9080919102A6
:100CF00090919202029709F04CC04CE064EC72E0D3
:100D000084ED92E00E94531880919602882319F195
:100D10006091CC027091CD028091CE029091CF0271
:100D20000E94501E7F936F938091C7028F93809192
:100D3000C6028F938091C5028F938091C4028F93D6
:100D40008DEA91E09F938F930E941F200FB6F89435
:100D5000DEBF0FBECDBF24E040ED52E061E084ED88
:100D600092E00E9469198091D0029091D102A091E5
:100D7000D202B091D3020196A11DB11D8093D00281
:100D80009093D102A093D202B093D30281E08093DA
:100D9000E4020F900F900F90DF91CF91089560E0E3
:100DA00070E08BED95E00C94D51FF9DF84ED92E0B7
:100DB0000E940B1A84ED92E00E94501984ED92E09B
:100DC0000E9437198091910290919202019771F4DB
:100DD0006EE071E084ED92E00E947E1843E151E004
:100DE00061E084ED92E00E9495182CC063E171E00F
:100DF00084ED92E00E947E184EE051E061E084EDC7
:100E000092E00E94951884ED92E00E94FC1824E084
:100E100040ED52E061E084ED92E00E94691980911A
:100E2000D0029091D102A091D202B091D30201964A
:100E3000A11DB11D8093D0029093D102A093D20244
:100E4000B093D30262E370E080E090E00E94B70FBD
:100E500040E050E06EEE75E080E096D71092C4025C
:100E60001092C5021092C6021092C70280E090EC68
:100E7000A9E7B4EC8093CC029093CD02A093CE026C
:100E8000B093CF021092E40208950F931F93CF9373
:100E9000DF938091910290919202019709F04AC0EC
:100EA0000E94880FEB01182F092F6093C402D09382
:100EB000C5028093C6029093C7021092CB02109293
:100EC000CA021092C9021092C80280E090E056DE79
:100ED0006093CC027093CD028093CE029093CF02A8
:100EE000209196022223D1F00E94501E262F3327F4
:100EF00027FD30953F936F930F931F93DF93CF930D
:100F000085EC91E09F938F930E941F208DB79EB731
:100F100008960FB6F8949EBF0FBE8DBF20E04CE040
:100F200064EC72E084ED92E0DF91CF911F910F911C
:100F30000C942218DF91CF911F910F910895E091A9
:100F40009102F0919202EE0FFF1FE85EFE4F818149
:100F50008F9380818F938CED91E09F938F930E946C
:100F60001F200F900F900F900F9008958091D30243
:100F70008F938091D2028F938091D1028F93809131
:100F8000D0028F9387EE91E09F938F930E941F2052
:100F90000F900F900F900F900F900F9084ED92E0B4
:100FA0000C947A1A4AE069E084ED92E00C94F81708
:100FB00060E08EE00E944A1061E08EE00E948310A3
:100FC00064E170E080E090E0D2D78EE00E94B8103B
:100FD000892B19F081E090E002C082E090E09093CC
:100FE0009202809391020895CF92DF92EF92FF9246
:100FF000CF93DF939BE0899FE0011124CB51DD4F1C
:10100000CD80DE80EF80F88483D76C0D7D1D8E1D32
:101010009F1D69837A838B839C8388818160888309
:10102000DF91CF91FF90EF90DF90CF9008959BE0FC
:10103000899FF0011124EB51FD4F8081817008954B
:10104000CF92DF92EF92FF920F931F9361D745E00B
:101050004093E50200ED17E020E030E00093EA0263
:101060001093EB022093EC023093ED028B019C0174
:101070000053184F2F4F3F4F0093E6021093E702A3
:101080002093E8023093E9022FE933E03093EF0236
:101090002093EE024093F00208EE13E020E030E0EF
:1010A0000093F5021093F6022093F7023093F802B2
:1010B0006B017C0158EEC50E53E0D51EE11CF11CFE
:1010C000C092F102D092F202E092F302F092F402A6
:1010D000ECE9F3E0F093FA02E093F90252E0509366
:1010E000FB025EEEC52E52E0D52EE12CF12CC09213
:1010F0000003D0920103E0920203F09203031092E6
:10110000FC021092FD021092FE021092FF02EDE925
:10111000F3E0F0930503E093040310920603E0E18B
:10112000CE2EE7E2DE2EE12CF12CC0920B03D09202
:101130000C03E0920D03F0920E031092070310923D
:1011400008031092090310920A0310921103F0ECA5
:10115000CF2EF4EDDF2EEE24E394F12CC092160393
:10116000D0921703E0921803F09219031092120321
:1011700010921303109214031092150310921C0383
:101180001092270310923203009337031093380311
:101190002093390330933A03DC01CB018854944FF8
:1011A000AF4FBF4F8093330390933403A093350325
:1011B000B093360385E497E090933C0380933B0320
:1011C00010923D034093480380E69AEEA0E0B0E021
:1011D00080934D0390934E03A0934F03B09350031D
:1011E0001092490310924A0310924B0310924C0341
:1011F0008EE993E090935203809351031F910F91D6
:10120000FF90EF90DF90CF90089582D625E0209355
:1012100032036854744F8F4F9F4F60933303709322
:10122000340380933503909336030895109232036C
:101230000895EF92FF920F931F93CF93DF93CDB753
:10124000DEB7C058D1090FB6F894DEBF0FBECDBFD0
:1012500040E850E0C557DF4F68817981CB58D040D6
:101260008E010F5F1F4FC8010E94A71FC158DF4F9B
:101270001882CF57D040F80101900020E9F77F0194
:10128000F80101900020E9F7B8016E1B7F0B605850
:101290007F4F9E0123573F4FA801C7010E944F2057
:1012A000C058DF4F1882C058D040B701C757DF4F32
:1012B00088819981C958D04075D3C058DF4F0FB687
:1012C000F894DEBF0FBECDBFDF91CF911F910F917C
:1012D000FF90EF900895CF93DF938230910510F443
:1012E00082E090E0E091B004F091B10420E030E0C1
:1012F000A0E0B0E0309739F140815181481759079B
:10130000B8F04817590771F482819381109729F03A
:1013100013969C938E9312972CC09093B104809354
:10132000B00427C02115310531F04217530718F0DA
:10133000A901DB0101C0EF019A01BD01DF010280BB
:10134000F381E02DD7CF21153105F9F0281B390B9A
:101350002430310580F48A819B816115710521F06B
:10136000FB019383828304C09093B1048093B00403
:10137000FE01329644C0FE01E20FF31F8193919368
:1013800022503109398328833AC02091AE0430912C
:10139000AF04232B41F4209120013091210130939F
:1013A000AF042093AE0420911E0130911F0121153E
:1013B000310541F42DB73EB74091220150912301F0
:1013C000241B350BE091AE04F091AF04E217F30754
:1013D000A0F42E1B3F0B2817390778F0AC014E5FA5
:1013E0005F4F2417350748F04E0F5F1F5093AF042F
:1013F0004093AE048193919302C0E0E0F0E0CF010E
:10140000DF91CF910895CF93DF93009709F487C0C0
:10141000FC01329713821282C091B004D091B104C2
:10142000209781F420813181280F391F8091AE04EB
:101430009091AF048217930779F5F093AF04E0938E
:10144000AE046DC0DE0120E030E0AE17BF0750F4FF
:1014500012964D915C9113979D014115510509F12B
:10146000DA01F3CFB383A28340815181840F951FAA
:101470008A179B0771F48D919C911197840F951F8A
:1014800002969183808312968D919C9113979383FA
:1014900082832115310529F4F093B104E093B0045F
:1014A0003EC0D9011396FC93EE9312974D915D9136
:1014B000A40FB51FEA17FB0779F480819181840F8F
:1014C000951F0296D90111969C938E9382819381E8
:1014D00013969C938E931297E0E0F0E08A819B81B3
:1014E000009719F0FE01EC01F9CFCE010296288198
:1014F0003981820F931F2091AE043091AF042817D9
:10150000390769F4309729F41092B1041092B004AD
:1015100002C013821282D093AF04C093AE04DF9155
:10152000CF910895FC0124853585F901E05CFF4FDA
:1015300080819181329620813181821B930B8F7340
:1015400099270895FC0184859585FC01E05CFF4F97
:10155000408151813296208131814217530741F0F9
:101560000190F081E02DE80FF91F808190E008954F
:101570008FEF9FEF0895FC0184859585FC01E05C69
:10158000FF4F4081518132962081318142175307AC
:1015900079F0A081B181A80FB91F8C912081318190
:1015A0002F5F3F4F2F7333273183208390E00895BF
:1015B0008FEF9FEF0895FC0181A1882329F0A48972
:1015C000B5898C9186FFFBCF11A20895CF93DF934D
:1015D000FC0126853785D901A05CBF4F8D919C9178
:1015E000119701968F739927E901CE5BDF4F4881F0
:1015F000598184179507D9F30D90BC91A02DA20FA6
:10160000B31F6C93A685B785A05CBF4F11969C93C2
:101610008E93A689B7892C9181E090E0078C02C057
:10162000880F991F0A94E2F7282B2C9381E081A35D
:101630000488F589E02D80818064808381E090E0DA
:10164000DF91CF9108951F920F920FB60F92112440
:101650002F933F934F938F939F93EF93FF9380919B
:10166000C00082FD1CC04091C6008091F90390919A
:10167000FA0301968F7399272091FB033091FC03A5
:101680008217930771F0E091F903F091FA03E754A0
:10169000FC4F40839093FA038093F90302C080913A
:1016A000C600FF91EF919F918F914F913F912F91A4
:1016B0000F900FBE0F901F9018951F920F920FB6AC
:1016C0000F9211242F933F938F939F93EF93FF9348
:1016D0002091B5033091B6038091B7039091B80380
:1016E0002817390731F48091C1008F7D8093C100A4
:1016F00014C0E091B703F091B803EB58FC4F208180
:101700008091B7039091B80301968F7399279093B6
:10171000B8038093B7032093C600FF91EF919F9188
:101720008F913F912F910F900FBE0F901F901895A2
:10173000CF92DF92EF92FF92CF93DF93EC016A0199
:101740007B01411581EE580761057105F9F0EC89BF
:10175000FD8981E090E008A002C0880F991F0A94DB
:10176000E2F7808360E079E08DE390E0A7019601E5
:101770000E94571D2150310941095109569547953D
:1017800037952795211580E1380798F0EC89FD8978
:10179000108260E874E88EE190E0A70196010E9453
:1017A000571D2150310941095109569547953795E3
:1017B0002795E889F9893083EA89FB89208319A272
:1017C000EE89FF89408181E090E09C010C8C02C091
:1017D000220F331F0A94E2F7422B4083EE89FF89E0
:1017E00040819C010D8C02C0220F331F0A94E2F746
:1017F000422B4083EE89FF8940819C010E8C02C000
:10180000220F331F0A94E2F7422B4083EE89FF89AF
:1018100020810F8C02C0880F991F0A94E2F78095EF
:1018200082238083DF91CF91FF90EF90DF90CF9064
:101830000895109256031092550388EE93E0A0E0AD
:10184000B0E08093570390935803A0935903B0934B
:101850005A0388E192E0909354038093530389EBF9
:1018600093E09093600380935F0385E793E0909308
:1018700062038093610385EC90E09093640380930E
:10188000630384EC90E0909366038093650380EC9F
:1018900090E0909368038093670381EC90E09093CD
:1018A0006A038093690382EC90E090936C038093C9
:1018B0006B0386EC90E090936E0380936D0384E05D
:1018C00080936F0383E08093700387E080937103BC
:1018D00085E08093720381E0809373030895CF9233
:1018E000DF92EF92FF920F931F93CF93DF936C01E0
:1018F0007A01EB01E60EF71E00E010E0CE15DF05E1
:1019000061F06991D601ED91FC910190F081E02D9B
:10191000C6010995080F191FF1CFC801DF91CF91BA
:101920001F910F91FF90EF90DF90CF900895611578
:10193000710581F0DB010D900020E9F7AD01415008
:101940005109461B570BDC01ED91FC910280F3819C
:10195000E02D099480E090E00895EF92FF920F93BC
:101960001F93CF93DF938C01FB01C0E0D0E0649123
:101970007F018FEFE81AF80A662361F0D801ED9134
:10198000FC910190F081E02DC8010995C80FD91F85
:10199000F701EDCFCE01DF91CF911F910F91FF9015
:1019A000EF900895C4CFDC01ED91FC910190F0819E
:1019B000E02D09940F931F93CF93DF93EC016DE01B
:1019C000F2DF8C016AE0CE01EEDF800F911FDF9124
:1019D000CF911F910F9108950F931F93CF93DF9392
:1019E000EC01BBDF8C01CE01E5DF800F911FDF91A1
:1019F000CF911F910F9108950F931F93CF93DF9372
:101A0000EC0195DF8C01CE01D5DF800F911FDF91B6
:101A1000CF911F910F9108958F929F92AF92BF9295
:101A2000CF92DF92EF92FF920F931F93CF93DF93AA
:101A3000CDB7DEB7A1970FB6F894DEBF0FBECDBF0E
:101A40007C01C42EE52FCB01D22E19A221E02D1549
:101A500010F02AE0D22E8E010F5D1F4F8D2C912C9D
:101A6000A12CB12C6C2D7E2FA50194010E94571D35
:101A70008C2DD29E80191124015011098A3014F442
:101A8000805D01C0895CF801808321153105410525
:101A9000510521F0C22EE32FCA01E4CFB801C701DE
:101AA00046DFA1960FB6F894DEBF0FBECDBFDF9123
:101AB000CF911F910F91FF90EF90DF90CF90BF904B
:101AC000AF909F908F900895CF92DF92EF92FF9208
:101AD0000F931F93CF93DF93EC016A017B012115D4
:101AE000310579F4E881F9810190F081E02D642FCE
:101AF000DF91CF911F910F91FF90EF90DF90CF90EA
:101B000009942A303105D9F477FF18C06DE24BDF14
:101B10008C0144275527BA014C195D096E097F09CC
:101B20002AE0CE0179DF800F911FDF91CF911F91C5
:101B30000F91FF90EF90DF90CF9008952AE0B701CA
:101B4000A601CE01DF91CF911F910F91FF90EF90F1
:101B5000DF90CF9061CF2115310541F4DC01ED918B
:101B6000FC910190F081E02D642F099455CF9A01EA
:101B7000462F50E060E070E0EECF0F931F93CF93BD
:101B8000DF93EC01E8DF8C01CE0114DF800F911FA1
:101B9000DF91CF911F910F9108954F925F926F92B5
:101BA0007F928F929F92AF92BF92CF92DF92EF92ED
:101BB000FF920F931F93CF93DF93EC016A017B0198
:101BC000B22E9A01AB01C701B6010E949A1F882369
:101BD00019F064E272E027C026013701E89477F833
:101BE0002FEF3FEF4FE75FE7C301B2010E949A1F5B
:101BF00081110DC02FEF3FEF4FE75FE7C301B20147
:101C00000E94E41D18161CF468E272E00CC02FEF6D
:101C10003FEF4FE75FE4C701B6010E94331F18167C
:101C2000A4F46CE272E0CE01DF91CF911F910F918D
:101C3000FF90EF90DF90CF90BF90AF909F908F90EC
:101C40007F906F905F904F9072CE2FEF3FEF4FE7F6
:101C50005FECC701B6010E94E41D87FDE2CF20E0E2
:101C600030E0A901C701B6010E94E41D87FF09C049
:101C70006DE2CE0198DE8C01F7FAF094F7F8F0945B
:101C800002C000E010E0A12C60E070E080E09FE383
:101C9000AB1441F020E030E040E251E40E94E81D46
:101CA000A394F6CF9B01AC01C701B6010E94801D31
:101CB0006B017C010E94551E2B013C010E94811E7C
:101CC0009B01AC01C701B6010E947F1D6B017C0125
:101CD0002AE0B301A201CE019FDE080F191FBB202D
:101CE00031F060E372E0CE0122DE080F191F7B2C79
:101CF000772039F120E030E040E251E4C701B6013D
:101D00000E94371F6B017C010E94501E4B01AA24C8
:101D100097FCA094BA2C2AE030E0B501A401CE01D2
:101D2000D3DE080F191FC501B4010E94831E9B0159
:101D3000AC01C701B6010E947F1D6B017C017A9442
:101D4000D7CFC801DF91CF911F910F91FF90EF90F6
:101D5000DF90CF90BF90AF909F908F907F906F90CB
:101D60005F904F90089519CF0F931F93CF93DF93F8
:101D7000EC0113DF8C01CE011DDE800F911FDF917E
:101D8000CF911F910F9108958230E8F4E82FF0E091
:101D9000EE0FFF1FE350FC4F71836083813041F0F1
:101DA000809169008C7F842B80936900E89A089564
:101DB00080916900440F551F440F551F837F842B6A
:101DC00080936900E99A08951F920F920FB60F92BF
:101DD00011242F933F934F935F936F937F938F9330
:101DE0009F93AF93BF93EF93FF938091FD039091E7
:101DF000FE03892B29F0E091FD03F091FE03099584
:101E0000FF91EF91BF91AF919F918F917F916F91D2
:101E10005F914F913F912F910F900FBE0F901F90A8
:101E200018951F920F920FB60F9211242F933F9384
:101E30004F935F936F937F938F939F93AF93BF93D2
:101E4000EF93FF938091FF0390910004892B29F079
:101E5000E091FF03F09100040995FF91EF91BF918C
:101E6000AF919F918F917F916F915F914F913F9132
:101E70002F910F900FBE0F901F9018951F920F92E9
:101E80000FB60F9211242F933F938F939F93AF938D
:101E9000BF938091020490910304A0910404B09137
:101EA00005043091010423E0230F2D3720F401961F
:101EB000A11DB11D05C026E8230F0296A11DB11D6D
:101EC000209301048093020490930304A0930404DC
:101ED000B09305048091060490910704A091080432
:101EE000B09109040196A11DB11D80930604909341
:101EF0000704A0930804B0930904BF91AF919F9188
:101F00008F913F912F910F900FBE0F901F901895BA
:101F10002FB7F89460910204709103048091040437
:101F2000909105042FBF08953FB7F894809106045F
:101F300090910704A0910804B091090426B5A89BCC
:101F400005C02F3F19F00196A11DB11D3FBF6627A7
:101F5000782F892F9A2F620F711D811D911D42E0EC
:101F6000660F771F881F991F4A95D1F70895CF9262
:101F7000DF92EF92FF92CF93DF936B017C01D4DF6E
:101F8000EB01C114D104E104F10471F0CDDF6C1B4D
:101F90007D0B683E7340A8F381E0C81AD108E108C0
:101FA000F108C851DC4FEDCFDF91CF91FF90EF905A
:101FB000DF90CF9008950197009739F0880F991F0F
:101FC000880F991F02970197F1F70895789484B5C7
:101FD000826084BD84B5816084BD85B5826085BD25
:101FE00085B5816085BDEEE6F0E08081816080830B
:101FF000E1E8F0E0108280818260808380818160EE
:102000008083E0E8F0E0808181608083E1EBF0E0B4
:10201000808184608083E0EBF0E080818160808358
:10202000EAE7F0E080818460808380818260808341
:102030008081816080838081806880831092C1006C
:102040000895833081F028F4813099F08230A1F036
:1020500008958630A9F08730B9F08430D1F48091AA
:1020600080008F7D03C0809180008F7780938000F7
:10207000089584B58F7702C084B58F7D84BD08959F
:102080008091B0008F7703C08091B0008F7D8093E6
:10209000B0000895CF93DF9390E0FC01E35BFE4F27
:1020A0002491FC01EF59FE4F8491882349F190E07F
:1020B000880F991FFC01E757FE4FA591B4918158F5
:1020C0009E4FFC01C591D4919FB7611108C0F8944F
:1020D0008C91209582238C93888182230AC0623060
:1020E00051F4F8948C91322F309583238C9388810E
:1020F000822B888304C0F8948C91822B8C939FBF91
:10210000DF91CF9108950F931F93CF93DF931F9289
:10211000CDB7DEB7282F30E0F901E75CFE4F8491A0
:10212000F901E35BFE4F1491F901EF59FE4F049161
:102130000023C1F0882319F0698383DF6981E02FD0
:10214000F0E0EE0FFF1FE158FE4FA591B4919FB74D
:10215000F8948C91611103C01095812301C0812BEB
:102160008C939FBF0F90DF91CF911F910F91089596
:10217000CF93DF93282F30E0F901E75CFE4F849185
:10218000F901E35BFE4FD491F901EF59FE4FC49181
:10219000CC2389F0811155DFEC2FF0E0EE0FFF1F0B
:1021A000EB58FE4FA591B4912C912D2381E090E046
:1021B00021F480E002C080E090E0DF91CF910895AB
:1021C000CF93ECE8F4E020E030E0C22F9191992326
:1021D00051F140E050E0692F70E0842FDB01042EC4
:1021E00002C0B595A7950A94E2F7A0FF17C0F901C0
:1021F000E457FB4F41E050E060E070E0082E04C07F
:10220000440F551F661F771F0A94D2F74095492344
:10221000408398E0C99F800D11240BC04F5F5F4F32
:1022200048305105D1F62F5F3F4F2032310569F616
:1022300080E0CF9108951F93CF93DF93162FC82F7F
:10224000D0E091E4899FB0011124665F7B4FFB01D0
:10225000E05CFF4F9081191759F181110AC0892F55
:102260000ED180918B04181312C08FEF80938B04D2
:102270000EC080914A0418130AC081E4EAE0F4E039
:10228000ABE4B4E001900D928A95E1F711C081E4CE
:102290008C9FB0018D9F700D1124665F7B4FFB01F9
:1022A000E05CFF4F1083812FDF91CF911F91FEC023
:1022B000DF91CF911F9108951F93CF93DF93EC018E
:1022C000162F6E8180E0B7DFE091480481E08E0F29
:1022D000F0E0E65FFB4F10838F3318F480934804DF
:1022E0000EC06EDF809349048E83682F80E0A3DFE9
:1022F00010924904109248048C818F5F8C83DF9187
:10230000CF911F9108958EBD0DB407FEFDCF0895A6
:1023100061E08091AC04F7DE78940895F89460E071
:102320008091AC04F0CE1F93CF93DF9300D0CDB754
:10233000DEB7182F4A836983F1DF6981862F8F7199
:10234000812BE1DF4A81842FDEDF0F900F90DF9138
:10235000CF911F91DDCF1F93CF93DF93182F10766E
:10236000C12FD0E02091AD0430E0C217D30791F027
:1023700043E06FE180EAD7DF1093AD04AE0185E062
:10238000559547958A95E1F76FE180E8DF91CF9108
:102390001F91C9CFDF91CF911F9108951F93CF93C4
:1023A000DF931F92CDB7DEB7182F6983D4DF498141
:1023B000612F80E40F90DF91CF911F91B4CF1F93D5
:1023C000CF93DF931F92CDB7DEB7182F7983E6DF67
:1023D0007981672F81E0810F0F90DF91CF911F915D
:1023E000DDCFEF92FF920F931F93CF93DF9300D037
:1023F000CDB7DEB78C0169837A8390DF8AE783DF0C
:102400006981E62E7A81F72E0E0D1F1DE016F1066A
:1024100029F0F70181917F0176DFF8CF0F900F90BF
:10242000DF91CF911F910F91FF90EF9071CFEF92BD
:10243000FF920F931F93CF93DF9300D0CDB7DEB7FA
:102440008C0169837A836ADF8AE35DDF6981E62E26
:102450007A81F72E0E0D1F1DE016F10639F080E08F
:1024600052DF8EB5F70181937F01F6CF0F900F9069
:10247000DF91CF911F910F91FF90EF9049CFCF93B4
:10248000DF93EB0120E4829FC0011124BC017E5E3A
:10249000813C9D4040F482E092DFBE0180E490E008
:1024A000DF91CF919ECFDF91CF910895CF93DF93AE
:1024B000EB0120E4829FC0011124BC017E5E813CBF
:1024C0009D4040F480E07BDFBE0180E490E0DF913E
:1024D000CF91ADCFDF91CF9108950895FC018DE6A6
:1024E00092E1928B818B768365831482108289E0DE
:1024F000818381E0828383830895FC018481089530
:10250000CF93DF93EB0167E0CE010E94F21C91E0D4
:102510002F81821390E0892FDF91CF910895EF9260
:10252000FF920F931F93CF93DF93EC018B01E42E67
:102530008D819E810E942B1CF12CB8018D819E8182
:102540000E945F1C882351F0FE1005C0B801CE0127
:10255000D7DF811104C0F394EF1478F780E0DF91A6
:10256000CF911F910F91FF90EF900895EF92FF92FE
:102570000F931F93CF93DF9300D0CDB7DEB77C01CD
:102580008A01FC018581968169837A830E94081BF8
:1025900069817A81F701858196810E94021C40E061
:1025A0006EEBF701858196810E94A51BF70185815D
:1025B00096810E94E61BF8018083F7018581968150
:1025C0000E94E61BF8018183F701858196810E94B4
:1025D000E61BF8018283F701858196810E94E61B44
:1025E000F8018383F701858196810E94E61BF8013B
:1025F0008483F701858196810E94E61BF80185831B
:10260000F701858196810E94E61BF8018683F70118
:10261000858196810E94E61BF8018783F7018581F9
:1026200096810E94E61BF8018087F70185819681DB
:102630000F900F90DF91CF911F910F91FF90EF902E
:10264000E7C7CF93DF93EA0191DF68E0CE010E94F4
:10265000F21C91E02885821390E0892FDF91CF91C1
:102660000895EF92FF921F93CF93DF9300D0CDB7E1
:10267000DEB77C01FC018581968169837A83C8D7A6
:1026800069817A81F701858196810E94021C40E070
:1026900064EBF701858196810E94A51BF701858176
:1026A00096810E947A1B182FF70185819681B0D7F9
:1026B00081E0111180E00F900F90DF91CF911F9179
:1026C000FF90EF900895CF93DF93CDB7DEB72997B2
:1026D0000FB6F894DEBF0FBECDBFFB0120812031C5
:1026E000C9F0AE014F5F5F4FACDF882379F08D8179
:1026F0008F3351F018F48F3169F008C08F3541F0F5
:102700008F3721F48CE007C08AE005C080E003C069
:102710008BE001C089E029960FB6F894DEBF0FBEAA
:10272000CDBFDF91CF910895EF92FF920F931F934A
:10273000CF93DF93CDB7DEB761970FB6F894DEBFC6
:102740000FBECDBF8C01FC01858196810E942B1CA0
:10275000F8011482FF24F394BE01665F7F4FF801F5
:10276000858196810E945F1C8823A1F1BE01665F6E
:102770007F4FC801C5DE882379F3F801808181117C
:1027800007C0BE01665F7F4FC8016BDF81111FC0AC
:10279000AE014F5F5F4FBE01665F7F4FC801E6DE4F
:1027A000F801E180BE01665F7F4FC8018CDF8E15A6
:1027B00018F4F801818105C0BE01665F7F4FC80132
:1027C00082DFF801818384818F5F8483C5CFF80124
:1027D000F082DECF61960FB6F894DEBF0FBECDBF9C
:1027E000DF91CF911F910F91FF90EF900895FC0121
:1027F00062830895CF93DF93CDB7DEB729970FB6E5
:10280000F894DEBF0FBECDBFAE014F5F5F4FAEDEAF
:1028100081E09981911101C080E029960FB6F8946A
:10282000DEBF0FBECDBFDF91CF910895CF92DF9273
:10283000EF92FF920F931F93CF93DF93EC018B01E5
:10284000452BC9F08B818823B1F08881811113C099
:102850005FDB6B017C0160E070E0CE01CBDF8111BA
:102860000AC056DB6C197D098E099F096E3E7240C5
:102870008105910580F3F80180818A3049F08B3021
:1028800061F0893079F46EE570E080E090E00EC090
:102890006CEB70E080E090E009C067E771E080E0F9
:1028A00090E004C06EEE72E080E090E0DF91CF91A6
:1028B0001F910F91FF90EF90DF90CF9058CBCF9367
:1028C000DF93EC018D819E81A3D68D819E81C0D73F
:1028D000488164E48D819E8138D78A81882349F0BC
:1028E000BE016F5F7F4F40E050E0CE01DF91CF919E
:1028F0009DCFDF91CF9108958F929F92AF92BF921B
:10290000CF92DF92EF92FF921F93CF93DF93FB0161
:10291000EA01698170E0762F66278881682B8081C3
:102920008232B1F18832A1F1803109F078C01F8183
:1029300075956795882777FD8095982F0E94831E4F
:1029400020E030E040E85EE30E947F1D6B017C01E7
:10295000612F70E08E81681B7109882777FD809553
:10296000982F0E94831E4B015C01612F70E080E074
:1029700090E00E94811E9B01AC01C501B4010E9440
:10298000E81D9B01AC01C701B6010E94801D43C038
:102990008C818F3381F198F48F3109F040C093E03E
:1029A000759567959A95E1F7882777FD8095982F1B
:1029B0000E94831E20E030E040E05FE32AC08F35B4
:1029C00069F08F3761F5882777FD8095982F0E94F1
:1029D000831E20E030E040E85DE31BC075956795FD
:1029E000882777FD8095982F0E94831E20E030E095
:1029F00040E05EE30EC075956795759567958827ED
:102A000077FD8095982F0E94831E20E030E040E8FB
:102A10005EE30E94371F562F472F382F292F652F2F
:102A2000742F832F922FDF91CF911F91FF90EF9002
:102A3000DF90CF90BF90AF909F908F900895EF92CE
:102A4000FF920F931F93CF93DF93CDB7DEB72997F4
:102A50000FB6F894DEBF0FBECDBF8C017B01AE0177
:102A60004F5F5F4FEEDD882339F0AE014F5F5F4F60
:102A7000B701C80141DF04C060E070E08EEF92EC66
:102A800029960FB6F894DEBF0FBECDBFDF91CF9170
:102A90001F910F91FF90EF9008950F931F93CF9385
:102AA000DF93CDB7DEB728970FB6F894DEBF0FBE21
:102AB000CDBF8C01462FBE016F5F7F4F30DDBE0161
:102AC0006F5F7F4FC801BBDF28960FB6F894DEBF5B
:102AD0000FBECDBFDF91CF911F910F9108958EBD95
:102AE0000DB407FEFDCF8EB508950F931F93CF93BE
:102AF000DF931F92CDB7DEB78C0181E0698394D755
:102B000080E09BD784E09ED76981F8018181FBDA60
:102B100085E090E00F90DF91CF911F910F914BCA0C
:102B2000FC01808191818913EECA0895CF92DF92D2
:102B3000EF92FF920F931F93CF93DF9300D0CDB707
:102B4000DEB78C01E62EF22E60E049835A83CDDF9A
:102B50008E2D8F71C4DFE82E4981C42E5A81D52E67
:102B6000F40EFC1431F08FEFBADFF60181936F01A0
:102B7000F8CF61E0C801B9DF8E2D0F900F90DF9183
:102B8000CF911F910F91FF90EF90DF90CF9008951C
:102B90001F93CF93DF93EC01162F60E0A6DF812F08
:102BA0008F719DDF8FEF9BDF182F61E0CE019DDFDE
:102BB000812FDF91CF911F910895CF92DF92EF92F5
:102BC000FF920F931F93CF93DF9300D0CDB7DEB763
:102BD0008C01E62EF22E60E049835A8386DF8E2D2B
:102BE0008F7180627CDFE82E4981C42E5A81D52EF8
:102BF000F40EFC1429F0F60181916F0170DFF9CF1A
:102C000061E0C80172DF8E2D0F900F90DF91CF91A0
:102C10001F910F91FF90EF90DF90CF900895EF926A
:102C2000FF921F93CF93DF931F92CDB7DEB77C0146
:102C3000162F60E0498359DF812F8F7180624FDF4B
:102C4000182F4981842F4BDF61E0C7014EDF812FB0
:102C50000F90DF91CF911F91FF90EF900895AF9269
:102C6000BF92CF92DF92EF92FF920F931F93CF9379
:102C7000DF9300D0CDB7DEB78C01D62EFC01E38008
:102C8000F42EE41608F4FE2CF8018481811102C0B0
:102C9000EF1801C0E12C60E0C80129837A8325DFA9
:102CA0002981822F1CDFC82EAD2C7A81B72EFD0C16
:102CB000FA1429F0F50181915F0111DFF9CFEE20BF
:102CC00021F080E00CDFEA94FACF61E0C8010DDF6B
:102CD0008C2D0F900F90DF91CF911F910F91FF904E
:102CE000EF90DF90CF90BF90AF900895AF92BF92DA
:102CF000CF92DF92EF92FF920F931F93CF93DF93C8
:102D00001F92CDB7DEB78C01D62EFC01E380F42EE6
:102D1000E41608F4FE2CF8018481811102C0EF183A
:102D200001C0E12C60E0C8017983DFDE81E6D7DEF7
:102D3000C82EAD2C7981B72EFD0CFA1431F08FEF2F
:102D4000CEDEF50181935F01F8CFEE2021F08FEF09
:102D5000C6DEEA94FACF61E0C801C7DE8C2D0F9081
:102D6000DF91CF911F910F91FF90EF90DF90CF9067
:102D7000BF90AF9008951F93CF93DF93EC01162F70
:102D800060E0B3DE812FABDE182F61E0CE01ADDE57
:102D9000812FDF91CF911F91089562EEECCF61EE0C
:102DA000EACF6FEFE8CF862F90E0262F21701F9299
:102DB0002F9395958795877099279F938F9364FBA1
:102DC000882780F91F928F9365FB882780F91F92CF
:102DD0008F9366FB882780F91F928F931F926F93C2
:102DE0008AE892E09F938F930E9430208DB79EB720
:102DF0000E960FB6F8949EBF0FBE8DBF0895AF928A
:102E0000BF92DF92EF92FF920F931F93CF93DF93C6
:102E100000D0CDB7DEB78C01F42EE22ECB01698352
:102E20007A830E949E1F69817A81089710F489E055
:102E300001C087E01F928F937F936F93E8E5F2E0E4
:102E4000FF93EF930E943020EF0C0F900F900F90A4
:102E50000F900F900F9030E5A32E32E0B32EFE14AA
:102E600091F0DD24D394DF0C6F2DC80191DE1F9209
:102E70008F93BF92AF920E9430200F900F900F90CF
:102E80000F90FD2CECCF8DE492E09F938F930E94E6
:102E900030200F900F900F900F90DF91CF911F91E6
:102EA0000F91FF90EF90DF90BF90AF9008952F9219
:102EB0003F924F925F926F927F928F929F92AF92CA
:102EC000BF92CF92DF92EF92FF920F931F93CF9317
:102ED000DF9300D01F92CDB7DEB77C01242E322EB7
:102EE0004DB65EB6CB016A837B830E949E1F6A81CA
:102EF0007B81089710F489E001C087E01F928F93CF
:102F00007F936F9385E492E09F938F930E9430208C
:102F1000320C0F900F900F900F900F900F9041E494
:102F2000C42E42E0D42E5CE3A52E52E0B52E23142D
:102F3000E1F16DB67EB6F7012285822E912C8DB718
:102F40009EB7881999090FB6F8949EBF0FBE8DBF22
:102F50000DB71EB70F5F1F4F91E0920D9983A80127
:102F6000622DC701E3DDDF92CF920E943020800EF8
:102F7000911E0F900F90F1E08F1A91088016910624
:102F800068F0F40180811F928F93BF92AF920E94EC
:102F900030200F900F900F900F90EDCF0FB6F89458
:102FA0007EBE0FBE6DBE2980C2CF89E392E09F93A3
:102FB0008F930E9430200F900F900FB6F8945EBE52
:102FC0000FBE4DBE0F900F900F90DF91CF911F91CC
:102FD0000F91FF90EF90DF90CF90BF90AF909F90B8
:102FE0008F907F906F905F904F903F902F900895BB
:102FF000FC0160834183128280E28383148285E036
:1030000082870895462F603808F04FE765E007CEC5
:10301000CF93DF93EC0160E0BBDD81FD10C060E089
:10302000CE01B6DD482F426060E0CE01F8DD65E0FC
:1030300070E080E090E0DF91CF910C94B70FDF91CA
:10304000CF910895CF93DF93EC01222311F020EB71
:1030500001C020EACE0103DE61E0CE0161DD60E067
:10306000CE01DF91CF915CCD0F931F93CF93DF9370
:103070008C01EB0167E18CDD80FD0AC0209751F0E7
:10308000C8018FDE90E0959587958770888302C090
:1030900080E001C081E0DF91CF911F910F910895F1
:1030A00060E070E0E1CFCF93DF93EC011FDE40E7FB
:1030B00067E0CE01DF91CF91B2CDEF92FF920F93F7
:1030C0001F93CF93DF93EB018A01790140E767E01B
:1030D000A6DD85FB992790F9988384FB992790F9C1
:1030E000F801908386FB882780F9F7018083DF91C0
:1030F000CF911F910F91FF90EF9008950F931F9321
:10310000CF93DF93EC018B012A85AB016AE055DD9B
:103110002A85A80160E1CE0150DD4B8161E1CE013D
:10312000DF91CF911F910F917ACDFF920F931F9353
:10313000CF93DF93EC01F62E8A01611106C04A8518
:1031400050E0B801059612D707C086E0861708F44C
:1031500033C081E0681307C0EF2DF0E0EA52FD4F65
:1031600064912A8506C0E62FF0E0EA52FD4F649193
:1031700021E0A801CE0121DD0F2D10E0F801E05380
:10318000FD4F64914B81CE014ADD62E0CE0100DD4E
:10319000F801E452FD4F049121E030E001C0220F1C
:1031A0000A95EAF7822B482F62E0CE01DF91CF919A
:1031B0001F910F91FF9033CDDF91CF911F910F9110
:1031C000FF9008951F93CF93DF93EC01162F62E0D9
:1031D000DFDCE12FF0E0E452FD4FE49141E050E00C
:1031E00001C0440FEA95EAF74095482362E0CE011A
:1031F000DF91CF911F9113CDCF93DF93EC0108DFC7
:1032000060E0CE01C5DC482F416060E0CE0107DD03
:1032100040E767E0CE0103DD61E0CE0181DC8D8116
:10322000882341F02A85AE014B5F5F4F6AE0CE01F3
:10323000C4DC03C060E0CE01C5DF6DE1CE01A8DCD7
:1032400081FF04C0CE01DF91CF91A9CDDF91CF9155
:103250000895CF93DF93EC0160E047DC80E53FDC2D
:1032600083E73DDC61E0CE01DF91CF913ECCCF938F
:10327000DF93EC01EEDF6DE1CE018ADC482F446084
:103280006DE1CE01CCDC6CE1CE0182DC482F4F63D6
:103290006CE1CE01C4DC81E08C83DF91CF91089595
:1032A000CF93DF93EC01D5DF6DE1CE0171DC482FC8
:1032B00046606DE1CE01B3DC6CE1CE0169DC482FE4
:1032C00043606CE1CE01ABDC81E08C83DF91CF9178
:1032D0000895CF92DF92FF920F931F93CF93DF93C6
:1032E00000D01F92CDB7DEB78C01F62E213208F048
:1032F00020E260E0C80129834A835B83F6DB8F2DDF
:103300008770886AECDB4A81C42E5B81D52E2981C7
:10331000F22EF40EFC1429F0F60181916F01DFDB2F
:10332000F9CF61E0C8010F900F900F90DF91CF911E
:103330001F910F91FF90DF90CF90D7CB66E028DCF4
:10334000867086950895EF92FF920F931F93CF9307
:10335000DF931F92CDB7DEB77C018B0166E018DCEE
:10336000582F577D0230110531F450620BE910E0FF
:1033700020E030E00DC00130110529F005E510E036
:1033800020E030E005C0586001E410E020E030E0CB
:10339000F7010387148725873687452F66E0C70125
:1033A00059833DDC66E0C701F3DB91E05981851369
:1033B00090E0892F0F90DF91CF911F910F91FF9097
:1033C000EF90089566E0E4DB282F2872203231F078
:1033D00081E090E0283021F080E0089582E090E0E4
:1033E00008950F931F93CF93DF93EC018B0160E05F
:1033F000CFDB482F437F0115110531F00130110556
:1034000011F4486001C04C6060E0CE01DF91CF91C3
:103410001F910F9104CCCF93DF93EC0188819981A8
:10342000891719F061E00E944A10898198819817E4
:1034300019F061E00E944A10E1D260E0CE0170DB39
:1034400061E0CE0152DB65E070E080E090E00E9438
:10345000B70F4FE564E0CE01E2DB62E070E0CE0141
:1034600072DF882311F081E08A8360E070E0CE0192
:103470006ADF62E070E0CE01B4DFCE01EADE40E058
:103480006DE1CE01CCDB40E06CE1CE01C8DB40E772
:1034900067E0CE01C4DB6CE4CE01B4DDCE017DDC9F
:1034A000CE017DDCCE01B4DD60E0CE0171DB482FC2
:1034B0004E7F60E0CE01DF91CF91B1CB1F93CF93D0
:1034C000DF93EC0160E064DB182F61E0CE0160DB8C
:1034D00013FD02C0882329F012FF06C082E090E0AD
:1034E00005C080E090E002C081E090E0DF91CF91E4
:1034F0001F910895CF93DF93EC0153DC682FCE0129
:1035000052DC22E04AE06CE272E0CE01D0DC24E042
:103510004CE06FE172E0CE0172DC21E040E167E156
:1035200072E0CE01C4DC26E041E16CE072E0CE0145
:1035300066DC21E041E066E072E0CE0160DC21E083
:1035400042E06CEF71E0CE015ADC21E045E066EF2D
:1035500071E0CE0154DC21E046E06DEE71E0CE0179
:103560004EDC21E040E066EE71E0CE0148DC22E076
:103570004CE168ED71E0CE0142DCCE0123DF880F23
:10358000991F845C9C4FFC01859194919F938F932C
:1035900086EC91E09F938F9363D5EA81F0E0EE0F84
:1035A000FF1FEB5DFC4F859194919F938F9387EB69
:1035B00091E09F938F9354D5CE0180DF880F991FA0
:1035C000895F9C4FFC01859194919F938F9384EA2E
:1035D00091E09F938F9344D5CE01B0DEE82FF0E0C9
:1035E000EE0FFF1FEE51FD4F859194919F938F93A6
:1035F00083E991E09F938F9333D58DB79EB7409623
:103600000FB6F8949EBF0FBE8DBFDF91CF91089586
:10361000FF920F931F93CF93DF93FC010081C18131
:10362000D281F8948981F02EF0948F218983789447
:103630001DE7115029F182E090E00E94DB0F8881A4
:103640008023B9F3F8948A818F218A838981802B22
:103650008983789480EE91E00E94DB0FF894898151
:103660008F21898386E490E00E94DB0F888180238C
:1036700011E009F010E078948AE991E00E94DB0FF4
:10368000812FDF91CF911F910F91FF9008951F938C
:10369000CF93DF93FC011081C181D281912F90954E
:1036A00060FF12C0F8948A8189238A838981812BE3
:1036B00089838AE090E00E94DB0F8A81812B8A83D4
:1036C000789487E390E011C0F8948A8189238A83F3
:1036D0008981812B898381E490E00E94DB0F8A81BC
:1036E000812B8A83789485E090E0DF91CF911F91C0
:1036F0000C94DB0F0F931F93CF93DF93FC0110818A
:10370000C181D281F8948981812B89838A81012F9B
:10371000009580238A8383E090E00E94DB0F8981FB
:10372000802389838AE090E00E94DB0FC88178942F
:1037300085E390E00E94DB0F1C2381E009F480E028
:10374000DF91CF911F910F910895CF92DF92EF9269
:10375000FF920F931F93CF93DF931F92CDB7DEB7E6
:103760006C01E62E08E010E0FF24F39461E09F2D49
:103770009E2109F460E0C601498389DFFF0C0150F6
:10378000110949810115110589F7411115C0F894F6
:10379000D6011196ED91FC91129791818C918095B3
:1037A000892381831196ED91FC91129792818C91DE
:1037B00080958923828378940F90DF91CF911F9118
:1037C0000F91FF90EF90DF90CF900895EF92FF92CE
:1037D0000F931F93CF93DF938C01C8E0D0E0F12CBF
:1037E000EE24E394C80186DF8111FE28EE0C2197B8
:1037F0002097C1F78F2DDF91CF911F910F91FF90EF
:10380000EF900895CF92DF92FF920F931F93CF9383
:10381000DF931F92CDB7DEB78C01F62E40E065E551
:10382000798393DFCF2C7981D72E88E0F82EF601AB
:1038300061916F0140E0C80188DFFA94C1F70F90F1
:10384000DF91CF911F910F91FF90DF90CF9008955E
:1038500040E06CEC7ACFFC0113861586148627E0D5
:1038600030E0DF01A20FB31F13961C922115310522
:1038700019F021503109F5CF08951F93CF93DF93AD
:10388000EC01162F60E0812F0E944A10612F70E03A
:10389000FB01E35BFE4FE491E883FB01EF59FE4F30
:1038A000E491F0E0EE0FFF1FEB58FE4F85919491ED
:1038B0009A838983CE01DF91CF911F91CCCFAF92B4
:1038C000BF92CF92DF92EF92FF920F931F93CF930D
:1038D000DF931F92CDB7DEB75C01E62ED72EFC0139
:1038E0008585811158C0C50193DE811105C0F501A0
:1038F0001386158614866AC040E060EFC50125DF97
:1039000001E0F12CC12C11E0C501F4DE682FC501E6
:103910006983F0DE6981613019F48130B9F432C015
:103920002F2D30E068131BC0F5018385181730F484
:10393000E20FF31F8381802349F402C0181731F08E
:1039400060E0193058F4F501148708C0F501EF0D57
:10395000F11D8381802B838361E009C0C12EF501B5
:10396000E20FF31F8381902F909589238383C501F4
:103970008EDE1F5F000F11F4F39401E0F7E0FF15F6
:1039800008F0C2CF113438F0F501C386C11018C059
:1039900081E0858715C0F50113861586148680E0C1
:1039A000EE2DFD2D20E030E0D501A20FB31F1396C0
:1039B0009C9191932F5F3F4F28303105A9F706C0A6
:1039C000F5018381882339F381E0EACF0F90DF91FD
:1039D000CF911F910F91FF90EF90DF90CF90BF900C
:1039E000AF900895DC0180E0615038F0ED91E82758
:1039F000F0E0EA5AFC4F8491F7CF089561E08AE045
:103A00000E94831061E08AE00E944A108CB58061B8
:103A10008CBD8CB580648CBD61E08DE00E944A1045
:103A200061E08BE00C944A10811103C08CB5806278
:103A300002C08CB58F7D8CBD08959CB5937F982B6B
:103A40009CBD08952CB5982F93702C7F922B9CBD14
:103A50009DB582FB882780F99E7F982B9DBD089598
:103A6000AA1BBB1B51E107C0AA1FBB1FA617B707A4
:103A700010F0A61BB70B881F991F5A95A9F78095C0
:103A80009095BC01CD01089597FB072E16F4009484
:103A900006D077FD08D0E4DF07FC05D03EF4909512
:103AA00081959F4F0895709561957F4F0895A1E28C
:103AB0001A2EAA1BBB1BFD010DC0AA1FBB1FEE1FA8
:103AC000FF1FA217B307E407F50720F0A21BB30BF3
:103AD000E40BF50B661F771F881F991F1A9469F76F
:103AE00060957095809590959B01AC01BD01CF01CB
:103AF0000895EE0FFF1F0590F491E02D09945058A2
:103B0000BB27AA270ED075C166D130F06BD120F04B
:103B100031F49F3F11F41EF45BC10EF4E095E7FB16
:103B200051C1E92F77D180F3BA1762077307840771
:103B3000950718F071F49EF58FC10EF4E0950B2EE9
:103B4000BA2FA02D0B01B90190010C01CA01A001EF
:103B50001124FF27591B99F0593F50F4503E68F14A
:103B60001A16F040A22F232F342F4427585FF3CF8B
:103B7000469537952795A795F0405395C9F77EF45C
:103B80001F16BA0B620B730B840BBAF09150A1F0A5
:103B9000FF0FBB1F661F771F881FC2F70EC0BA0F2B
:103BA000621F731F841F48F4879577956795B795B3
:103BB000F7959E3F08F0B3CF9395880F08F09927AB
:103BC000EE0F979587950895D9D008F481E0089570
:103BD0000CD00FC107D140F0FED030F021F45F3F90
:103BE00019F0F0C0511139C1F3C014D198F39923E1
:103BF000C9F35523B1F3951B550BBB27AA276217B1
:103C00007307840738F09F5F5F4F220F331F441FF5
:103C1000AA1FA9F333D00E2E3AF0E0E830D091502D
:103C20005040E695001CCAF729D0FE2F27D0660F1A
:103C3000771F881FBB1F261737074807AB07B0E859
:103C400009F0BB0B802DBF01FF2793585F4F2AF06F
:103C50009E3F510568F0B6C000C15F3FECF3983E4F
:103C6000DCF3869577956795B795F7959F5FC9F7CC
:103C7000880F911D9695879597F90895E1E0660F55
:103C8000771F881FBB1F621773078407BA0720F0CE
:103C9000621B730B840BBA0BEE1F88F7E095089537
:103CA00004D06894B111D9C00895BCD088F09F5752
:103CB00090F0B92F9927B751A0F0D1F0660F771F78
:103CC000881F991F1AF0BA95C9F712C0B13081F058
:103CD000C3D0B1E00895C0C0672F782F8827B85FA0
:103CE00039F0B93FCCF3869577956795B395D9F7B9
:103CF0003EF490958095709561957F4F8F4F9F4FC3
:103D00000895E89409C097FB3EF4909580957095CE
:103D100061957F4F8F4F9F4F9923A9F0F92F96E917
:103D2000BB279395F695879577956795B795F1118C
:103D3000F8CFFAF4BB0F11F460FF1BC06F5F7F4F29
:103D40008F4F9F4F16C0882311F096E911C077233B
:103D500021F09EE8872F762F05C0662371F096E844
:103D6000862F70E060E02AF09A95660F771F881F13
:103D7000DAF7880F9695879597F90895990F0008B7
:103D8000550FAA0BE0E8FEEF16161706E807F9072D
:103D9000C0F012161306E407F50798F0621B730BC8
:103DA000840B950B39F40A2661F0232B242B252B49
:103DB00021F408950A2609F4A140A6958FEF811DEC
:103DC000811D089597F99F6780E870E060E008958D
:103DD0009FEF80EC089500240A9416161706180623
:103DE0000906089500240A941216130614060506FF
:103DF0000895092E0394000C11F4882352F0BB0F90
:103E000040F4BF2B11F460FF04C06F5F7F4F8F4FF2
:103E10009F4F089557FD9058440F551F59F05F3F2D
:103E200071F04795880F97FB991F61F09F3F79F0DC
:103E300087950895121613061406551FF2CF46955E
:103E4000F1DF08C0161617061806991FF1CF8695E0
:103E50007105610508940895E894BB2766277727C4
:103E6000CB0197F908958ADF08F48FEF08950BD0FE
:103E7000C0CFB1DF28F0B6DF18F0952309F0A2CF4C
:103E8000A7CF1124EACFC6DFA0F3959FD1F3950FFA
:103E900050E0551F629FF001729FBB27F00DB11DCE
:103EA000639FAA27F00DB11DAA1F649F6627B00D5E
:103EB000A11D661F829F2227B00DA11D621F739F47
:103EC000B00DA11D621F839FA00D611D221F749F55
:103ED0003327A00D611D231F849F600D211D822F9C
:103EE000762F6A2F11249F5750408AF0E1F08823E3
:103EF0004AF0EE0FFF1FBB1F661F771F881F9150F0
:103F00005040A9F79E3F510570F05CCFA6CF5F3FB0
:103F1000ECF3983EDCF3869577956795B795F79522
:103F2000E7959F5FC1F7FE2B880F911D96958795AA
:103F300097F9089523DF880B990B0895FC010590EC
:103F40000020E9F7809590958E0F9F1F0895FB0143
:103F5000DC014150504048F005900D920020C9F717
:103F600001C01D9241505040E0F70895FB01DC0173
:103F700002C001900D9241505040D8F70895DC01E5
:103F800001C06D9341505040E0F70895FB01DC0102
:103F90004150504048F001900D920020C9F701C0F7
:103FA0001D9241505040E0F708950F931F93CF9317
:103FB000DF93EC018B01009731F46115710519F461
:103FC00080E090E037C06EE070E081E090E05BD28E
:103FD000FC010097A9F380E883830115110571F0B6
:103FE0001387028781E883838091B2049091B304A0
:103FF000892B21F4F093B304E093B2042097C9F025
:10400000D187C0878381826083838091B40490913B
:10401000B504892B71F4F093B504E093B404809156
:10402000B6049091B704892B21F4F093B704E09380
:10403000B604CF01DF91CF911F910F910895A0E0B9
:10404000B0E0E4E2F0E2F0C2FE01359661917191D8
:10405000AF018091B4049091B5044AD0E2E000C36E
:10406000A0E0B0E0E5E3F0E2DDC2FE013796619149
:10407000719104EB14E0D8018D919C91DC011396B1
:104080002C911397286013962C93AF0131D0D8014F
:10409000ED91FC912381277F2383E4E0DFC2AEE032
:1040A000B0E0E4E5F0E2BEC28C01CA0146E04C8318
:1040B0001A83098377FF02C060E070E861507109DC
:1040C0007E836D83A901BC01CE01019611D04D8183
:1040D0005E8157FD0AC02F813885421753070CF4C3
:1040E0009A01F801E20FF31F10822E96E4E0B6C2A7
:1040F000ACE0B0E0EDE7F0E287C27C016B018A0141
:10410000FC0117821682838181FFB0C1CE01019626
:104110004C01F7019381F60193FD859193FF819105
:104120006F01882309F49EC1853239F493FD85918E
:1041300093FF81916F01853221F4B70190E0D4D1D2
:10414000E8CF512C312C20E02032A0F48B3269F0E2
:1041500030F4803259F0833269F420612CC08D3202
:1041600039F0803339F4216026C02260246023C0F6
:10417000286021C027FD27C030ED380F3A3078F491
:1041800026FF06C0FAE05F9E300D1124532E13C0A7
:104190008AE0389E300D1124332E20620CC08E32FE
:1041A00021F426FD5FC1206406C08C3611F420681E
:1041B00002C0883641F4F60193FD859193FF819109
:1041C0006F018111C1CF982F9F7D9554933028F4B2
:1041D0000C5F1F4FFFE3F9830DC0833631F0833747
:1041E00071F0833509F057C021C0F80180818983BF
:1041F0000E5F1F4F44244394512C540114C03801C6
:10420000F2E06F0E711CF801A080B18026FF03C0A0
:10421000652D70E002C06FEF7FEFC5012C8759D18B
:104220002C0183012C852F77222E16C03801F2E055
:104230006F0E711CF801A080B18026FF03C0652DB0
:1042400070E002C06FEF7FEFC5012C8737D12C01E2
:104250002C852068222E830123FC19C0832D90E039
:1042600048165906A0F4B70180E290E03DD13A9497
:10427000F5CFF50127FC859127FE81915F01B701FC
:1042800090E032D131103A94F1E04F1A51084114C4
:10429000510479F7DEC0843611F0893631F5F80122
:1042A00027FF07C060817181828193810C5F1F4F5E
:1042B00008C060817181882777FD8095982F0E5FF7
:1042C0001F4F2F76B22E97FF09C09095809570955D
:1042D00061957F4F8F4F9F4F2068B22E2AE030E0CC
:1042E000A40134D1A82EA81843C0853729F42F7E05
:1042F000B22E2AE030E025C0F22FF97FBF2E8F3694
:10430000C1F018F4883579F0ADC0803719F08837DE
:1043100021F0A8C02F2F2061B22EB4FE0DC08B2D2E
:104320008460B82E09C024FF0AC09F2F9660B92E62
:1043300006C028E030E005C020E130E002C020E106
:1043400032E0F801B7FE07C06081718182819381FC
:104350000C5F1F4F06C06081718180E090E00E5FAE
:104360001F4FA401F3D0A82EA818FB2DFF77BF2E56
:10437000B6FE0BC02B2D2E7FA51450F4B4FE0AC040
:10438000B2FC08C02B2D2E7E05C07A2C2B2D03C02D
:104390007A2C01C0752C24FF0DC0FE01EA0DF11D21
:1043A0008081803311F4297E09C022FF06C07394F6
:1043B000739404C0822F867809F0739423FD12C091
:1043C00020FF06C05A2C731418F4530C5718732C82
:1043D000731460F4B70180E290E02C8785D0739469
:1043E0002C85F6CF731410F4371801C0312C24FF3C
:1043F00011C0B70180E390E02C8776D02C8522FF96
:1044000016C021FF03C088E590E002C088E790E075
:10441000B7010CC0822F867851F021FD02C080E2E6
:1044200001C08BE227FD8DE2B70190E05DD0A514BD
:1044300030F4B70180E390E057D05A94F8CFAA94B3
:10444000F401EA0DF11D8081B70190E04DD0A1107B
:10445000F6CF332009F45DCEB70180E290E044D07E
:104460003A94F7CFF7018681978102C08FEF9FEFD3
:104470002C96E2E1E5C0F999FECF92BD81BDF89A94
:10448000992780B508950F931F93CF93DF93869F4D
:104490008001879F100D969F100D1124C8010E9466
:1044A0006B09EC01009721F0A80160E070E067DD86
:1044B000CE01DF91CF911F910F910895FC010590DE
:1044C000615070400110D8F7809590958E0F9F1F16
:1044D0000895FC016150704001900110D8F780955B
:1044E00090958E0F9F1F08950F931F93CF93DF9387
:1044F000182F092FEB018B8181FD03C08FEF9FEFF8
:1045000020C082FF10C04E815F812C813D81421707
:1045100053077CF4E881F9819F012F5F3F4F398376
:104520002883108306C0E885F985812F0995892B9A
:1045300029F72E813F812F5F3F4F3F832E83812FAD
:10454000902FDF91CF911F910F910895FA01AA2723
:10455000283051F1203181F1E8946F936E7F6E5FC6
:104560007F4F8F4F9F4FAF4FB1E03ED0B4E03CD074
:10457000670F781F891F9A1FA11D680F791F8A1F57
:10458000911DA11D6A0F711D811D911DA11D20D0BE
:1045900009F468943F912AE0269F11243019305D78
:1045A0003193DEF6CF010895462F4770405D419369
:1045B000B3E00FD0C9F7F6CF462F4F70405D4A33B6
:1045C00018F0495D31FD4052419302D0A9F7EACF7E
:1045D000B4E0A6959795879577956795BA95C9F7AD
:1045E00000976105710508959B01AC010A2E0694A0
:1045F0005795479537952795BA95C9F7620F731F59
:10460000841F951FA01D08952F923F924F925F9295
:104610006F927F928F929F92AF92BF92CF92DF92D2
:10462000EF92FF920F931F93CF93DF93CDB7DEB737
:10463000CA1BDB0B0FB6F894DEBF0FBECDBF0994CB
:104640002A88398848885F846E847D848C849B8422
:10465000AA84B984C884DF80EE80FD800C811B8130
:10466000AA81B981CE0FD11D0FB6F894DEBF0FBE5F
:0A467000CDBFED010895F894FFCFCF
:10467A003135303133300031363433313300CCCE3A
:10468A00CCCECCCECCCECCCEFC0104020B020000A8
:10469A00B804800068656C70003F0072656274003F
:1046AA004465627567206D6F64652000696E666F88
:1046BA0000646562670073656E730063616C6C0009
:1046CA0072756E0073746F700000000000BF046F93
:1046DA000C300053656E643A4F4B0A0D0041636B10
:1046EA00205061796C6F61643A53656E740A0D00EB
:1046FA0053656E643A4661696C65640A0D004163EC
:10470A006B205061796C6F61643A4661696C6564CB
:10471A000A0D0041636B3A256C750A0D00476F74E8
:10472A00207061796C6F616420256C752C207E2065
:10473A0025640A0D004E6F772073656E64696E6793
:10474A0020256C752C207E25640A0D00526F6C653D
:10475A003A2025730A0D0052462073696E6365205C
:10476A00626F6F743A20256C750A0D00696E766166
:10477A006C69640053656E646572005265636569AD
:10478A007665720000000000E60A6F0C920ABB0A06
:10479A00A20ADB0A6E616E00696E66006F766600B9
:0247AA002E00DF
:00000001FF
