:1000000029C200000C9415100C9442104AC2000042
:1000100048C2000046C2000076C4000042C2000090
:1000200040C200003EC200003CC200003AC20000D4
:1000300038C2000036C2000034C2000032C20000E4
:100040000C946F102EC200000C94250C0C945F0CC5
:1000500028C2000026C2000024C2000022C2000004
:1000600020C200001EC20000436F6D6D616E64739C
:1000700020617661696C61626C653A003D3E0055B5
:100080006E6B6E6F776E20283F20666F72206865FA
:100090006C70290007000D0A0064697361626C6569
:1000A0006400656E61626C6564002020000D0A00CA
:1000B000440045002053256420005363686564753F
:1000C0006C6572733A0D0A004D656D6F72793A2056
:1000D0000A0D454550524F4D207665722025643BF0
:1000E0002052414D2025640A0D0020204C6F6F7076
:1000F00020752000446576696365206D696C6C69C4
:100100007320000A535953494E464F3A0A0D42751F
:10011000696C643A2025732F25730A0D0020002096
:100120000031576972653A005741524E2100000074
:1001300000070002010000030406000000000000A8
:100140000000010204081020408001020408102071
:10015000010204081020040404040404040402023C
:100160000202020203030303030300000000230052
:100170002600290000000000250028002B000000B8
:100180000000240027002A00504120506F7765723C
:1001900009203D2025530D0A00435243204C656E33
:1001A00067746809203D2025530D0A004D6F646572
:1001B0006C0909203D2025530D0A0044617461201B
:1001C0005261746509203D2025530D0A0044594EA3
:1001D00050442F4645415455524500434F4E4649E1
:1001E000470052465F53455455500052465F4348BE
:1001F00000454E5F52584144445200454E5F4141D4
:100200000052585F50575F50302D360054585F41B0
:100210004444520052585F414444525F50322D359D
:100220000052585F414444525F50302D31000D0A56
:1002300000253032780020307800255309256320CE
:100240003D000D0A00203078253032780025530912
:100250002563203D004F4253455256455F54583D5B
:10026000253032783A20504F4C535F434E543D2551
:1002700078204152435F434E543D25780D0A005388
:1002800054415455530909203D20307825303278A7
:100290002052585F44523D25782054585F44533DC6
:1002A0002578204D41585F52543D25782052585FA3
:1002B000505F4E4F3D25782054585F46554C4C3D7D
:1002C00025780D0A001112131415160A0B0C0D0EC9
:1002D0000F000102030405F502EE02E602DF025000
:1002E000415F4D41580050415F48494748005041E7
:1002F0005F4C4F570050415F4D494E0011030A03B8
:1003000002033136206269747300382062697473A5
:100310000044697361626C65640028031E036E52B9
:100320004632344C30312B006E524632344C303130
:100330000045033F0337033235304B425053003200
:100340004D42505300314D42505300005EBCE261BB
:100350003FDD83C29C7E20A3FD1F419DC3217FFC06
:10036000A2401E5F01E3BD3E6082DC237D9FC1424F
:100370001CFEA0E1BF5D0380DE3C62BEE0025CDFEC
:1003800081633D7C22C09E1D43A1FF4618FAA4272D
:10039000799BC584DA3866E5BB5907DB856739BACE
:1003A000E406581947A5FB7826C49A653BD987040B
:1003B0005AB8E6A7F91B45C6987A24F8A6441A99B4
:1003C000C7257B3A6486D85B05E7B98CD2306EEDE1
:1003D000B3510F4E10F2AC2F7193CD114FADF3709E
:1003E0002ECC92D38D6F31B2EC0E50AFF1134DCEB7
:1003F00090722C6D33D18F0C52B0EE326C8ED05384
:100400000DEFB1F0AE4C1291CF2D73CA947628AB9C
:10041000F517490856B4EA6937D58B5709EBB53655
:10042000688AD495CB2977F4AA4816E9B7550B8882
:10043000D6346A2B7597C94A14F6A8742AC896153B
:100440004BA9F7B6E80A54D7896B3500560558060C
:100450006C081B0D11241FBECFEFD8E0DEBFCDBF4F
:1004600012E0A0E0B1E0E4E1F9E402C005900D92F1
:10047000AE35B107D9F724E0AEE5B2E001C01D9278
:10048000A83FB207E1F714E0C4E5D4E004C0229726
:10049000FE010E94AC1ECC34D107C9F7E7D20C9400
:1004A0008824AECDE091C902F091CA020994CF939D
:1004B000DF9368E670E083E993E00E94EE0DC5E704
:1004C000D2E08881882329F0BE0183E993E00E946D
:1004D000FE0D279682E0C93CD80799F7DF91CF91AE
:1004E0000895FF920F931F93CF93DF938B01F090AA
:1004F0005E0227E0F29EE0011124CB58DD4F44E07C
:1005000050E0BC01CE010E9405211C821E830D8398
:10051000F394F0925E02DF91CF911F910F91FF90C3
:10052000089567E572E084E291E0DBDF67E572E061
:1005300089E291E0D6DF62E572E08BE291E0D1CF13
:100540006CE770E083E993E00C94AF0D0F931F9379
:10055000CF93DF9380915F02882369F180916002DD
:100560008823E1F010E007E0019FE0011124CB585F
:10057000DD4F8881882349F044E050E0BE0181E6E8
:1005800092E00E94F720892B91F01F5F1C3060F3EE
:100590006FE770E083E993E00E94EE0D10925F0236
:1005A00010926002DF91CF911F910F91C9CFED8121
:1005B000FE810995F3CFDF91CF911F910F9108959F
:1005C000BFCF0F931F93CF93DF9300E010E083E939
:1005D00093E00E94940B892B11F0002339F01D3019
:1005E00009F04FC081E080935F024BC083E993E044
:1005F0000E94BD0BEC01182F99278D30910571F4E5
:10060000E0916002F0E0EF59FD4F108266E970E082
:1006100083E993E00E94AF0D01E0D9CF8F379105B8
:10062000A1F4E0916002EE2349F0E150E093600212
:10063000F0E0EF59FD4F108268E01EC064E970E001
:1006400083E993E00E94AF0DC2CF103254F44AE028
:1006500050E06C2F772767FD709583E993E00E9447
:10066000AD0EE091600281E08E0F80936002F0E0B9
:10067000EF59FD4FC0836C2F83E993E00E94D50DA5
:10068000A6CFDF91CF911F910F910895CF9383E073
:1006900090E00E947A23C82F60E371E083E993E041
:1006A0000E94D40D4AE050E063E070E083E993E0FB
:1006B0000E94EA0E6BE471E083E993E00E94D40D9E
:1006C0004AE050E06C2F83E993E00E94D50EC230DF
:1006D00011F4CCE401C0C2E060E571E083E993E08D
:1006E0000E94D40D4AE050E06C2F83E993E00E9411
:1006F000D50E6C2F83E090E0CF910C9482234F9223
:100700005F926F927F928F929F92AF92BF92CF92A1
:10071000DF92EF92FF920F931F93CF93DF9380911D
:10072000D7028111B1C087E091E09F938F9380E061
:1007300091E09F938F9383E091E09F938F93C3E920
:10074000D3E0DF93CF9377D694D464EF70E0CE01FB
:100750000E94AF0D0E94B910AB01BC012AE030E04D
:10076000CE010E94C30E6AEE70E0CE010E94AF0D72
:100770004091CD025091CE026091CF027091D00293
:100780002AE030E0CE010E94EF0E81E090E00E946E
:100790007A23182F6FD19F938F931F921F9388EC0A
:1007A00090E09F938F93DF93CF9345D68AEB90E0B1
:1007B0009F938F93DF93CF933ED68DB79EB744968A
:1007C0000FB6F8949EBF0FBE8DBF00E010E084EB23
:1007D000482E80E0582E90EB692E90E0792E22EB87
:1007E000E22E20E0F22E35E0832E912C4AEAC42E30
:1007F00040E0D42E5DEAA52E50E0B52E1F930F9356
:100800005F924F92DF93CF9316D6802FACD40F9088
:100810000F900F900F900F900F90882319F0FF9278
:10082000EF9202C07F926F92DF93CF9304D60F9026
:100830000F900F900F900F5F1F4FC801B4010E94DF
:10084000751E892B19F4BF92AF9202C0DF92CF922E
:10085000DF93CF93F0D50F900F900F900F900A3049
:10086000110561F6C2D1DF91CF911F910F91FF90D9
:10087000EF90DF90CF90BF90AF909F908F907F9040
:100880006F905F904F900CC4DF91CF911F910F91AB
:10089000FF90EF90DF90CF90BF90AF909F908F90A0
:1008A0007F906F905F904F9008958091D60291E075
:1008B00089278093D6026CE571E083E993E00E947A
:1008C000D40D8091D602882319F062EA70E002C04C
:1008D00069E970E083E993E00C94EE0D3CC141C1FD
:1008E00008956091CC0281E068276093CC0284E097
:1008F0000C94B4116091CB0281E068276093CB0225
:1009000086E00C94B4111F920F920FB60F9211242F
:100910002F933F934F935F936F937F938F939F9307
:10092000AF93BF93EF93FF9388E10FB6F894809352
:100930006000109260000FBE8091D4028111DADF56
:10094000FF91EF91BF91AF919F918F917F916F91A7
:100950005F914F913F912F910F900FBE0F901F907D
:100960001895EAE7F0E080818F77808380E880BF88
:10097000E4E6F0E08081816080838EE380937E00F6
:1009800081E080937F0080818860808380818064A3
:1009900080838081806880831092D50283B7817FB5
:1009A00083BF08959FD31092D6021092D302109263
:1009B000D70261E084E00E947B1161E083E00E9445
:1009C0007B11CFDF8091D70280D08091D702811137
:1009D00001C0D2D38091D702811127C040E052ECF0
:1009E00061E070E083E993E0A5D79BDD6FE773E0FA
:1009F00088E691E076DD65E574E08DE691E071DDF5
:100A00006FED77E082E791E06CDD61EA79E087E7FE
:100A100091E067DD62EB79E08BE791E062DD66E40F
:100A200073E080E891E05DDDCBDD47D28091D702B5
:100A3000811102C064DE85C40895C12CD12C7601D9
:100A400094D484DDBEDD0E94C5106C197D098E0929
:100A50009F096093CD027093CE028093CF02909352
:100A6000D0020E94C5106B017C01EACF0E941711D1
:100A700099DFE3DFCF93DF9300D0CDB7DEB72091CE
:100A8000EE043091EF042115310511F428EF34E024
:100A9000CE010196821B930B0F900F90DF91CF91A7
:100AA00008950E948D1281E090E008951092DB027B
:100AB0001092DA0289E891E09093D9028093D802EB
:100AC0001092DF021092DD020895EF92FF920F93D1
:100AD0001F93CF93DF931F92CDB7DEB7682F83EEBE
:100AE00092E069830E94C514698183EE92E00E94BE
:100AF000281583EE92E00E94AE13082F2DE0829F0E
:100B0000C0011124EAD49093E2028093E102892B80
:100B100031F468E271E083E993E00E94EE0DE12C8C
:100B2000F12C10E06091E1027091E2026E0D7F1DE8
:100B3000412F83EE92E00E94C0131F5F8DE0E80E0C
:100B4000F11C101778F30F90DF91CF911F910F9147
:100B5000FF90EF90089583EE92E00E94901582E05E
:100B6000DEC21F93CF93DF9310E083EE92E00E94EA
:100B7000AE131817A0F4C091E102D091E2028DE00B
:100B8000189FC00DD11D1124612F83EE92E00E94A9
:100B90007E1669877A878B879C871F5FE6CFDF91F8
:100BA000CF911F910895FF920F931F93CF93DF93DF
:100BB000EC0188E0F82E8E018881803128F46DE800
:100BC00071E083E993E0F0D7219640E150E0F8012D
:100BD000608183E993E00E94CF0EFA9461F7DF9180
:100BE000CF911F910F91FF9008951F93CF93DF93A3
:100BF00061E271E083E993E0F1D710E083EE92E0E7
:100C00000E94AE13181770F54AE050E0612F83E997
:100C100093E00E94CF0E6FE171E083E993E09FD7EC
:100C20008DE0189FE00111248091E1029091E20291
:100C30008C0F9D1FB8DF6DE171E083E993E08FD7E2
:100C4000E091E102F091E202EC0FFD1F4185528537
:100C50006385748522E030E083E993E00E94E50F2C
:100C60001F5FCCCFDF91CF911F910895CF93DF937A
:100C7000EC0183EE92E00E94AE1390E0C817D90712
:100C80008CF42DE02C9FC0012D9F900D1124E0913C
:100C9000E102F091E202E80FF91F61857285838518
:100CA000948503C060E070E0CB01DF91CF9108959F
:100CB00067E086EF92E00E946E1D66EF72E083EEC1
:100CC00092E00C949F13CF93C82FE0919303F0917F
:100CD00094030190F081E02D682F83E993E009955A
:100CE0008C2F992787FD9095CF910895CF93DF930F
:100CF00000D01F92CDB7DEB79E012F5F3F4FAE01F0
:100D00004E5F5F4FBE016D5F7F4F84E193E00E94B5
:100D10008E198091D6028823F1F18B818823E1F02E
:100D20008091D1029091D202019741F48FE891E035
:100D30009F938F930E945E210F900F908091D1021C
:100D40009091D202029741F489E991E09F938F93A9
:100D50000E945E210F900F908A818823E1F080919C
:100D6000D1029091D202019741F48CEA91E09F93D5
:100D70008F930E945E210F900F908091D1029091ED
:100D8000D202029741F48AEB91E09F938F930E94E5
:100D90005E210F900F908981811107C084E193E05B
:100DA0000E948119882309F47CC08091D10290911E
:100DB000D202019719F544E060E173E084E193E029
:100DC0000E9484198091D6028823C1F08091130378
:100DD0008F93809112038F93809111038F93809151
:100DE00010038F938FEC91E09F938F930E945E216D
:100DF0000F900F900F900F900F900F908091D10255
:100E00009091D202029709F04CC04CE064E073E08C
:100E100084E193E00E9484198091D602882319F11D
:100E200060910C0370910D0380910E0390910F035C
:100E30000E94811F7F936F93809107038F9380910E
:100E400006038F93809105038F93809104038F9302
:100E500089ED91E09F938F930E945E210FB6F894E5
:100E6000DEBF0FBECDBF24E040E153E061E084E18E
:100E700093E00E949A1A8091100390911103A0911F
:100E80001203B09113030196A11DB11D80931003AD
:100E900090931103A0931203B093130381E0809306
:100EA00024030F900F900F90DF91CF91089560E091
:100EB00070E083E696E00C941421F9DF84E193E07E
:100EC0000E943C1B83E090E00E947A2387FD06C0CD
:100ED000682F84E193E00E94331905C06CE483E03D
:100EE00090E00E94822384E193E00E94811A84E1D1
:100EF00093E00E94681A8091D1029091D2020197EA
:100F000071F46EE071E084E193E00E94AF1943E177
:100F100051E061E084E193E00E94C6192CC063E1D6
:100F200071E084E193E00E94AF194EE051E061E08E
:100F300084E193E00E94C61984E193E00E942D1A97
:100F400024E040E153E061E084E193E00E949A1ADA
:100F50008091100390911103A0911203B09113039B
:100F60000196A11DB11D8093100390931103A093CE
:100F70001203B093130362E370E080E090E00E94FC
:100F8000E81040E050E066E776E080E00E94F50F70
:100F900010920403109205031092060310920703A7
:100FA00080E090ECA9E7B4EC80930C0390930D03E0
:100FB000A0930E03B0930F031092240308950F9390
:100FC0001F93CF93DF938091D1029091D20201972A
:100FD00009F04AC00E94B910EB01182F092F609345
:100FE0000403D093050380930603909307031092A4
:100FF0000B0310920A03109209031092080380E079
:1010000090E034DE60930C0370930D0380930E0325
:1010100090930F032091D6022223D1F00E94811FCA
:10102000262F332727FD30953F936F930F931F9300
:10103000DF93CF9381EF91E09F938F930E945E2186
:101040008DB79EB708960FB6F8949EBF0FBE8DBFA2
:1010500020E04CE064E073E084E193E0DF91CF9125
:101060001F910F910C945319DF91CF911F910F9104
:101070000895E091D102F091D202EE0FFF1FE85ED9
:10108000FE4F81818F9380818F9388E092E09F93C0
:101090008F930E945E210F900F900F900F900895F4
:1010A000809113038F93809112038F93809111038A
:1010B0008F93809110038F9383E192E09F938F939E
:1010C0000E945E210F900F900F900F900F900F9045
:1010D00084E193E00C94AB1B4AE069E084E193E087
:1010E0000C94291960E08EE00E947B1161E08EE093
:1010F0000E94B41164E170E080E090E00E94E8108A
:101100008EE00E94E911892B19F081E090E002C085
:1011100082E090E09093D2028093D1020895CF9222
:10112000DF92EF92FF92CF93DF939BE0899FE001E4
:101130001124CB5DDC4FCD80DE80EF80F8840E94EF
:10114000B9106C0D7D1D8E1D9F1D69837A838B8365
:101150009C83888181608883DF91CF91FF90EF909D
:10116000DF90CF9008959BE0899FF0011124EB5D03
:10117000FC4F808181700895CF92DF92EF92FF92B1
:101180000F931F93F6D745E04093250300ED17E03A
:1011900020E030E000932A0310932B0320932C03CC
:1011A00030932D038B019C010053184F2F4F3F4F5D
:1011B00000932603109327032093280330932903D9
:1011C00021E734E030932F0320932E034093300324
:1011D00008EE13E020E030E000933503109336036F
:1011E00020933703309338036B017C0158EEC50E12
:1011F00053E0D51EE11CF11CC0923103D0923203A2
:10120000E0923303F0923403EEE6F4E0F0933A0315
:10121000E093390352E050933B035EEEC52E52E05B
:10122000D52EE12CF12CC0924003D0924103E092E4
:101230004203F092430310923C0310923D0310923C
:101240003E0310923F03EFE6F4E0F0934503E09392
:10125000440310924603E0E1CE2EE7E2DE2EE12CBD
:10126000F12CC0924B03D0924C03E0924D03F092CC
:101270004E031092470310924803109249031092B4
:101280004A0310925103F0ECCF2EF4EDDF2EEE2442
:10129000E394F12CC0925603D0925703E092580386
:1012A000F092590310925203109253031092540378
:1012B0001092550310925C03109267031092720310
:1012C00000937703109378032093790330937A0384
:1012D000DC01CB018854944FAF4FBF4F8093730311
:1012E00090937403A0937503B09376038FED97E00A
:1012F00090937C0380937B0310927D03409388033B
:1013000080E69AEEA0E0B0E080938D0390938E0388
:10131000A0938F03B09390031092890310928A03D5
:1013200010928B0310928C0380E794E090939203C9
:10133000809391031F910F91FF90EF90DF90CF90DA
:10134000089517D725E0209372036854744F8F4F88
:101350009F4F60937303709374038093750390930E
:1013600076030895109272030895AF92BF92CF92C0
:10137000DF92EF92FF920F931F93CF93DF9300D0F2
:1013800000D0CDB7DEB7F5D6A5E2AA2EA3E0BA2EDF
:10139000D5014C9140FF37C01196CD90DD90ED9076
:1013A000FC9014976C157D058E059F0560F141FF3B
:1013B00003C04E7F4C9319C0F5010581168127812A
:1013C000308542FF09C00C0D1D1D2E1D3F1D0183E0
:1013D00012832383348309C0060F171F281F391F68
:1013E000F5010183128323833483D5011996ED918E
:1013F000FC911A9769837A838B839C8309959C81DE
:101400008B817A816981BBE0AB0EB11CE3E9AE163A
:10141000E3E0BE0609F0BCCF0F900F900F900F9045
:10142000DF91CF911F910F91FF90EF90DF90CF90C0
:10143000BF90AF900895EF92FF920F931F93CF93B9
:10144000DF93CDB7DEB7C058D1090FB6F894DEBF31
:101450000FBECDBF40E850E0C557DF4F68817981AE
:10146000CB58D0408E010F5F1F4FC8010E94D8207B
:10147000C158DF4F1882CF57D040F80101900020AB
:10148000E9F77F01F80101900020E9F7B8016E1B30
:101490007F0B60587F4F9E0123573F4FA801C70124
:1014A0000E948E21C058DF4F1882C058D040B7012B
:1014B000C757DF4F88819981C958D04075D3C0582C
:1014C000DF4F0FB6F894DEBF0FBECDBFDF91CF91D7
:1014D0001F910F91FF90EF900895CF93DF9382308B
:1014E000910510F482E090E0E091F004F091F104B5
:1014F00020E030E0A0E0B0E0309739F14081518148
:1015000048175907B8F04817590771F48281938139
:10151000109729F013969C938E9312972CC090935A
:10152000F1048093F00427C02115310531F04217F2
:10153000530718F0A901DB0101C0EF019A01BD01B9
:10154000DF010280F381E02DD7CF21153105F9F0BD
:10155000281B390B2430310580F48A819B81611569
:10156000710521F0FB019383828304C09093F10401
:101570008093F004FE01329644C0FE01E20FF31F97
:101580008193919322503109398328833AC0209165
:10159000EE043091EF04232B41F42091200130918F
:1015A00021013093EF042093EE0420911E0130912D
:1015B0001F012115310541F42DB73EB7409122019D
:1015C00050912301241B350BE091EE04F091EF04C0
:1015D000E217F307A0F42E1B3F0B2817390778F00A
:1015E000AC014E5F5F4F2417350748F04E0F5F1F69
:1015F0005093EF044093EE048193919302C0E0E096
:10160000F0E0CF01DF91CF910895CF93DF93009762
:1016100009F487C0FC01329713821282C091F00452
:10162000D091F104209781F420813181280F391F56
:101630008091EE049091EF048217930779F5F0936F
:10164000EF04E093EE046DC0DE0120E030E0AE1761
:10165000BF0750F412964D915C9113979D0141156F
:10166000510509F1DA01F3CFB383A283408151819F
:10167000840F951F8A179B0771F48D919C91119788
:10168000840F951F02969183808312968D919C9171
:101690001397938382832115310529F4F093F10484
:1016A000E093F0043EC0D9011396FC93EE93129799
:1016B0004D915D91A40FB51FEA17FB0779F4808166
:1016C0009181840F951F0296D90111969C938E9358
:1016D0008281938113969C938E931297E0E0F0E0C1
:1016E0008A819B81009719F0FE01EC01F9CFCE01B0
:1016F000029628813981820F931F2091EE04309148
:10170000EF042817390769F4309729F41092F1048F
:101710001092F00402C013821282D093EF04C0939F
:10172000EE04DF91CF910895FC0124853585F90100
:10173000E05CFF4F80819181329620813181821B54
:10174000930B8F7399270895FC0184859585FC017F
:10175000E05CFF4F408151813296208131814217F8
:10176000530741F00190F081E02DE80FF91F8081CF
:1017700090E008958FEF9FEF0895FC018485958593
:10178000FC01E05CFF4F4081518132962081318124
:101790004217530779F0A081B181A80FB91F8C912E
:1017A000208131812F5F3F4F2F7333273183208377
:1017B00090E008958FEF9FEF0895FC0181A18823A9
:1017C00029F0A489B5898C9186FFFBCF11A20895D9
:1017D000CF93DF93FC0126853785D901A05CBF4FED
:1017E0008D919C91119701968F739927E901CE5B9A
:1017F000DF4F4881598184179507D9F30D90BC912B
:10180000A02DA20FB31F6C93A685B785A05CBF4F18
:1018100011969C938E93A689B7892C9181E090E0D4
:10182000078C02C0880F991F0A94E2F7282B2C938B
:1018300081E081A30488F589E02D80818064808324
:1018400081E090E0DF91CF9108951F920F920FB643
:101850000F9211242F933F934F938F939F93EF9366
:10186000FF938091C00082FD1CC04091C600809112
:10187000390490913A0401968F73992720913B0483
:1018800030913C048217930771F0E0913904F09194
:101890003A04E750FC4F408390933A048093390414
:1018A00002C08091C600FF91EF919F918F914F915F
:1018B0003F912F910F900FBE0F901F9018951F9280
:1018C0000F920FB60F9211242F933F938F939F93F4
:1018D000EF93FF932091F5033091F6038091F70386
:1018E0009091F8032817390731F48091C1008F7D5A
:1018F0008093C10014C0E091F703F091F803EB541A
:10190000FC4F20818091F7039091F80301968F732B
:1019100099279093F8038093F7032093C600FF91D3
:10192000EF919F918F913F912F910F900FBE0F904C
:101930001F901895CF92DF92EF92FF92CF93DF9393
:10194000EC016A017B01411581EE580761057105C3
:10195000F9F0EC89FD8981E090E008A002C0880FD1
:10196000991F0A94E2F7808360E079E08DE390E0CC
:10197000A70196010E94881E215031094109510991
:101980005695479537952795211580E1380798F0AA
:10199000EC89FD89108260E874E88EE190E0A7018F
:1019A00096010E94881E215031094109510956951E
:1019B000479537952795E889F9893083EA89FB8926
:1019C000208319A2EE89FF89408181E090E09C018B
:1019D0000C8C02C0220F331F0A94E2F7422B408383
:1019E000EE89FF8940819C010D8C02C0220F331FBC
:1019F0000A94E2F7422B4083EE89FF8940819C01E3
:101A00000E8C02C0220F331F0A94E2F7422B408350
:101A1000EE89FF8920810F8C02C0880F991F0A94DC
:101A2000E2F7809582238083DF91CF91FF90EF9042
:101A3000DF90CF900895109296031092950388EE50
:101A400093E0A0E0B0E08093970390939803A09375
:101A50009903B0939A0384E492E090939403809363
:101A6000930389EF93E09093A00380939F0385EB0A
:101A700093E09093A2038093A10385EC90E0909370
:101A8000A4038093A30384EC90E09093A603809337
:101A9000A50380EC90E09093A8038093A70381ECCA
:101AA00090E09093AA038093A90382EC90E0909336
:101AB000AC038093AB0386EC90E09093AE038093ED
:101AC000AD0384E08093AF0383E08093B00387E0AD
:101AD0008093B10385E08093B20381E08093B303E8
:101AE0000895CF92DF92EF92FF920F931F93CF93BF
:101AF000DF936C017A01EB01E60EF71E00E010E0C7
:101B0000CE15DF0561F06991D601ED91FC91019050
:101B1000F081E02DC6010995080F191FF1CFC8010A
:101B2000DF91CF911F910F91FF90EF90DF90CF90B9
:101B300008956115710581F0DB010D900020E9F732
:101B4000AD0141505109461B570BDC01ED91FC9151
:101B50000280F381E02D099480E090E00895EF92F7
:101B6000FF920F931F93CF93DF938C01FB01C0E093
:101B7000D0E064917F018FEFE81AF80A662361F0E4
:101B8000D801ED91FC910190F081E02DC8010995FB
:101B9000C80FD91FF701EDCFCE01DF91CF911F9173
:101BA0000F91FF90EF900895C4CFDC01ED91FC916F
:101BB0000190F081E02D09940F931F93CF93DF9351
:101BC000EC016DE0F2DF8C016AE0CE01EEDF800F08
:101BD000911FDF91CF911F910F9108950F931F9344
:101BE000CF93DF93EC01BBDF8C01CE01E5DF800FEB
:101BF000911FDF91CF911F910F9108950F931F9324
:101C0000CF93DF93EC0195DF8C01CE01D5DF800F00
:101C1000911FDF91CF911F910F9108958F929F9205
:101C2000AF92BF92CF92DF92EF92FF920F931F93EA
:101C3000CF93DF93CDB7DEB7A1970FB6F894DEBF91
:101C40000FBECDBF7C01C42EE52FCB01D22E19A231
:101C500021E02D1510F02AE0D22E8E010F5D1F4FCE
:101C60008D2C912CA12CB12C6C2D7E2FA5019401D3
:101C70000E94881E8C2DD29E8019112401501109BA
:101C80008A3014F4805D01C0895CF80180832115DD
:101C900031054105510521F0C22EE32FCA01E4CFE1
:101CA000B801C70146DFA1960FB6F894DEBF0FBE9C
:101CB000CDBFDF91CF911F910F91FF90EF90DF90FB
:101CC000CF90BF90AF909F908F900895CF92DF926A
:101CD000EF92FF920F931F93CF93DF93EC016A0172
:101CE0007B012115310579F4E881F9810190F081BA
:101CF000E02D642FDF91CF911F910F91FF90EF9016
:101D0000DF90CF9009942A303105D9F477FF18C0BD
:101D10006DE24BDF8C0144275527BA014C195D0950
:101D20006E097F092AE0CE0179DF800F911FDF91D4
:101D3000CF911F910F91FF90EF90DF90CF9008957A
:101D40002AE0B701A601CE01DF91CF911F910F913B
:101D5000FF90EF90DF90CF9061CF0F931F93CF93C1
:101D6000DF93EC019A01AB01662757FD6095762F52
:101D7000ADDF8C01CE0120DF800F911FDF91CF916D
:101D80001F910F9108952115310541F4DC01ED916A
:101D9000FC910190F081E02D642F09943FCF9A01CE
:101DA000462F50E060E070E0EECF0F931F93CF938B
:101DB000DF93EC019A01462F50E060E070E0E3DF32
:101DC0008C01CE01F9DE800F911FDF91CF911F9121
:101DD0000F9108959A01AB0160E070E0D4CF0F93AA
:101DE0001F93CF93DF93EC01CEDF8C01CE01E4DEB5
:101DF000800F911FDF91CF911F910F9108954F9206
:101E00005F926F927F928F929F92AF92BF92CF928A
:101E1000DF92EF92FF920F931F93CF93DF93EC012A
:101E20006A017B01B22E9A01AB01C701B6010E9483
:101E3000CB20882319F060E572E027C02601370126
:101E4000E89477F82FEF3FEF4FE75FE7C301B20168
:101E50000E94CB2081110DC02FEF3FEF4FE75FE7CE
:101E6000C301B2010E94151F18161CF464E572E04C
:101E70000CC02FEF3FEF4FE75FE4C701B6010E94B0
:101E800064201816A4F468E572E0CE01DF91CF91CA
:101E90001F910F91FF90EF90DF90CF90BF90AF9088
:101EA0009F908F907F906F905F904F9042CE2FEFDA
:101EB0003FEF4FE75FECC701B6010E94151F87FD9A
:101EC000E2CF20E030E0A901C701B6010E94151F52
:101ED00087FF09C06DE2CE0168DE8C01F7FAF0944D
:101EE000F7F8F09402C000E010E0A12C60E070E090
:101EF00080E09FE3AB1441F020E030E040E251E4A9
:101F00000E94191FA394F6CF9B01AC01C701B60133
:101F10000E94B11E6B017C010E94861F2B013C01B7
:101F20000E94B21F9B01AC01C701B6010E94B01E06
:101F30006B017C012AE0B301A201CE016FDE080F24
:101F4000191FBB2031F06CE572E0CE01F2DD080F05
:101F5000191F7B2C772039F120E030E040E251E47A
:101F6000C701B6010E9468206B017C010E94811F9D
:101F70004B01AA2497FCA094BA2C2AE030E0B501CA
:101F8000A401CE01A3DE080F191FC501B4010E94F0
:101F9000B41F9B01AC01C701B6010E94B01E6B01CA
:101FA0007C017A94D7CFC801DF91CF911F910F9117
:101FB000FF90EF90DF90CF90BF90AF909F908F9069
:101FC0007F906F905F904F9008950F931F93CF93E2
:101FD000DF93EC0114DF8C01CE01EEDD800F911F49
:101FE000DF91CF911F910F9108958230E8F4E82F8F
:101FF000F0E0EE0FFF1FE35CFB4F718360838130E5
:1020000041F0809169008C7F842B80936900E89A6D
:10201000089580916900440F551F440F551F837F19
:10202000842B80936900E99A08951F920F920FB64E
:102030000F9211242F933F934F935F936F937F934E
:102040008F939F93AF93BF93EF93FF9380913D0442
:1020500090913E04892B29F0E0913D04F0913E04DB
:102060000995FF91EF91BF91AF919F918F917F91D2
:102070006F915F914F913F912F910F900FBE0F90F5
:102080001F9018951F920F920FB60F9211242F9345
:102090003F934F935F936F937F938F939F93AF93F0
:1020A000BF93EF93FF9380913F0490914004892B5D
:1020B00029F0E0913F04F09140040995FF91EF91E0
:1020C000BF91AF919F918F917F916F915F914F9150
:1020D0003F912F910F900FBE0F901F9018951F9258
:1020E0000F920FB60F9211242F933F938F939F93CC
:1020F000AF93BF938091420490914304A091440414
:10210000B09145043091410423E0230F2D3720F492
:102110000196A11DB11D05C026E8230F0296A11D41
:10212000B11D209341048093420490934304A093F3
:102130004404B09345048091460490914704A091D3
:102140004804B09149040196A11DB11D8093460435
:1021500090934704A0934804B0934904BF91AF9172
:102160009F918F913F912F910F900FBE0F901F90D5
:1021700018952FB7F89460914204709143048091B0
:102180004404909145042FBF08953FB7F89480917F
:10219000460490914704A0914804B091490426B5A3
:1021A000A89B05C02F3F19F00196A11DB11D3FBF8F
:1021B0006627782F892F9A2F620F711D811D911D1F
:1021C00042E0660F771F881F991F4A95D1F708953F
:1021D000CF92DF92EF92FF92CF93DF936B017C015E
:1021E000D4DFEB01C114D104E104F10471F0CDDFBF
:1021F0006C1B7D0B683E7340A8F381E0C81AD108C0
:10220000E108F108C851DC4FEDCFDF91CF91FF908D
:10221000EF90DF90CF9008950197009739F0880FE5
:10222000991F880F991F02970197F1F708957894E5
:1022300084B5826084BD84B5816084BD85B58260CB
:1022400085BD85B5816085BDEEE6F0E08081816069
:102250008083E1E8F0E01082808182608083808169
:1022600081608083E0E8F0E0808181608083E1EB41
:10227000F0E0808184608083E0EBF0E08081816029
:102280008083EAE7F0E080818460808380818260DF
:1022900080838081816080838081806880831092C8
:1022A000C1000895833081F028F4813099F08230A4
:1022B000A1F008958630A9F08730B9F08430D1F4C8
:1022C000809180008F7D03C0809180008F77809304
:1022D0008000089584B58F7702C084B58F7D84BD5A
:1022E00008958091B0008F7703C08091B0008F7DFA
:1022F0008093B0000895CF93DF9390E0FC01EE5BF4
:10230000FE4F2491FC01EA5AFE4F8491882349F143
:1023100090E0880F991FFC01E258FE4FA591B491FF
:102320008C589E4FFC01C591D4919FB7611108C094
:10233000F8948C91209582238C93888182230AC003
:10234000623051F4F8948C91322F309583238C9322
:102350008881822B888304C0F8948C91822B8C9383
:102360009FBFDF91CF9108950F931F93CF93DF937A
:102370001F92CDB7DEB7282F30E0F901E25DFE4FA6
:102380008491F901EE5BFE4F1491F901EA5AFE4F78
:1023900004910023C1F0882319F0698383DF6981E8
:1023A000E02FF0E0EE0FFF1FEC58FE4FA591B49127
:1023B0009FB7F8948C91611103C01095812301C0DF
:1023C000812B8C939FBF0F90DF91CF911F910F9125
:1023D0000895CF93DF93282F30E0F901E25DFE4F9F
:1023E0008491F901EE5BFE4FD491F901EA5AFE4F58
:1023F000C491CC2389F0811155DFEC2FF0E0EE0F72
:10240000FF1FE659FE4FA591B4912C912D2381E039
:1024100090E021F480E002C080E090E0DF91CF9175
:102420000895CF93ECECF4E020E030E0C22F9191DE
:10243000992351F140E050E0692F70E0842FDB01D7
:10244000042E02C0B595A7950A94E2F7A0FF17C025
:10245000F901E453FB4F41E050E060E070E0082EEA
:1024600004C0440F551F661F771F0A94D2F740958A
:102470004923408398E0C99F800D11240BC04F5F12
:102480005F4F48305105D1F62F5F3F4F2032310565
:1024900069F680E0CF9108951F93CF93DF93162FB5
:1024A000C82FD0E091E4899FB0011124665B7B4F77
:1024B000FB01E05CFF4F9081191759F181110AC0AF
:1024C000892F0ED18091CB04181312C08FEF809307
:1024D000CB040EC080918A0418130AC081E4EAE498
:1024E000F4E0ABE8B4E001900D928A95E1F711C0F9
:1024F00081E48C9FB0018D9F700D1124665B7B4F32
:10250000FB01E05CFF4F1083812FDF91CF911F9182
:10251000FEC0DF91CF911F9108951F93CF93DF935A
:10252000EC01162F6E8180E0B7DFE091880481E036
:102530008E0FF0E0E65BFB4F10838F3318F480932F
:1025400088040EC06EDF809389048E83682F80E03C
:10255000A3DF10928904109288048C818F5F8C8392
:10256000DF91CF911F9108958EBD0DB407FEFDCF71
:10257000089561E08091EC04F7DE78940895F89472
:1025800060E08091EC04F0CE1F93CF93DF9300D0F6
:10259000CDB7DEB7182F4A836983F1DF6981862FB3
:1025A0008F71812BE1DF4A81842FDEDF0F900F9046
:1025B000DF91CF911F91DDCF1F93CF93DF93182F22
:1025C0001076C12FD0E02091ED0430E0C217D30780
:1025D00091F043E06FE180EAD7DF1093ED04AE01A4
:1025E00085E0559547958A95E1F76FE180E8DF91A1
:1025F000CF911F91C9CFDF91CF911F9108951F9364
:10260000CF93DF931F92CDB7DEB7182F6983D4DF46
:102610004981612F80E40F90DF91CF911F91B4CF5A
:102620001F93CF93DF931F92CDB7DEB7182F798317
:10263000E6DF7981672F81E0810F0F90DF91CF91E5
:102640001F91DDCFEF92FF920F931F93CF93DF93F4
:1026500000D0CDB7DEB78C0169837A8390DF8AE73B
:1026600083DF6981E62E7A81F72E0E0D1F1DE0169D
:10267000F10629F0F70181917F0176DFF8CF0F9005
:102680000F90DF91CF911F910F91FF90EF9071CF3D
:10269000EF92FF920F931F93CF93DF9300D0CDB7AC
:1026A000DEB78C0169837A836ADF8AE35DDF698143
:1026B000E62E7A81F72E0E0D1F1DE016F10639F079
:1026C00080E052DF8EB5F70181937F01F6CF0F9046
:1026D0000F90DF91CF911F910F91FF90EF9049CF15
:1026E000CF93DF93EB0120E4829FC0011124BC0152
:1026F0007E5E813C9D4040F482E092DFBE0180E43A
:1027000090E0DF91CF919ECFDF91CF910895CF934D
:10271000DF93EB0120E4829FC0011124BC017E5EA7
:10272000813C9D4040F480E07BDFBE0180E490E08E
:10273000DF91CF91ADCFDF91CF9108950895FC0146
:102740008EE993E1928B818B76836583148210826C
:1027500089E0818381E0828383830895FC01848101
:102760000895CF93DF93EB0167E0CE010E94231E13
:1027700091E02F81821390E0892FDF91CF9108950E
:10278000EF92FF920F931F93CF93DF93EC018B0196
:10279000E42E8D819E810E945C1DF12CB8018D81FB
:1027A0009E810E94901D882351F0FE1005C0B80143
:1027B000CE01D7DF811104C0F394EF1478F780E0E5
:1027C000DF91CF911F910F91FF90EF900895EF92BD
:1027D000FF920F931F93CF93DF9300D0CDB7DEB757
:1027E0007C018A01FC018581968169837A830E943C
:1027F000391C69817A81F701858196810E94331D98
:1028000040E06EEBF701858196810E94D61CF701AE
:10281000858196810E94171DF8018083F7018581CB
:1028200096810E94171DF8018183F70185819681A9
:102830000E94171DF8018283F701858196810E940D
:10284000171DF8018383F701858196810E94171D6A
:10285000F8018483F701858196810E94171DF80194
:102860008583F701858196810E94171DF801868373
:10287000F701858196810E94171DF8018783F70172
:10288000858196810E94171DF8018087F701858157
:1028900096810F900F90DF91CF911F910F91FF9034
:1028A000EF90E7C7CF93DF93EA0191DF68E0CE01B5
:1028B0000E94231E91E02885821390E0892FDF91EA
:1028C000CF910895EF92FF921F93CF93DF9300D0A3
:1028D000CDB7DEB77C01FC018581968169837A835F
:1028E000C8D769817A81F701858196810E94331D5D
:1028F00040E064EBF701858196810E94D61CF701C8
:10290000858196810E94AB1C182FF70185819681E5
:10291000B0D781E0111180E00F900F90DF91CF913F
:102920001F91FF90EF900895CF93DF93CDB7DEB75F
:1029300029970FB6F894DEBF0FBECDBFFB012081F3
:102940002031C9F0AE014F5F5F4FACDF882379F0D3
:102950008D818F3351F018F48F3169F008C08F35B5
:1029600041F08F3721F48CE007C08AE005C080E099
:1029700003C08BE001C089E029960FB6F894DEBF52
:102980000FBECDBFDF91CF910895EF92FF920F93CD
:102990001F93CF93DF93CDB7DEB761970FB6F8944F
:1029A000DEBF0FBECDBF8C01FC01858196810E94E8
:1029B0005C1DF8011482FF24F394BE01665F7F4F13
:1029C000F801858196810E94901D8823A1F1BE01A6
:1029D000665F7F4FC801C5DE882379F3F8018081E7
:1029E000811107C0BE01665F7F4FC8016BDF811197
:1029F0001FC0AE014F5F5F4FBE01665F7F4FC801D2
:102A0000E6DEF801E180BE01665F7F4FC8018CDF22
:102A10008E1518F4F801818105C0BE01665F7F4FF5
:102A2000C80182DFF801818384818F5F8483C5CFF1
:102A3000F801F082DECF61960FB6F894DEBF0FBECC
:102A4000CDBFDF91CF911F910F91FF90EF9008952F
:102A5000FC0162830895CF93DF93CDB7DEB729974A
:102A60000FB6F894DEBF0FBECDBFAE014F5F5F4F14
:102A7000AEDE81E09981911101C080E029960FB608
:102A8000F894DEBF0FBECDBFDF91CF910895CF92F6
:102A9000DF92EF92FF920F931F93CF93DF93EC019E
:102AA0008B01452BC9F08B818823B1F0888181117E
:102AB00013C05FDB6B017C0160E070E0CE01CBDF17
:102AC00081110AC056DB6C197D098E099F096E3E83
:102AD00072408105910580F3F80180818A3049F0C8
:102AE0008B3061F0893079F46EE570E080E090E041
:102AF0000EC06CEB70E080E090E009C067E771E029
:102B000080E090E004C06EEE72E080E090E0DF9143
:102B1000CF911F910F91FF90EF90DF90CF9058CB06
:102B2000CF93DF93EC018D819E81A3D68D819E8111
:102B3000C0D7488164E48D819E8138D78A818823FB
:102B400049F0BE016F5F7F4F40E050E0CE01DF9162
:102B5000CF919DCFDF91CF9108958F929F92AF92A9
:102B6000BF92CF92DF92EF92FF921F93CF93DF93AA
:102B7000FB01EA01698170E0762F66278881682B66
:102B800080818232B1F18832A1F1803109F078C0C0
:102B90001F8175956795882777FD8095982F0E94EE
:102BA000B41F20E030E040E85EE30E94B01E6B01FD
:102BB0007C01612F70E08E81681B7109882777FD89
:102BC0008095982F0E94B41F4B015C01612F70E02B
:102BD00080E090E00E94B21F9B01AC01C501B401EE
:102BE0000E94191F9B01AC01C701B6010E94B11ED2
:102BF00043C08C818F3381F198F48F3109F040C04C
:102C000093E0759567959A95E1F7882777FD80950C
:102C1000982F0E94B41F20E030E040E05FE32AC01C
:102C20008F3569F08F3761F5882777FD8095982F6C
:102C30000E94B41F20E030E040E85DE31BC07595C2
:102C40006795882777FD8095982F0E94B41F20E014
:102C500030E040E05EE30EC0759567957595679529
:102C6000882777FD8095982F0E94B41F20E030E0E0
:102C700040E85EE30E946820562F472F382F292F07
:102C8000652F742F832F922FDF91CF911F91FF908B
:102C9000EF90DF90CF90BF90AF909F908F9008956E
:102CA000EF92FF920F931F93CF93DF93CDB7DEB7D1
:102CB00029970FB6F894DEBF0FBECDBF8C017B0104
:102CC000AE014F5F5F4FEEDD882339F0AE014F5FFD
:102CD0005F4FB701C80141DF04C060E070E08EEFD4
:102CE00092EC29960FB6F894DEBF0FBECDBFDF91F0
:102CF000CF911F910F91FF90EF9008950F931F9325
:102D0000CF93DF93CDB7DEB728970FB6F894DEBF29
:102D10000FBECDBF8C01462FBE016F5F7F4F30DDF0
:102D2000BE016F5F7F4FC801BBDF28960FB6F894D6
:102D3000DEBF0FBECDBFDF91CF911F910F910895E0
:102D40008EBD0DB407FEFDCF8EB508950F931F9372
:102D5000CF93DF931F92CDB7DEB78C0181E06983FB
:102D600094D780E09BD784E09ED76981F801818168
:102D7000FBDA85E090E00F90DF91CF911F910F91EA
:102D80004BCAFC01808191818913EECA0895CF92CC
:102D9000DF92EF92FF920F931F93CF93DF9300D0B8
:102DA000CDB7DEB78C01E62EF22E60E049835A8360
:102DB000CDDF8E2D8F71C4DFE82E4981C42E5A815C
:102DC000D52EF40EFC1431F08FEFBADFF6018193AB
:102DD0006F01F8CF61E0C801B9DF8E2D0F900F9021
:102DE000DF91CF911F910F91FF90EF90DF90CF90E7
:102DF00008951F93CF93DF93EC01162F60E0A6DFB9
:102E0000812F8F719DDF8FEF9BDF182F61E0CE0147
:102E10009DDF812FDF91CF911F910895CF92DF9297
:102E2000EF92FF920F931F93CF93DF9300D0CDB714
:102E3000DEB78C01E62EF22E60E049835A8386DFEE
:102E40008E2D8F7180627CDFE82E4981C42E5A81DD
:102E5000D52EF40EFC1429F0F60181916F0170DF7C
:102E6000F9CF61E0C80172DF8E2D0F900F90DF91D6
:102E7000CF911F910F91FF90EF90DF90CF90089529
:102E8000EF92FF921F93CF93DF931F92CDB7DEB7E0
:102E90007C01162F60E0498359DF812F8F7180629A
:102EA0004FDF182F4981842F4BDF61E0C7014EDFD0
:102EB000812F0F90DF91CF911F91FF90EF90089598
:102EC000AF92BF92CF92DF92EF92FF920F931F9338
:102ED000CF93DF9300D0CDB7DEB78C01D62EFC01A7
:102EE000E380F42EE41608F4FE2CF80184818111AD
:102EF00002C0EF1801C0E12C60E0C80129837A8389
:102F000025DF2981822F1CDFC82EAD2C7A81B72EB8
:102F1000FD0CFA1429F0F50181915F0111DFF9CF61
:102F2000EE2021F080E00CDFEA94FACF61E0C801E6
:102F30000DDF8C2D0F900F90DF91CF911F910F918E
:102F4000FF90EF90DF90CF90BF90AF900895AF9239
:102F5000BF92CF92DF92EF92FF920F931F93CF9386
:102F6000DF931F92CDB7DEB78C01D62EFC01E38034
:102F7000F42EE41608F4FE2CF8018481811102C0BD
:102F8000EF1801C0E12C60E0C8017983DFDE81E643
:102F9000D7DEC82EAD2C7981B72EFD0CFA1431F096
:102FA0008FEFCEDEF50181935F01F8CFEE2021F0A7
:102FB0008FEFC6DEEA94FACF61E0C801C7DE8C2D40
:102FC0000F90DF91CF911F910F91FF90EF90DF90C5
:102FD000CF90BF90AF9008951F93CF93DF93EC01F4
:102FE000162F60E0B3DE812FABDE182F61E0CE013B
:102FF000ADDE812FDF91CF911F91089562EEECCF6E
:1030000061EEEACF6FEFE8CF862F90E0262F217098
:103010001F922F9395958795877099279F938F93EC
:1030200064FB882780F91F928F9365FB882780F9BE
:103030001F928F9366FB882780F91F928F931F92B0
:103040006F938FE792E09F938F930E946F218DB7CC
:103050009EB70E960FB6F8949EBF0FBE8DBF089513
:10306000AF92BF92DF92EF92FF920F931F93CF9395
:10307000DF9300D0CDB7DEB78C01F42EE22ECB016A
:1030800069837A830E94CF2069817A81089710F43E
:1030900089E001C087E01F928F937F936F93EDE4E7
:1030A000F2E0FF93EF930E946F21EF0C0F900F90CF
:1030B0000F900F900F900F9035E4A32E32E0B32EB7
:1030C000FE1491F0DD24D394DF0C6F2DC80191DE46
:1030D0001F928F93BF92AF920E946F210F900F901B
:1030E0000F900F90FD2CECCF82E492E09F938F9392
:1030F0000E946F210F900F900F900F90DF91CF9152
:103100001F910F91FF90EF90DF90BF90AF900895C7
:103110002F923F924F925F926F927F928F929F92E7
:10312000AF92BF92CF92DF92EF92FF920F931F93D5
:10313000CF93DF9300D01F92CDB7DEB77C01242E52
:10314000322E4DB65EB6CB016A837B830E94CF20C0
:103150006A817B81089710F489E001C087E01F92A3
:103160008F937F936F938AE392E09F938F930E9454
:103170006F21320C0F900F900F900F900F900F90C7
:1031800046E3C42E42E0D42E51E3A52E52E0B52EE4
:103190002314E1F16DB67EB6F7012285822E912CC3
:1031A0008DB79EB7881999090FB6F8949EBF0FBEC8
:1031B0008DBF0DB71EB70F5F1F4F91E0920D998322
:1031C000A801622DC701E3DDDF92CF920E946F213B
:1031D000800E911E0F900F90F1E08F1A91088016CB
:1031E000910668F0F40180811F928F93BF92AF9295
:1031F0000E946F210F900F900F900F90EDCF0FB6A0
:10320000F8947EBE0FBE6DBE2980C2CF8EE292E0E2
:103210009F938F930E946F210F900F900FB6F89499
:103220005EBE0FBE4DBE0F900F900F90DF91CF91FD
:103230001F910F91FF90EF90DF90CF90BF90AF90D4
:103240009F908F907F906F905F904F903F902F90C6
:103250000895FC0160834183128280E2838314829B
:1032600085E082870895462F603808F04FE765E0D3
:1032700007CECF93DF93EC0160E0BBDD81FD10C092
:1032800060E0CE01B6DD482F426060E0CE01F8DD9F
:1032900065E070E080E090E0DF91CF910C94E81061
:1032A000DF91CF910895CF93DF93EC01222311F0AA
:1032B00020EB01C020EACE0103DE61E0CE0161DD3A
:1032C00060E0CE01DF91CF915CCD0F931F93CF9340
:1032D000DF938C01EB0167E18CDD80FD0AC0209754
:1032E00051F0C8018FDE90E09595879587708883AF
:1032F00002C080E001C081E0DF91CF911F910F916A
:10330000089560E070E0E1CFCF93DF93EC011FDE22
:1033100040E767E0CE01DF91CF91B2CDEF92FF920F
:103320000F931F93CF93DF93EB018A01790140E75D
:1033300067E0A6DD85FB992790F9988384FB9927A0
:1033400090F9F801908386FB882780F9F701808344
:10335000DF91CF911F910F91FF90EF9008950F9300
:103360001F93CF93DF93EC018B012A85AB016AE0B9
:1033700055DD2A85A80160E1CE0150DD4B8161E178
:10338000CE01DF91CF911F910F917ACDFF920F93D4
:103390001F93CF93DF93EC01F62E8A01611106C0D3
:1033A0004A8550E0B801059612D707C086E0861717
:1033B00008F433C081E0681307C0EF2DF0E0E55357
:1033C000FD4F64912A8506C0E62FF0E0E553FD4FDE
:1033D000649121E0A801CE0121DD0F2D10E0F8015C
:1033E000EB53FD4F64914B81CE014ADD62E0CE018B
:1033F00000DDF801EF52FD4F049121E030E001C003
:10340000220F0A95EAF7822B482F62E0CE01DF9166
:10341000CF911F910F91FF9033CDDF91CF911F91ED
:103420000F91FF9008951F93CF93DF93EC01162F18
:1034300062E0DFDCE12FF0E0EF52FD4FE49141E08C
:1034400050E001C0440FEA95EAF74095482362E056
:10345000CE01DF91CF911F9113CDCF93DF93EC017C
:1034600008DF60E0CE01C5DC482F416060E0CE019E
:1034700007DD40E767E0CE0103DD61E0CE0181DCDE
:103480008D81882341F02A85AE014B5F5F4F6AE052
:10349000CE01C4DC03C060E0CE01C5DF6DE1CE012A
:1034A000A8DC81FF04C0CE01DF91CF91A9CDDF91CF
:1034B000CF910895CF93DF93EC0160E047DC80E586
:1034C0003FDC83E73DDC61E0CE01DF91CF913ECC74
:1034D000CF93DF93EC01EEDF6DE1CE018ADC482F64
:1034E00044606DE1CE01CCDC6CE1CE0182DC482F82
:1034F0004F636CE1CE01C4DC81E08C83DF91CF911E
:103500000895CF93DF93EC01D5DF6DE1CE0171DC3F
:10351000482F46606DE1CE01B3DC6CE1CE0169DC81
:10352000482F43606CE1CE01ABDC81E08C83DF91FE
:10353000CF910895CF92DF92FF920F931F93CF9375
:10354000DF9300D01F92CDB7DEB78C01F62E21326B
:1035500008F020E260E0C80129834A835B83F6DB40
:103560008F2D8770886AECDB4A81C42E5B81D52E53
:103570002981F22EF40EFC1429F0F60181916F01DD
:10358000DFDBF9CF61E0C8010F900F900F90DF9162
:10359000CF911F910F91FF90DF90CF90D7CB66E036
:1035A00028DC867086950895EF92FF920F931F9303
:1035B000CF93DF931F92CDB7DEB77C018B0166E01E
:1035C00018DC582F577D0230110531F450620BE999
:1035D00010E020E030E00DC00130110529F005E5D4
:1035E00010E020E030E005C0586001E410E020E089
:1035F00030E0F7010387148725873687452F66E07B
:10360000C70159833DDC66E0C701F3DB91E05981D6
:10361000851390E0892F0F90DF91CF911F910F912B
:10362000FF90EF90089566E0E4DB282F28722032A7
:1036300031F081E090E0283021F080E0089582E0D0
:1036400090E008950F931F93CF93DF93EC018B01CC
:1036500060E0CFDB482F437F0115110531F00130C9
:10366000110511F4486001C04C6060E0CE01DF91AB
:10367000CF911F910F9104CCCF93DF93EC01888100
:103680009981891719F061E00E947B1189819881E5
:10369000981719F061E00E947B11E1D260E0CE0141
:1036A00070DB61E0CE0152DB65E070E080E090E02D
:1036B0000E94E8104FE564E0CE01E2DB62E070E0DA
:1036C000CE0172DF882311F081E08A8360E070E030
:1036D000CE016ADF62E070E0CE01B4DFCE01EADE47
:1036E00040E06DE1CE01CCDB40E06CE1CE01C8DB17
:1036F00040E767E0CE01C4DB6CE4CE01B4DDCE016F
:103700007DDCCE017DDCCE01B4DD60E0CE0171DB7D
:10371000482F4E7F60E0CE01DF91CF91B1CB1F9358
:10372000CF93DF93EC0160E064DB182F61E0CE0102
:1037300060DB13FD02C0882329F012FF06C082E07F
:1037400090E005C080E090E002C081E090E0DF9171
:10375000CF911F910895CF93DF93EC0153DC682F35
:10376000CE0152DC22E04AE061E272E0CE01D0DC20
:1037700024E04CE064E172E0CE0172DC21E040E143
:103780006CE072E0CE01C4DC26E041E161E072E071
:10379000CE0166DC21E041E06BEF71E0CE0160DC40
:1037A00021E042E061EF71E0CE015ADC21E045E02A
:1037B0006BEE71E0CE0154DC21E046E062EE71E098
:1037C000CE014EDC21E040E06BED71E0CE0148DC43
:1037D00022E04CE16DEC71E0CE0142DCCE0123DF52
:1037E000880F991F8F5C9C4FFC01859194919F934A
:1037F0008F938BEB91E09F938F9371D5EA81F0E0EB
:10380000EE0FFF1FE65EFC4F859194919F938F937F
:103810008CEA91E09F938F9362D5CE0180DF880F71
:10382000991F84509D4FFC01859194919F938F9394
:1038300089E991E09F938F9352D5CE01B0DEE82FB6
:10384000F0E0EE0FFF1FE952FD4F859194919F9399
:103850008F9388E891E09F938F9341D58DB79EB762
:1038600040960FB6F8949EBF0FBE8DBFDF91CF91EB
:103870000895FF920F931F93CF93DF93FC01008174
:10388000C181D281F8948981F02EF0948F218983AF
:1038900078941DE7115029F182E090E00E940C110C
:1038A00088818023B9F3F8948A818F218A83898162
:1038B000802B8983789480EE91E00E940C11F8941B
:1038C00089818F21898386E490E00E940C11888190
:1038D000802311E009F010E078948AE991E00E94D9
:1038E0000C11812FDF91CF911F910F91FF900895BF
:1038F0001F93CF93DF93FC011081C181D281912F5F
:10390000909560FF12C0F8948A8189238A83898107
:10391000812B89838AE090E00E940C118A81812B9F
:103920008A83789487E390E011C0F8948A81892390
:103930008A838981812B898381E490E00E940C1124
:103940008A81812B8A83789485E090E0DF91CF9102
:103950001F910C940C110F931F93CF93DF93FC01D5
:103960001081C181D281F8948981812B89838A81D8
:10397000012F009580238A8383E090E00E940C1140
:103980008981802389838AE090E00E940C11C8819C
:10399000789485E390E00E940C111C2381E009F4E7
:1039A00080E0DF91CF911F910F910895CF92DF9228
:1039B000EF92FF920F931F93CF93DF931F92CDB798
:1039C000DEB76C01E62E08E010E0FF24F39461E01E
:1039D0009F2D9E2109F460E0C601498389DFFF0C19
:1039E0000150110949810115110589F7411115C0CF
:1039F000F894D6011196ED91FC91129791818C91DA
:103A00008095892381831196ED91FC911297928183
:103A10008C9180958923828378940F90DF91CF9148
:103A20001F910F91FF90EF90DF90CF900895EF924C
:103A3000FF920F931F93CF93DF938C01C8E0D0E0E8
:103A4000F12CEE24E394C80186DF8111FE28EE0CF0
:103A500021972097C1F78F2DDF91CF911F910F9163
:103A6000FF90EF900895CF92DF92FF920F931F93F4
:103A7000CF93DF931F92CDB7DEB78C01F62E40E0D7
:103A800065E5798393DFCF2C7981D72E88E0F82EF6
:103A9000F60161916F0140E0C80188DFFA94C1F737
:103AA0000F90DF91CF911F910F91FF90DF90CF90FA
:103AB000089540E06CEC7ACFFC01138615861486DD
:103AC00027E030E0DF01A20FB31F13961C922115EF
:103AD000310519F021503109F5CF08951F93CF9387
:103AE000DF93EC01162F60E0812F0E947B11612F84
:103AF00070E0FB01EE5BFE4FE491E883FB01EA5AC4
:103B0000FE4FE491F0E0EE0FFF1FE659FE4F859166
:103B100094919A838983CE01DF91CF911F91CCCF6D
:103B2000AF92BF92CF92DF92EF92FF920F931F93CB
:103B3000CF93DF931F92CDB7DEB75C01E62ED72E71
:103B4000FC018585811158C0C50193DE811105C036
:103B5000F5011386158614866AC040E060EFC50142
:103B600025DF01E0F12CC12C11E0C501F4DE682F46
:103B7000C5016983F0DE6981613019F48130B9F4DF
:103B800032C02F2D30E068131BC0F5018385181754
:103B900030F4E20FF31F8381802349F402C0181729
:103BA00031F060E0193058F4F501148708C0F501D0
:103BB000EF0DF11D8381802B838361E009C0C12E4D
:103BC000F501E20FF31F8381902F90958923838362
:103BD000C5018EDE1F5F000F11F4F39401E0F7E0E2
:103BE000FF1508F0C2CF113438F0F501C386C110BB
:103BF00018C081E0858715C0F501138615861486E7
:103C000080E0EE2DFD2D20E030E0D501A20FB31FA6
:103C100013969C9191932F5F3F4F28303105A9F760
:103C200006C0F5018381882339F381E0EACF0F9044
:103C3000DF91CF911F910F91FF90EF90DF90CF9088
:103C4000BF90AF900895DC0180E0615038F0ED91B5
:103C5000E827F0E0E55BFC4F8491F7CF089561E041
:103C60008AE00E94B41161E08AE00E947B118CB569
:103C700080618CBD8CB580648CBD61E08DE00E945C
:103C80007B1161E08BE00C947B11811103C08CB53A
:103C9000806202C08CB58F7D8CBD08959CB5937FEA
:103CA000982B9CBD08952CB5982F93702C7F922B48
:103CB0009CBD9DB582FB882780F99E7F982B9DBD7A
:103CC0000895AA1BBB1B51E107C0AA1FBB1FA61763
:103CD000B70710F0A61BB70B881F991F5A95A9F7B5
:103CE00080959095BC01CD01089597FB072E16F4A1
:103CF000009406D077FD08D0E4DF07FC05D03EF441
:103D0000909581959F4F0895709561957F4F089587
:103D1000A1E21A2EAA1BBB1BFD010DC0AA1FBB1FCF
:103D2000EE1FFF1FA217B307E407F50720F0A21B41
:103D3000B30BE40BF50B661F771F881F991F1A94AE
:103D400069F760957095809590959B01AC01BD01D8
:103D5000CF010895EE0FFF1F0590F491E02D099417
:103D60005058BB27AA270ED075C166D130F06BD151
:103D700020F031F49F3F11F41EF45BC10EF4E09586
:103D8000E7FB51C1E92F77D180F3BA1762077307B8
:103D90008407950718F071F49EF58FC10EF4E09535
:103DA0000B2EBA2FA02D0B01B90190010C01CA01F5
:103DB000A0011124FF27591B99F0593F50F4503EA0
:103DC00068F11A16F040A22F232F342F4427585F92
:103DD000F3CF469537952795A795F0405395C9F7AA
:103DE0007EF41F16BA0B620B730B840BBAF0915062
:103DF000A1F0FF0FBB1F661F771F881FC2F70EC001
:103E0000BA0F621F731F841F48F4879577956795D3
:103E1000B795F7959E3F08F0B3CF9395880F08F0BC
:103E20009927EE0F979587950895D9D008F481E0EA
:103E300008950CD00FC107D140F0FED030F021F42E
:103E40005F3F19F0F0C0511139C1F3C014D198F39C
:103E50009923C9F35523B1F3951B550BBB27AA270B
:103E600062177307840738F09F5F5F4F220F331F7D
:103E7000441FAA1FA9F333D00E2E3AF0E0E830D049
:103E800091505040E695001CCAF729D0FE2F27D04C
:103E9000660F771F881FBB1F261737074807AB071A
:103EA000B0E809F0BB0B802DBF01FF2793585F4F8F
:103EB0002AF09E3F510568F0B6C000C15F3FECF3A9
:103EC000983EDCF3869577956795B795F7959F5F54
:103ED000C9F7880F911D9695879597F90895E1E0A8
:103EE000660F771F881FBB1F621773078407BA0707
:103EF00020F0621B730B840BBA0BEE1F88F7E09562
:103F0000089504D06894B111D9C00895BCD088F048
:103F10009F5790F0B92F9927B751A0F0D1F0660FB5
:103F2000771F881F991F1AF0BA95C9F712C0B130D0
:103F300081F0C3D0B1E00895C0C0672F782F8827E3
:103F4000B85F39F0B93FCCF3869577956795B3950F
:103F5000D9F73EF490958095709561957F4F8F4F7E
:103F60009F4F0895E89409C097FB3EF49095809583
:103F7000709561957F4F8F4F9F4F9923A9F0F92F2F
:103F800096E9BB279395F695879577956795B795AD
:103F9000F111F8CFFAF4BB0F11F460FF1BC06F5F93
:103FA0007F4F8F4F9F4F16C0882311F096E911C0A5
:103FB000772321F09EE8872F762F05C0662371F0C6
:103FC00096E8862F70E060E02AF09A95660F771FDA
:103FD000881FDAF7880F9695879597F90895990FB6
:103FE0000008550FAA0BE0E8FEEF16161706E807C3
:103FF000F907C0F012161306E407F50798F0621BE4
:10400000730B840B950B39F40A2661F0232B242BB8
:10401000252B21F408950A2609F4A140A6958FEFD7
:10402000811D811D089597F99F6780E870E060E029
:1040300008959FEF80EC089500240A941616170641
:1040400018060906089500240A9412161306140689
:1040500005060895092E0394000C11F4882352F0EC
:10406000BB0F40F4BF2B11F460FF04C06F5F7F4FA4
:104070008F4F9F4F089557FD9058440F551F59F08B
:104080005F3F71F04795880F97FB991F61F09F3F45
:1040900079F087950895121613061406551FF2CF6E
:1040A0004695F1DF08C0161617061806991FF1CFBE
:1040B00086957105610508940895E894BB276627E5
:1040C0007727CB0197F908958ADF08F48FEF0895D9
:1040D0000BD0C0CFB1DF28F0B6DF18F0952309F080
:1040E000A2CFA7CF1124EACFC6DFA0F3959FD1F3CB
:1040F000950F50E0551F629FF001729FBB27F00D96
:10410000B11D639FAA27F00DB11DAA1F649F6627EA
:10411000B00DA11D661F829F2227B00DA11D621F39
:10412000739FB00DA11D621F839FA00D611D221FF3
:10413000749F3327A00D611D231F849F600D211DD7
:10414000822F762F6A2F11249F5750408AF0E1F07A
:1041500088234AF0EE0FFF1FBB1F661F771F881FC3
:1041600091505040A9F79E3F510570F05CCFA6CF0B
:104170005F3FECF3983EDCF3869577956795B795AE
:10418000F795E7959F5FC1F7FE2B880F911D9695D8
:10419000879597F9089523DF880B990B0895FC0103
:1041A00005900020E9F7809590958E0F9F1F089548
:1041B000FB01DC014150504048F005900D92002079
:1041C000C9F701C01D9241505040E0F70895FB012E
:1041D000DC0102C001900D9241505040D8F7089583
:1041E000DC0101C06D9341505040E0F70895FB01A0
:1041F000DC014150504030F08D910190801919F44C
:104200000020B9F7881B990B0895FB01DC01415090
:10421000504048F001900D920020C9F701C01D9256
:1042200041505040E0F708950F931F93CF93DF93D1
:10423000EC018B01009731F46115710519F480E0F0
:1042400090E037C06EE070E081E090E069D2FC0160
:104250000097A9F380E883830115110571F0138796
:10426000028781E883838091F2049091F304892B83
:1042700021F4F093F304E093F2042097C9F0D1877E
:10428000C0878381826083838091F4049091F504D8
:10429000892B71F4F093F504E093F4048091F60413
:1042A0009091F704892B21F4F093F704E093F6043E
:1042B000CF01DF91CF911F910F910895A0E0B0E061
:1042C000E3E6F1E2FEC2FE01359661917191AF0124
:1042D0008091F4049091F5044AD0E2E00EC3A0E08E
:1042E000B0E0E4E7F1E2EBC2FE0137966191719133
:1042F00004EF14E0D8018D919C91DC0113962C9170
:104300001397286013962C93AF0131D0D801ED910B
:10431000FC912381277F2383E4E0EDC2AEE0B0E08F
:10432000E3E9F1E2CCC28C01CA0146E04C831A8376
:10433000098377FF02C060E070E8615071097E83F5
:104340006D83A901BC01CE01019611D04D815E8122
:1043500057FD0AC02F813885421753070CF49A0184
:10436000F801E20FF31F10822E96E4E0C4C2ACE025
:10437000B0E0ECEBF1E295C27C016B018A01FC013B
:1043800017821682838181FFB0C1CE0101964C0154
:10439000F7019381F60193FD859193FF81916F0160
:1043A000882309F49EC1853239F493FD859193FFEA
:1043B00081916F01853221F4B70190E0E2D1E8CF1D
:1043C000512C312C20E02032A0F48B3269F030F4F3
:1043D000803259F0833269F420612CC08D3239F07B
:1043E000803339F4216026C02260246023C0286015
:1043F00021C027FD27C030ED380F3A3078F426FF72
:1044000006C0FAE05F9E300D1124532E13C08AE0DF
:10441000389E300D1124332E20620CC08E3221F4D0
:1044200026FD5FC1206406C08C3611F4206802C0EE
:10443000883641F4F60193FD859193FF81916F01D8
:104440008111C1CF982F9F7D9554933028F40C5F34
:104450001F4FFFE3F9830DC0833631F0833771F0CE
:10446000833509F057C021C0F801808189830E5F30
:104470001F4F44244394512C540114C03801F2E0DE
:104480006F0E711CF801A080B18026FF03C0652D5E
:1044900070E002C06FEF7FEFC5012C8767D12C0160
:1044A00083012C852F77222E16C03801F2E06F0E83
:1044B000711CF801A080B18026FF03C0652D70E05B
:1044C00002C06FEF7FEFC5012C8745D12C012C85F1
:1044D0002068222E830123FC19C0832D90E048160A
:1044E0005906A0F4B70180E290E04BD13A94F5CFA1
:1044F000F50127FC859127FE81915F01B70190E0CE
:1045000040D131103A94F1E04F1A5108411451044E
:1045100079F7DEC0843611F0893631F5F80127FFCE
:1045200007C060817181828193810C5F1F4F08C039
:1045300060817181882777FD8095982F0E5F1F4FCE
:104540002F76B22E97FF09C0909580957095619552
:104550007F4F8F4F9F4F2068B22E2AE030E0A4019A
:1045600042D1A82EA81843C0853729F42F7EB22E39
:104570002AE030E025C0F22FF97FBF2E8F36C1F040
:1045800018F4883579F0ADC0803719F0883721F0FC
:10459000A8C02F2F2061B22EB4FE0DC08B2D8460D9
:1045A000B82E09C024FF0AC09F2F9660B92E06C0FE
:1045B00028E030E005C020E130E002C020E132E038
:1045C000F801B7FE07C060817181828193810C5F21
:1045D0001F4F06C06081718180E090E00E5F1F4F29
:1045E000A40101D1A82EA818FB2DFF77BF2EB6FE7F
:1045F0000BC02B2D2E7FA51450F4B4FE0AC0B2FCC4
:1046000008C02B2D2E7E05C07A2C2B2D03C07A2CB2
:1046100001C0752C24FF0DC0FE01EA0DF11D808143
:10462000803311F4297E09C022FF06C0739473946D
:1046300004C0822F867809F0739423FD12C020FFF6
:1046400006C05A2C731418F4530C5718732C731497
:1046500060F4B70180E290E02C8793D073942C85AE
:10466000F6CF731410F4371801C0312C24FF11C099
:10467000B70180E390E02C8784D02C8522FF16C000
:1046800021FF03C088E590E002C088E790E0B70111
:104690000CC0822F867851F021FD02C080E201C05B
:1046A0008BE227FD8DE2B70190E06BD0A51430F4CA
:1046B000B70180E390E065D05A94F8CFAA94F40152
:1046C000EA0DF11D8081B70190E05BD0A110F6CF1B
:1046D000332009F45DCEB70180E290E052D03A94E5
:1046E000F7CFF7018681978102C08FEF9FEF2C965D
:1046F000E2E1F3C0F999FECF92BD81BDF89A992706
:1047000080B50895262FF999FECF1FBA92BD81BDBD
:1047100020BD0FB6F894FA9AF99A0FBE0196089543
:104720000F931F93CF93DF93869F8001879F100D78
:10473000969F100D1124C8010E946D0AEC0100978C
:1047400021F0A80160E070E04BDDCE01DF91CF9158
:104750001F910F910895FC01059061507040011068
:10476000D8F7809590958E0F9F1F0895FC0161509A
:10477000704001900110D8F7809590958E0F9F1F83
:1047800008950F931F93CF93DF93182F092FEB01F9
:104790008B8181FD03C08FEF9FEF20C082FF10C08F
:1047A0004E815F812C813D81421753077CF4E88163
:1047B000F9819F012F5F3F4F39832883108306C003
:1047C000E885F985812F0995892B29F72E813F816D
:1047D0002F5F3F4F3F832E83812F902FDF91CF910B
:1047E0001F910F910895FA01AA27283051F1203125
:1047F00081F1E8946F936E7F6E5F7F4F8F4F9F4F75
:10480000AF4FB1E03ED0B4E03CD0670F781F891FB6
:104810009A1FA11D680F791F8A1F911DA11D6A0F84
:10482000711D811D911DA11D20D009F468943F9137
:104830002AE0269F11243019305D3193DEF6CF0136
:104840000895462F4770405D4193B3E00FD0C9F7FC
:10485000F6CF462F4F70405D4A3318F0495D31FD69
:104860004052419302D0A9F7EACFB4E0A6959795BC
:10487000879577956795BA95C9F700976105710592
:1048800008959B01AC010A2E0694579547953795DC
:104890002795BA95C9F7620F731F841F951FA01D36
:1048A00008952F923F924F925F926F927F928F92D4
:1048B0009F92AF92BF92CF92DF92EF92FF920F93AF
:1048C0001F93CF93DF93CDB7DEB7CA1BDB0B0FB6B9
:1048D000F894DEBF0FBECDBF09942A883988488876
:1048E0005F846E847D848C849B84AA84B984C8840C
:1048F000DF80EE80FD800C811B81AA81B981CE0F03
:10490000D11D0FB6F894DEBF0FBECDBFED010895E7
:04491000F894FFCF49
:104914003135303230320030303532343800CCCE9C
:10492400CCCECCCECCCECCCE280230023702000086
:10493400F804800068656C70003F00726562740062
:1049440043757272656E742076616C756520666F4E
:10495400722061646472657373200020697320009F
:1049640053657474696E6720746F200044656275C2
:1049740067206D6F64652000696E666F0064656210
:10498400670063616C6C0072756E0073746F700005
:1049940070726F6D00000000005105710D300053FE
:1049A400656E643A4F4B0A0D0041636B2050617988
:1049B4006C6F61643A53656E740A0D0053656E64DE
:1049C4003A4661696C65640A0D0041636B2050616D
:1049D400796C6F61643A4661696C65640A0D0041E3
:1049E400636B3A256C750A0D00476F74207061790A
:1049F4006C6F616420256C752C207E2025640A0D63
:104A0400004E6F772073656E64696E6720256C7540
:104A14002C207E25640A0D00526F6C653A202573A4
:104A24000A0D0052462073696E636520626F6F74CD
:104A34003A20256C750A0D00696E76616C69640014
:104A440053656E64657200526563656976657200CC
:104A540000000000E80B710D940BBD0BA40BDD0BE3
:0E4A64006E616E00696E66006F7666002E0051
:00000001FF
