:1000000029C200000C9497100C94C4104AC200003E
:1000100048C2000046C2000088C4000042C200007E
:1000200040C200003EC200003CC200003AC20000D4
:1000300038C2000036C2000034C2000032C20000E4
:100040000C94F1102EC200000C94A70C0C94E10C3F
:1000500028C2000026C2000024C2000022C2000004
:1000600020C200001EC20000436F6D6D616E64739C
:1000700020617661696C61626C653A003D3E0055B5
:100080006E6B6E6F776E20283F20666F72206865FA
:100090006C70290007000D0A0064697361626C6569
:1000A0006400656E61626C6564002020000D0A00CA
:1000B000440045002053256420005363686564753F
:1000C0006C6572733A0D0A004D656D6F72793A2056
:1000D0000A0D454550524F4D207665722025643BF0
:1000E0002052414D2025640A0D0020204C6F6F7076
:1000F00020752000446576696365206D696C6C69C4
:100100007320000A535953494E464F3A0A0D42751F
:10011000696C643A2025732F25730A0D0020002096
:100120000031576972653A005741524E2100000074
:1001300000070002010000030406000000000000A8
:100140000000010204081020408001020408102071
:10015000010204081020040404040404040402023C
:100160000202020203030303030300000000230052
:100170002600290000000000250028002B000000B8
:100180000000240027002A00504120506F7765723C
:1001900009203D2025530D0A00435243204C656E33
:1001A00067746809203D2025530D0A004D6F646572
:1001B0006C0909203D2025530D0A0044617461201B
:1001C0005261746509203D2025530D0A0044594EA3
:1001D00050442F4645415455524500434F4E4649E1
:1001E000470052465F53455455500052465F4348BE
:1001F00000454E5F52584144445200454E5F4141D4
:100200000052585F50575F50302D360054585F41B0
:100210004444520052585F414444525F50322D359D
:100220000052585F414444525F50302D31000D0A56
:1002300000253032780020307800255309256320CE
:100240003D000D0A00203078253032780025530912
:100250002563203D004F4253455256455F54583D5B
:10026000253032783A20504F4C535F434E543D2551
:1002700078204152435F434E543D25780D0A005388
:1002800054415455530909203D20307825303278A7
:100290002052585F44523D25782054585F44533DC6
:1002A0002578204D41585F52543D25782052585FA3
:1002B000505F4E4F3D25782054585F46554C4C3D7D
:1002C00025780D0A001112131415160A0B0C0D0EC9
:1002D0000F000102030405F502EE02E602DF025000
:1002E000415F4D41580050415F48494748005041E7
:1002F0005F4C4F570050415F4D494E0011030A03B8
:1003000002033136206269747300382062697473A5
:100310000044697361626C65640028031E036E52B9
:100320004632344C30312B006E524632344C303130
:100330000045033F0337033235304B425053003200
:100340004D42505300314D42505300005EBCE261BB
:100350003FDD83C29C7E20A3FD1F419DC3217FFC06
:10036000A2401E5F01E3BD3E6082DC237D9FC1424F
:100370001CFEA0E1BF5D0380DE3C62BEE0025CDFEC
:1003800081633D7C22C09E1D43A1FF4618FAA4272D
:10039000799BC584DA3866E5BB5907DB856739BACE
:1003A000E406581947A5FB7826C49A653BD987040B
:1003B0005AB8E6A7F91B45C6987A24F8A6441A99B4
:1003C000C7257B3A6486D85B05E7B98CD2306EEDE1
:1003D000B3510F4E10F2AC2F7193CD114FADF3709E
:1003E0002ECC92D38D6F31B2EC0E50AFF1134DCEB7
:1003F00090722C6D33D18F0C52B0EE326C8ED05384
:100400000DEFB1F0AE4C1291CF2D73CA947628AB9C
:10041000F517490856B4EA6937D58B5709EBB53655
:10042000688AD495CB2977F4AA4816E9B7550B8882
:10043000D6346A2B7597C94A14F6A8742AC896153B
:100440004BA9F7B6E80A54D7896B350081058506B4
:10045000E9089D0D11241FBECFEFD8E0DEBFCDBF50
:1004600012E0A0E0B1E0E8E1FAE402C005900D92EC
:10047000A23CB107D9F725E0A2ECB2E001C01D9281
:10048000A636B207E1F714E0C4E5D4E004C0229731
:10049000FE010E942E1FCC34D107C9F712D30C9451
:1004A0000A25AECDCF93DF9368E670E081E094E05B
:1004B0000E94700EC9EDD2E08881882329F0BE0128
:1004C00081E094E00E94800E279683E0CD32D80729
:1004D00099F7DF91CF910895FF920F931F93CF93D8
:1004E000DF938B01F090C20227E0F29EE00111241D
:1004F000C752DD4F44E050E0BC01CE010E9487218D
:100500001C821E830D83F394F092C202DF91CF917F
:100510001F910F91FF90089562E572E084E291E0EF
:10052000DBDF62E572E089E291E0D6DF6FEE78E032
:100530008BE291E0D1CF6CE770E081E094E00C9425
:10054000310E0F931F93CF93DF938091C3028823C3
:1005500069F18091C4028823E1F010E007E0019F77
:10056000E0011124C752DD4F8881882349F044E01F
:1005700050E0BE0185EC92E00E947921892B91F038
:100580001F5F1C3060F36FE770E081E094E00E9431
:10059000700E1092C3021092C402DF91CF911F918E
:1005A0000F91C9CFED81FE810995F3CFDF91CF91F6
:1005B0001F910F910895BFCF0F931F93CF93DF9398
:1005C00000E010E081E094E00E94160C892B11F00D
:1005D000002339F01D3009F04FC081E08093C30241
:1005E0004BC081E094E00E943F0CEC01182F99274A
:1005F0008D30910571F4E091C402F0E0EB53FD4FB2
:10060000108266E970E081E094E00E94310E01E022
:10061000D9CF8F379105A1F4E091C402EE2349F0C0
:10062000E150E093C402F0E0EB53FD4F108268E02C
:100630001EC064E970E081E094E00E94310EC2CFF8
:10064000103254F44AE050E06C2F772767FD709524
:1006500081E094E00E942F0FE091C40281E08E0FB0
:100660008093C402F0E0EB53FD4FC0836C2F81E018
:1006700094E00E94570EA6CFDF91CF911F910F916A
:100680000895CF9383E090E00E94FC23C82F60E39D
:1006900071E081E094E00E94560E4AE050E063E091
:1006A00070E081E094E00E946C0F6BE471E081E007
:1006B00094E00E94560E4AE050E06C2F81E094E0F6
:1006C0000E94570FC23011F4CCE401C0C2E060E5D3
:1006D00071E081E094E00E94560E4AE050E06C2FF9
:1006E00081E094E00E94570F6C2F83E090E0CF915F
:1006F0000C9404244F925F926F927F928F929F92FC
:10070000AF92BF92CF92DF92EF92FF920F931F931F
:10071000CF93DF9380913A038111B1C087E091E0DC
:100720009F938F9380E091E09F938F9383E091E07C
:100730009F938F93C1E0D4E0DF93CF93FED616D57D
:1007400064EF70E0CE010E94310E0E943B11AB01BC
:10075000BC012AE030E0CE010E94450F6AEE70E055
:10076000CE010E94310E40912F03509130036091D1
:100770003103709132032AE030E0CE010E94710F04
:1007800081E090E00E94FC23182F9FD19F938F93CC
:100790001F921F9388EC90E09F938F93DF93CF93EA
:1007A000CCD68AEB90E09F938F93DF93CF93C5D6FF
:1007B0008DB79EB744960FB6F8949EBF0FBE8DBFFF
:1007C00000E010E084EB482E80E0582E90EB692E7C
:1007D00090E0792E22EBE22E20E0F22E35E0832EFF
:1007E000912C4AEAC42E40E0D42E5DEAA52E50E0BA
:1007F000B52E1F930F935F924F92DF93CF939DD6A9
:10080000802F33D50F900F900F900F900F900F9077
:10081000882319F0FF92EF9202C07F926F92DF93CC
:10082000CF938BD60F900F900F900F900F5F1F4FAD
:10083000C801B4010E94F71E892B19F4BF92AF9230
:1008400002C0DF92CF92DF93CF9377D60F900F90B5
:100850000F900F900A30110561F6F3D1DF91CF911F
:100860001F910F91FF90EF90DF90CF90BF90AF90CE
:100870009F908F907F906F905F904F908EC4DF918C
:10088000CF911F910F91FF90EF90DF90CF90BF908D
:10089000AF909F908F907F906F905F904F90089552
:1008A0008091350381110AC06CE571E081E094E02C
:1008B0000E94560E81E080933503089564E771E04D
:1008C00081E094E00E94560E1092350308958091C5
:1008D000390391E08927809339036DE871E081E065
:1008E00094E00E94560E80913903882319F062EA41
:1008F00070E002C069E970E081E094E00C94700E51
:1009000055C15AC1089560912E0381E06827609314
:100910002E0384E00C94361260912D0381E0682749
:1009200060932D0386E00C9436121F920F920FB63F
:100930000F9211242F933F934F935F936F937F9365
:100940008F939F93AF93BF93EF93FF9388E10FB67D
:10095000F89480936000109260000FBE809137037E
:100960008111DADFFF91EF91BF91AF919F918F914C
:100970007F916F915F914F913F912F910F900FBE9B
:100980000F901F901895EAE7F0E080818F778083C1
:1009900080E880BFE4E6F0E08081816080838EE3C0
:1009A00080937E0081E080937F00808188608083D7
:1009B0008081806480838081806880831092380386
:1009C00083B7817F83BF08950FD4109239031092AB
:1009D000360310923A0361E084E00E94FD1161E069
:1009E00083E00E94FD11CFDF80913A0399D080917E
:1009F0003A03811101C042D480913A03811128C089
:100A000040E052EC61E070E081E094E00E941C0D57
:100A100083DD6AE773E089E991E05EDD67E674E013
:100A20008EE991E059DD60E574E083EA91E054DD00
:100A300063E27AE088EA91E04FDD64E37AE08CEAF1
:100A400091E04ADD61E473E081EB91E045DDB3DDE7
:100A5000B1D280913A03811102C04CDEF4D41092DD
:100A600035030895C12CD12C7601C1E000D569DD94
:100A7000A3DD80916703843061F0853069F08130B7
:100A800069F466EB71E081E094E00E94560EA7D312
:100A900005C0C093360302C0109236030E9447116E
:100AA0006C197D098E099F0960932F0370933003A1
:100AB00080933103909332030E9447116B017C01B4
:100AC000D5CF0E94991180DFCDDFCF93DF9300D087
:100AD000CDB7DEB720915C0530915D05211531055C
:100AE00011F426E635E0CE010196821B930B0F90A0
:100AF0000F90DF91CF9108950E940F1381E090E055
:100B0000089510923E0310923D0388EC91E090937B
:100B10003C0380933B0310924203109240030895DC
:100B2000EF92FF920F931F93CF93DF931F92CDB756
:100B3000DEB7682F86E493E069830E9447156981D8
:100B400086E493E00E94AA1586E493E00E943014A4
:100B5000082F2DE0829FC001112441D590934503B9
:100B600080934403892B31F468E271E081E094E0E2
:100B70000E94700EE12CF12C10E060914403709102
:100B800045036E0D7F1D412F86E493E00E944214C1
:100B90001F5F8DE0E80EF11C101778F30F90DF91C6
:100BA000CF911F910F91FF90EF90089586E493E00D
:100BB0000E94121682E035C31F93CF93DF9310E09B
:100BC00086E493E00E9430141817A0F4C091440307
:100BD000D09145038DE0189FC00DD11D1124612FC8
:100BE00086E493E00E94001769877A878B879C8749
:100BF0001F5FE6CFDF91CF911F910895FF920F9372
:100C00001F93CF93DF93EC0188E0F82E8E0188814B
:100C1000803130F46CEC71E081E094E00E94560E7B
:100C2000219640E150E0F801608181E094E00E946B
:100C3000510FFA9459F7DF91CF911F910F91FF90C7
:100C400008951F93CF93DF9361E271E081E094E018
:100C50000E94700E10E086E493E00E943014181792
:100C600070F54AE050E0612F81E094E00E94510F5E
:100C70006FE171E081E094E0F4D78DE0189FE0012E
:100C8000112480914403909145038C0F9D1FB6DF82
:100C90006DE171E081E094E0E4D7E0914403F091EC
:100CA0004503EC0FFD1F418552856385748522E065
:100CB00030E081E094E00E9467101F5FCCCFDF91AD
:100CC000CF911F910895CF93DF93EC0186E493E0D9
:100CD0000E94301490E0C817D9078CF42DE02C9FA7
:100CE000C0012D9F900D1124E0914403F091450324
:100CF000E80FF91F618572858385948503C060E0E4
:100D000070E0CB01DF91CF91089567E089E593E032
:100D10000E94F01D69E573E086E493E00C942114D1
:100D2000CF93C82FE0910104F09102040190F0816B
:100D3000E02D682F81E094E009958C2F992787FD9D
:100D40009095CF910895CF93DF9300D01F92CDB7A8
:100D5000DEB79E012F5F3F4FAE014E5F5F4FBE017A
:100D60006D5F7F4F80E893E00E94101A80913903F5
:100D70008823F1F18B818823E1F0809133039091F6
:100D80003403019741F48EEC91E09F938F930E947E
:100D9000E0210F900F9080913303909134030297DC
:100DA00041F488ED91E09F938F930E94E0210F9092
:100DB0000F908A818823E1F080913303909134036E
:100DC000019741F48BEE91E09F938F930E94E02175
:100DD0000F900F908091330390913403029741F468
:100DE00089EF91E09F938F930E94E0210F900F90E5
:100DF0008981811107C080E893E00E94031A88234B
:100E000009F4CCC080913303909134030197B1F57C
:100E100049E067E673E080E893E00E94061A80915B
:100E200067038130F9F08F3F49F5809139038823BA
:100E300029F1809168039091690320916A033091B0
:100E40006B033F932F939F938F938EE092E09F933A
:100E50008F930E94E0210F900F900F900F900F90B2
:100E60000F900CC080913903882341F088E192E013
:100E70009F938F930E94E0210F900F9080913303F6
:100E800090913403029709F089C04CE060E773E069
:100E900080E893E00E94061A80913903882319F1B3
:100EA000609178037091790380917A0390917B032C
:100EB0000E9403207F936F93809173038F9380919F
:100EC00072038F93809171038F93809170038F933E
:100ED00089E292E09F938F930E94E0210FB6F894ED
:100EE000DEBF0FBECDBF8091350381111CC08FEFD7
:100EF0008093670380917C0390917D0320917E0312
:100F000030917F03309368032093690390936A03C1
:100F100080936B0325E047E653E061E080E893E0CF
:100F20000E941C1B25C081E492E09F938F930E9436
:100F3000E0211092350381E08093670380917C0368
:100F400090917D0320917E0330917F03309368035D
:100F50002093690390936A0380936B0325E047E62F
:100F600053E061E080E893E00E941C1B0F900F901B
:100F700080917C0390917D03A0917E03B0917F03CB
:100F80000196A11DB11D80937C0390937D03A093D6
:100F90007E03B0937F0381E0809390030F900F90C6
:100FA0000F90DF91CF91089560E070E080E996E0C6
:100FB0000C949621F9DF80E893E00E94BE1B83E049
:100FC00090E00E94FC2387FD06C0682F80E893E034
:100FD0000E94B51905C06CE483E090E00E940424EF
:100FE00080E893E00E94031B80E893E00E94EA1AE5
:100FF0008091330390913403019771F46EE071E0B6
:1010000080E893E00E94311A43E151E061E080E81A
:1010100093E00E94481A2CC063E171E080E893E0FD
:101020000E94311A4EE051E061E080E893E00E94B6
:10103000481A80E893E00E94AF1A24E04CE753E09E
:1010400061E080E893E00E941C1B80917C039091FA
:101050007D03A0917E03B0917F030196A11DB11D78
:1010600080937C0390937D03A0937E03B0937F03D2
:1010700062E370E080E090E00E946A1140E050E09E
:1010800063EA76E080E00E9477101092700310927D
:101090007103109272031092730380E090ECA9E741
:1010A000B4EC8093780390937903A0937A03B09380
:1010B0007B031092900308950F931F93CF93DF93B8
:1010C0008091330390913403019709F04AC00E9444
:1010D0003B11EB01182F092F60937003D09371031C
:1010E00080937203909373031092770310927603A8
:1010F000109275031092740380E090E0E4DD609339
:1011000078037093790380937A0390937B03209103
:1011100039032223D1F00E940320262F332727FDF5
:1011200030953F936F930F931F93DF93CF9386E593
:1011300092E09F938F930E94E0218DB79EB708960F
:101140000FB6F8949EBF0FBE8DBF20E04CE060E765
:1011500073E080E893E0DF91CF911F910F910C94A1
:10116000D519DF91CF911F910F910895E09133032D
:10117000F0913403EE0FFF1FE85EFE4F81818F93E5
:1011800080818F938DE692E09F938F930E94E02160
:101190000F900F900F900F90089580917F038F9381
:1011A00080917E038F9380917D038F9380917C0348
:1011B0008F9388E792E09F938F930E94E0210F9096
:1011C0000F900F900F900F900F9080E893E00C9489
:1011D0002D1C4AE069E080E893E00C94AB19E091A3
:1011E0009103F0919203099460E08EE00E94FD115A
:1011F00061E08EE00E94361264E170E080E090E0F1
:101200000E946A118EE00E946B12892B19F081E016
:1012100090E002C082E090E0909334038093330327
:101220000895CF92DF92EF92FF92CF93DF939BE0EE
:10123000899FE0011124CD56DC4FCD80DE80EF8008
:10124000F8840E943B116C0D7D1D8E1D9F1D6983CE
:101250007A838B839C83888181608883DF91CF919F
:10126000FF90EF90DF90CF9008959BE0899FF00171
:101270001124ED56FC4F808181700895CF92DF924A
:10128000EF92FF920F931F93F6D745E0409393039D
:1012900000ED17E020E030E00093980310939903ED
:1012A00020939A0330939B038B019C010053184FAA
:1012B0002F4F3F4F00939403109395032093960371
:1012C0003093970323E834E030939D0320939C03ED
:1012D00040939E0308EE13E020E030E00093A30368
:1012E0001093A4032093A5033093A6036B017C0104
:1012F00058EEC50E53E0D51EE11CF11CC0929F03B1
:10130000D092A003E092A103F092A203E0E8F4E0FF
:10131000F093A803E093A70352E05093A9035EEE75
:10132000C52E52E0D52EE12CF12CC092AE03D09206
:10133000AF03E092B003F092B1031092AA031092AF
:10134000AB031092AC031092AD03E1E8F4E0F0932C
:10135000B303E093B2031092B403E0E1CE2EE7E2D0
:10136000DE2EE12CF12CC092B903D092BA03E092A8
:10137000BB03F092BC031092B5031092B603109217
:10138000B7031092B8031092BF03F0ECCF2EF4ED28
:10139000DF2EEE24E394F12CC092C403D092C50357
:1013A000E092C603F092C7031092C0031092C103EB
:1013B0001092C2031092C3031092CA031092D50375
:1013C0001092E0030093E5031093E6032093E703F4
:1013D0003093E803DC01CB018854944FAF4FBF4FEB
:1013E0008093E1039093E203A093E303B093E403BB
:1013F0008CE598E09093EA038093E9031092EB0365
:101400004093F60380E69AEEA0E0B0E08093FB0301
:101410009093FC03A093FD03B093FE031092F70397
:101420001092F8031092F9031092FA0382E894E004
:10143000909300048093FF031F910F91FF90EF9012
:10144000DF90CF90089517D725E02093E0036854EC
:10145000744F8F4F9F4F6093E1037093E20380932B
:10146000E3039093E40308951092E0030895AF928C
:10147000BF92CF92DF92EF92FF920F931F93CF9381
:10148000DF9300D000D0CDB7DEB7F5D6A3E9AA2E02
:10149000A3E0BA2ED5014C9140FF37C01196CD90F4
:1014A000DD90ED90FC9014976C157D058E059F05E1
:1014B00060F141FF03C04E7F4C9319C0F5010581D7
:1014C00016812781308542FF09C00C0D1D1D2E1D80
:1014D0003F1D018312832383348309C0060F171F26
:1014E000281F391FF5010183128323833483D5011B
:1014F0001996ED91FC911A9769837A838B839C836B
:1015000009959C818B817A816981BBE0AB0EB11C0E
:10151000E1E0AE16E4E0BE0609F0BCCF0F900F90FC
:101520000F900F90DF91CF911F910F91FF90EF904F
:10153000DF90CF90BF90AF900895EF92FF920F93FE
:101540001F93CF93DF93CDB7DEB7C058D1090FB645
:10155000F894DEBF0FBECDBF40E850E0C557DF4F67
:1015600068817981CB58D0408E010F5F1F4FC80131
:101570000E945A21C158DF4F1882CF57D040F8013E
:1015800001900020E9F77F01F80101900020E9F7C0
:10159000B8016E1B7F0B60587F4F9E0123573F4F52
:1015A000A801C7010E941022C058DF4F1882C058FE
:1015B000D040B701C757DF4F88819981C958D040C3
:1015C00075D3C058DF4F0FB6F894DEBF0FBECDBF46
:1015D000DF91CF911F910F91FF90EF900895CF93DE
:1015E000DF938230910510F482E090E0E0915E0597
:1015F000F0915F0520E030E0A0E0B0E0309739F1F5
:101600004081518148175907B8F04817590771F4BC
:1016100082819381109729F013969C938E93129751
:101620002CC090935F0580935E0527C0211531057E
:1016300031F04217530718F0A901DB0101C0EF0197
:101640009A01BD01DF010280F381E02DD7CF211582
:101650003105F9F0281B390B2430310580F48A81DB
:101660009B816115710521F0FB019383828304C086
:1016700090935F0580935E05FE01329644C0FE01A3
:10168000E20FF31F8193919322503109398328830C
:101690003AC020915C0530915D05232B41F42091E7
:1016A00020013091210130935D0520935C0520914C
:1016B0001E0130911F012115310541F42DB73EB7B0
:1016C0004091220150912301241B350BE0915C05D0
:1016D000F0915D05E217F307A0F42E1B3F0B2817CE
:1016E000390778F0AC014E5F5F4F2417350748F09B
:1016F0004E0F5F1F50935D0540935C05819391935E
:1017000002C0E0E0F0E0CF01DF91CF910895CF93E8
:10171000DF93009709F487C0FC013297138212828D
:10172000C0915E05D0915F05209781F420813181C1
:10173000280F391F80915C0590915D0582179307F2
:1017400079F5F0935D05E0935C056DC0DE0120E066
:1017500030E0AE17BF0750F412964D915C9113978D
:101760009D014115510509F1DA01F3CFB383A2833D
:1017700040815181840F951F8A179B0771F48D91C9
:101780009C911197840F951F0296918380831296E6
:101790008D919C911397938382832115310529F4B0
:1017A000F0935F05E0935E053EC0D9011396FC936C
:1017B000EE9312974D915D91A40FB51FEA17FB07A9
:1017C00079F480819181840F951F0296D901119639
:1017D0009C938E938281938113969C938E93129700
:1017E000E0E0F0E08A819B81009719F0FE01EC01B6
:1017F000F9CFCE01029628813981820F931F209163
:101800005C0530915D052817390769F4309729F494
:1018100010925F0510925E0502C013821282D0936F
:101820005D05C0935C05DF91CF910895FC0124858F
:101830003585F901E05CFF4F8081918132962081EE
:101840003181821B930B8F7399270895FC01848546
:101850009585FC01E05CFF4F4081518132962081EB
:1018600031814217530741F00190F081E02DE80FDC
:10187000F91F808190E008958FEF9FEF0895FC019C
:1018800084859585FC01E05CFF4F40815181329653
:10189000208131814217530779F0A081B181A80FCF
:1018A000B91F8C91208131812F5F3F4F2F733327D8
:1018B0003183208390E008958FEF9FEF0895FC011E
:1018C00081A1882329F0A489B5898C9186FFFBCF5B
:1018D00011A20895CF93DF93FC0126853785D901A6
:1018E000A05CBF4F8D919C91119701968F739927A2
:1018F000E901CE5BDF4F4881598184179507D9F301
:101900000D90BC91A02DA20FB31F6C93A685B78537
:10191000A05CBF4F11969C938E93A689B7892C919A
:1019200081E090E0078C02C0880F991F0A94E2F7CB
:10193000282B2C9381E081A30488F589E02D8081F8
:101940008064808381E090E0DF91CF9108951F92C1
:101950000F920FB60F9211242F933F934F938F93B3
:101960009F93EF93FF938091C00082FD1CC0409134
:10197000C6008091A7049091A80401968F739927BF
:101980002091A9043091AA048217930771F0E09185
:10199000A704F091A804E959FB4F40839093A80451
:1019A0008093A70402C08091C600FF91EF919F91A0
:1019B0008F914F913F912F910F900FBE0F901F90DD
:1019C00018951F920F920FB60F9211242F933F93E9
:1019D0008F939F93EF93FF9320916304309164045E
:1019E00080916504909166042817390731F480913D
:1019F000C1008F7D8093C10014C0E0916504F09117
:101A00006604ED5DFB4F2081809165049091660432
:101A100001968F73992790936604809365042093B1
:101A2000C600FF91EF919F918F913F912F910F9061
:101A30000FBE0F901F901895CF92DF92EF92FF92FA
:101A4000CF93DF93EC016A017B01411581EE5807CA
:101A500061057105F9F0EC89FD8981E090E008A04D
:101A600002C0880F991F0A94E2F7808360E079E052
:101A70008DE390E0A70196010E940A1F21503109D1
:101A8000410951095695479537952795211580E1CC
:101A9000380798F0EC89FD89108260E874E88EE1DF
:101AA00090E0A70196010E940A1F215031094109C7
:101AB00051095695479537952795E889F9893083D7
:101AC000EA89FB89208319A2EE89FF89408181E0A0
:101AD00090E09C010C8C02C0220F331F0A94E2F7A5
:101AE000422B4083EE89FF8940819C010D8C02C00E
:101AF000220F331F0A94E2F7422B4083EE89FF89BD
:101B000040819C010E8C02C0220F331F0A94E2F721
:101B1000422B4083EE89FF8920810F8C02C0880F01
:101B2000991F0A94E2F7809582238083DF91CF91F9
:101B3000FF90EF90DF90CF900895109204041092E0
:101B4000030488EE93E0A0E0B0E080930504909356
:101B50000604A0930704B093080489EA92E09093E6
:101B600002048093010487E694E090930E0480932E
:101B70000D0483E294E09093100480930F0485ECAD
:101B800090E0909312048093110484EC90E0909381
:101B900014048093130480EC90E0909316048093D7
:101BA000150481EC90E0909318048093170482EC64
:101BB00090E090931A048093190486EC90E090933F
:101BC0001C0480931B0484E080931D0483E08093B5
:101BD0001E0487E080931F0485E08093200481E049
:101BE000809321040895CF92DF92EF92FF920F939A
:101BF0001F93CF93DF936C017A01EB01E60EF71E82
:101C000000E010E0CE15DF0561F06991D601ED919D
:101C1000FC910190F081E02DC6010995080F191F74
:101C2000F1CFC801DF91CF911F910F91FF90EF90FD
:101C3000DF90CF9008956115710581F0DB010D9063
:101C40000020E9F7AD0141505109461B570BDC015B
:101C5000ED91FC910280F381E02D099480E090E009
:101C60000895EF92FF920F931F93CF93DF938C0110
:101C7000FB01C0E0D0E064917F018FEFE81AF80A21
:101C8000662361F0D801ED91FC910190F081E02D87
:101C9000C8010995C80FD91FF701EDCFCE01DF911B
:101CA000CF911F910F91FF90EF900895C4CFDC0169
:101CB000ED91FC910190F081E02D09940F931F9319
:101CC000CF93DF93EC016DE0F2DF8C016AE0CE018F
:101CD000EEDF800F911FDF91CF911F910F9108953B
:101CE0000F931F93CF93DF93EC01BBDF8C01CE01E9
:101CF000E5DF800F911FDF91CF911F910F91089524
:101D00000F931F93CF93DF93EC0195DF8C01CE01EE
:101D1000D5DF800F911FDF91CF911F910F91089513
:101D20008F929F92AF92BF92CF92DF92EF92FF92EB
:101D30000F931F93CF93DF93CDB7DEB7A1970FB665
:101D4000F894DEBF0FBECDBF7C01C42EE52FCB01C2
:101D5000D22E19A221E02D1510F02AE0D22E8E01EC
:101D60000F5D1F4F8D2C912CA12CB12C6C2D7E2F33
:101D7000A50194010E940A1F8C2DD29E8019112466
:101D8000015011098A3014F4805D01C0895CF801AA
:101D90008083211531054105510521F0C22EE32F25
:101DA000CA01E4CFB801C70146DFA1960FB6F89487
:101DB000DEBF0FBECDBFDF91CF911F910F91FF907E
:101DC000EF90DF90CF90BF90AF909F908F9008954D
:101DD000CF92DF92EF92FF920F931F93CF93DF93F7
:101DE000EC016A017B012115310579F4E881F98163
:101DF0000190F081E02D642FDF91CF911F910F9121
:101E0000FF90EF90DF90CF9009942A303105D9F4FC
:101E100077FF18C06DE24BDF8C0144275527BA01CC
:101E20004C195D096E097F092AE0CE0179DF800F28
:101E3000911FDF91CF911F910F91FF90EF90DF9055
:101E4000CF9008952AE0B701A601CE01DF91CF918E
:101E50001F910F91FF90EF90DF90CF9061CF0F9384
:101E60001F93CF93DF93EC019A01AB01662757FDD7
:101E70006095762FADDF8C01CE0120DF800F911FA2
:101E8000DF91CF911F910F9108952115310541F4F4
:101E9000DC01ED91FC910190F081E02D642F09941B
:101EA0003FCF9A01462F50E060E070E0EECF0F93F5
:101EB0001F93CF93DF93EC019A01462F50E060E02F
:101EC00070E0E3DF8C01CE01F9DE800F911FDF911E
:101ED000CF911F910F9108959A01AB0160E070E0DE
:101EE000D4CF0F931F93CF93DF93EC01CEDF8C0100
:101EF000CE01E4DE800F911FDF91CF911F910F91F2
:101F000008954F925F926F927F928F929F92AF92BD
:101F1000BF92CF92DF92EF92FF920F931F93CF93D6
:101F2000DF93EC016A017B01B22E9A01AB01C7017C
:101F3000B6010E944D21882319F065EB72E027C09D
:101F400026013701E89477F82FEF3FEF4FE75FE77F
:101F5000C301B2010E944D2181110DC02FEF3FEF4F
:101F60004FE75FE7C301B2010E94971F18161CF4E8
:101F700069EB72E00CC02FEF3FEF4FE75FE4C70162
:101F8000B6010E94E6201816A4F46DEB72E0CE01B3
:101F9000DF91CF911F910F91FF90EF90DF90CF9045
:101FA000BF90AF909F908F907F906F905F904F9079
:101FB00042CE2FEF3FEF4FE75FECC701B6010E9423
:101FC000971F87FDE2CF20E030E0A901C701B601ED
:101FD0000E94971F87FF09C06DE2CE0168DE8C0169
:101FE000F7FAF094F7F8F09402C000E010E0A12CAA
:101FF00060E070E080E09FE3AB1441F020E030E06F
:1020000040E251E40E949B1FA394F6CF9B01AC01D8
:10201000C701B6010E94331F6B017C010E9408209A
:102020002B013C010E9434209B01AC01C701B60189
:102030000E94321F6B017C012AE0B301A201CE0194
:102040006FDE080F191FBB2031F062EC71E0CE018A
:10205000F2DD080F191F7B2C772039F120E030E0EA
:1020600040E251E4C701B6010E94EA206B017C0105
:102070000E9403204B01AA2497FCA094BA2C2AE0CA
:1020800030E0B501A401CE01A3DE080F191FC50180
:10209000B4010E9436209B01AC01C701B6010E9429
:1020A000321F6B017C017A94D7CFC801DF91CF91A9
:1020B0001F910F91FF90EF90DF90CF90BF90AF9066
:1020C0009F908F907F906F905F904F9008950F93A7
:1020D0001F93CF93DF93EC0114DF8C01CE01EEDD73
:1020E000800F911FDF91CF911F910F910895823042
:1020F000E8F4E82FF0E0EE0FFF1FE555FB4F71838A
:102100006083813041F0809169008C7F842B8093C3
:102110006900E89A089580916900440F551F440FA3
:10212000551F837F842B80936900E99A08951F923D
:102130000F920FB60F9211242F933F934F935F93FB
:102140006F937F938F939F93AF93BF93EF93FF937F
:102150008091AB049091AC04892B29F0E091AB0401
:10216000F091AC040995FF91EF91BF91AF919F91D0
:102170008F917F916F915F914F913F912F910F9030
:102180000FBE0F901F9018951F920F920FB60F92CF
:1021900011242F933F934F935F936F937F938F936C
:1021A0009F93AF93BF93EF93FF938091AD04909172
:1021B000AE04892B29F0E091AD04F091AE040995AD
:1021C000FF91EF91BF91AF919F918F917F916F910F
:1021D0005F914F913F912F910F900FBE0F901F90E5
:1021E00018951F920F920FB60F9211242F933F93C1
:1021F0008F939F93AF93BF938091B0049091B1045C
:10220000A091B204B091B3043091AF0423E0230F46
:102210002D3720F40196A11DB11D05C026E8230F1E
:102220000296A11DB11D2093AF048093B00490933A
:10223000B104A093B204B093B3048091B40490911C
:10224000B504A091B604B091B7040196A11DB11DCB
:102250008093B4049093B504A093B604B093B704EC
:10226000BF91AF919F918F913F912F910F900FBE92
:102270000F901F9018952FB7F8946091B00470914B
:10228000B1048091B2049091B3042FBF08953FB779
:10229000F8948091B4049091B504A091B604B091E3
:1022A000B70426B5A89B05C02F3F19F00196A11DC4
:1022B000B11D3FBF6627782F892F9A2F620F711D9E
:1022C000811D911D42E0660F771F881F991F4A9557
:1022D000D1F70895CF92DF92EF92FF92CF93DF93E1
:1022E0006B017C01D4DFEB01C114D104E104F104E2
:1022F00071F0CDDF6C1B7D0B683E7340A8F381E06D
:10230000C81AD108E108F108C851DC4FEDCFDF91C0
:10231000CF91FF90EF90DF90CF90089501970097B5
:1023200039F0880F991F880F991F02970197F1F7CD
:102330000895789484B5826084BD84B5816084BD3D
:1023400085B5826085BD85B5816085BDEEE6F0E02E
:10235000808181608083E1E8F0E01082808182608A
:102360008083808181608083E0E8F0E0808181600B
:102370008083E1EBF0E0808184608083E0EBF0E03B
:10238000808181608083EAE7F0E0808184608083DF
:102390008081826080838081816080838081806889
:1023A00080831092C1000895833081F028F4813039
:1023B00099F08230A1F008958630A9F08730B9F005
:1023C0008430D1F4809180008F7D03C080918000A3
:1023D0008F7780938000089584B58F7702C084B58D
:1023E0008F7D84BD08958091B0008F7703C0809168
:1023F000B0008F7D8093B0000895CF93DF9390E07D
:10240000FC01EE5BFE4F2491FC01EA5AFE4F8491E1
:10241000882349F190E0880F991FFC01E258FE4F94
:10242000A591B4918C589E4FFC01C591D4919FB752
:10243000611108C0F8948C91209582238C93888137
:1024400082230AC0623051F4F8948C91322F309577
:1024500083238C938881822B888304C0F8948C9189
:10246000822B8C939FBFDF91CF9108950F931F9381
:10247000CF93DF931F92CDB7DEB7282F30E0F9015D
:10248000E25DFE4F8491F901EE5BFE4F1491F9017C
:10249000EA5AFE4F04910023C1F0882319F06983A2
:1024A00083DF6981E02FF0E0EE0FFF1FEC58FE4F55
:1024B000A591B4919FB7F8948C91611103C01095C8
:1024C000812301C0812B8C939FBF0F90DF91CF910F
:1024D0001F910F910895CF93DF93282F30E0F901DA
:1024E000E25DFE4F8491F901EE5BFE4FD491F9015C
:1024F000EA5AFE4FC491CC2389F0811155DFEC2FAD
:10250000F0E0EE0FFF1FE659FE4FA591B4912C911C
:102510002D2381E090E021F480E002C080E090E093
:10252000DF91CF910895CF93EAE3F5E020E030E02A
:10253000C22F9191992351F140E050E0692F70E052
:10254000842FDB01042E02C0B595A7950A94E2F70B
:10255000A0FF17C0F901E65CFA4F41E050E060E0EF
:1025600070E0082E04C0440F551F661F771F0A94A1
:10257000D2F740954923408398E0C99F800D1124EC
:102580000BC04F5F5F4F48305105D1F62F5F3F4F73
:102590002032310569F680E0CF9108951F93CF93E3
:1025A000DF93162FC82FD0E091E4899FB00111244A
:1025B00068547B4FFB01E05CFF4F9081191759F184
:1025C00081110AC0892F0ED180913905181312C0CC
:1025D0008FEF809339050EC08091F80418130AC05C
:1025E00081E4E8EBF4E0A9EFB4E001900D928A9564
:1025F000E1F711C081E48C9FB0018D9F700D112413
:1026000068547B4FFB01E05CFF4F1083812FDF910B
:10261000CF911F91FEC0DF91CF911F9108951F931D
:10262000CF93DF93EC01162F6E8180E0B7DFE0914E
:10263000F60481E08E0FF0E0E854FB4F10838F33F7
:1026400018F48093F6040EC06EDF8093F7048E8337
:10265000682F80E0A3DF1092F7041092F6048C81BB
:102660008F5F8C83DF91CF911F9108958EBD0DB444
:1026700007FEFDCF089561E080915A05F7DE78945A
:102680000895F89460E080915A05F0CE1F93CF939F
:10269000DF9300D0CDB7DEB7182F4A836983F1DF0F
:1026A0006981862F8F71812BE1DF4A81842FDEDFE4
:1026B0000F900F90DF91CF911F91DDCF1F93CF939C
:1026C000DF93182F1076C12FD0E020915B0530E00A
:1026D000C217D30791F043E06FE180EAD7DF109390
:1026E0005B05AE0185E0559547958A95E1F76FE169
:1026F00080E8DF91CF911F91C9CFDF91CF911F91DA
:1027000008951F93CF93DF931F92CDB7DEB7182F95
:102710006983D4DF4981612F80E40F90DF91CF91ED
:102720001F91B4CF1F93CF93DF931F92CDB7DEB726
:10273000182F7983E6DF7981672F81E0810F0F9071
:10274000DF91CF911F91DDCFEF92FF920F931F93F7
:10275000CF93DF9300D0CDB7DEB78C0169837A8346
:1027600090DF8AE783DF6981E62E7A81F72E0E0DEE
:102770001F1DE016F10629F0F70181917F0176DF38
:10278000F8CF0F900F90DF91CF911F910F91FF9095
:10279000EF9071CFEF92FF920F931F93CF93DF9340
:1027A00000D0CDB7DEB78C0169837A836ADF8AE314
:1027B0005DDF6981E62E7A81F72E0E0D1F1DE01672
:1027C000F10639F080E052DF8EB5F70181937F0189
:1027D000F6CF0F900F90DF91CF911F910F91FF9047
:1027E000EF9049CFCF93DF93EB0120E4829FC001AC
:1027F0001124BC017E5E813C9D4040F482E092DF6A
:10280000BE0180E490E0DF91CF919ECFDF91CF9128
:102810000895CF93DF93EB0120E4829FC001112440
:10282000BC017E5E813C9D4040F480E07BDFBE01C8
:1028300080E490E0DF91CF91ADCFDF91CF9108950B
:102840000895FC0180E294E1928B818B768365830D
:102850001482108289E0818381E0828383830895DA
:10286000FC0184810895CF93DF93EB0167E0CE01F3
:102870000E94A51E91E02F81821390E0892FDF91A5
:10288000CF910895EF92FF920F931F93CF93DF9311
:10289000EC018B01E42E8D819E810E94DE1DF12CC6
:1028A000B8018D819E810E94121E882351F0FE1076
:1028B00005C0B801CE01D7DF811104C0F394EF1435
:1028C00078F780E0DF91CF911F910F91FF90EF900B
:1028D0000895EF92FF920F931F93CF93DF9300D051
:1028E000CDB7DEB77C018A01FC01858196816983C1
:1028F0007A830E94BB1C69817A81F7018581968168
:102900000E94B51D40E06EEBF701858196810E9423
:10291000581DF701858196810E94991DF8018083D9
:10292000F701858196810E94991DF8018183F70145
:10293000858196810E94991DF8018283F701858126
:1029400096810E94991DF8018383F7018581968104
:102950000E94991DF8018483F701858196810E9468
:10296000991DF8018583F701858196810E94991D43
:10297000F8018683F701858196810E94991DF801EF
:102980008783F701858196810E94991DF8018087D0
:10299000F701858196810F900F90DF91CF911F9164
:1029A0000F91FF90EF90E7C7CF93DF93EA0191DF9C
:1029B00068E0CE010E94A51E91E02885821390E078
:1029C000892FDF91CF910895EF92FF921F93CF93BC
:1029D000DF9300D0CDB7DEB77C01FC018581968105
:1029E00069837A83C8D769817A81F7018581968165
:1029F0000E94B51D40E064EBF701858196810E943D
:102A0000581DF701858196810E942D1D182FF70111
:102A100085819681B0D781E0111180E00F900F90F1
:102A2000DF91CF911F91FF90EF900895CF93DF93A7
:102A3000CDB7DEB729970FB6F894DEBF0FBECDBF76
:102A4000FB0120812031C9F0AE014F5F5F4FACDF49
:102A5000882379F08D818F3351F018F48F3169F02C
:102A600008C08F3541F08F3721F48CE007C08AE031
:102A700005C080E003C08BE001C089E029960FB655
:102A8000F894DEBF0FBECDBFDF91CF910895EF92D6
:102A9000FF920F931F93CF93DF93CDB7DEB761976C
:102AA0000FB6F894DEBF0FBECDBF8C01FC0185814F
:102AB00096810E94DE1DF8011482FF24F394BE016A
:102AC000665F7F4FF801858196810E94121E8823E0
:102AD000A1F1BE01665F7F4FC801C5DE882379F38F
:102AE000F8018081811107C0BE01665F7F4FC80178
:102AF0006BDF81111FC0AE014F5F5F4FBE01665F8C
:102B00007F4FC801E6DEF801E180BE01665F7F4FBE
:102B1000C8018CDF8E1518F4F801818105C0BE0153
:102B2000665F7F4FC80182DFF801818384818F5FF8
:102B30008483C5CFF801F082DECF61960FB6F8949A
:102B4000DEBF0FBECDBFDF91CF911F910F91FF90E0
:102B5000EF900895FC0162830895CF93DF93CDB782
:102B6000DEB729970FB6F894DEBF0FBECDBFAE011A
:102B70004F5F5F4FAEDE81E09981911101C080E02F
:102B800029960FB6F894DEBF0FBECDBFDF91CF916F
:102B90000895CF92DF92EF92FF920F931F93CF93FE
:102BA000DF93EC018B01452BC9F08B818823B1F0B9
:102BB0008881811113C05FDB6B017C0160E070E0F4
:102BC000CE01CBDF81110AC056DB6C197D098E095D
:102BD0009F096E3E72408105910580F3F801808166
:102BE0008A3049F08B3061F0893079F46EE570E01D
:102BF00080E090E00EC06CEB70E080E090E009C0F7
:102C000067E771E080E090E004C06EEE72E080E083
:102C100090E0DF91CF911F910F91FF90EF90DF90A7
:102C2000CF9058CBCF93DF93EC018D819E81A3D6BB
:102C30008D819E81C0D7488164E48D819E8138D783
:102C40008A81882349F0BE016F5F7F4F40E050E0EA
:102C5000CE01DF91CF919DCFDF91CF9108958F92DB
:102C60009F92AF92BF92CF92DF92EF92FF921F930B
:102C7000CF93DF93FB01EA01698170E0762F66272D
:102C80008881682B80818232B1F18832A1F1803154
:102C900009F078C01F8175956795882777FD809525
:102CA000982F0E94362020E030E040E85EE30E944A
:102CB000321F6B017C01612F70E08E81681B7109EE
:102CC000882777FD8095982F0E9436204B015C0164
:102CD000612F70E080E090E00E9434209B01AC0105
:102CE000C501B4010E949B1F9B01AC01C701B60145
:102CF0000E94331F43C08C818F3381F198F48F3150
:102D000009F040C093E0759567959A95E1F788279B
:102D100077FD8095982F0E94362020E030E040E03B
:102D20005FE32AC08F3569F08F3761F5882777FD1B
:102D30008095982F0E94362020E030E040E85DE347
:102D40001BC075956795882777FD8095982F0E9401
:102D5000362020E030E040E05EE30EC075956795D8
:102D600075956795882777FD8095982F0E94362066
:102D700020E030E040E85EE30E94EA20562F472F33
:102D8000382F292F652F742F832F922FDF91CF910A
:102D90001F91FF90EF90DF90CF90BF90AF909F90EA
:102DA0008F900895EF92FF920F931F93CF93DF932D
:102DB000CDB7DEB729970FB6F894DEBF0FBECDBFF3
:102DC0008C017B01AE014F5F5F4FEEDD882339F050
:102DD000AE014F5F5F4FB701C80141DF04C060E043
:102DE00070E08EEF92EC29960FB6F894DEBF0FBE1E
:102DF000CDBFDF91CF911F910F91FF90EF9008957C
:102E00000F931F93CF93DF93CDB7DEB728970FB6FD
:102E1000F894DEBF0FBECDBF8C01462FBE016F5FA1
:102E20007F4F30DDBE016F5F7F4FC801BBDF28964B
:102E30000FB6F894DEBF0FBECDBFDF91CF911F91CB
:102E40000F9108958EBD0DB407FEFDCF8EB5089588
:102E50000F931F93CF93DF931F92CDB7DEB78C01F3
:102E600081E0698394D780E09BD784E09ED7698115
:102E7000F8018181FBDA85E090E00F90DF91CF913E
:102E80001F910F914BCAFC01808191818913EECA79
:102E90000895CF92DF92EF92FF920F931F93CF93FB
:102EA000DF9300D0CDB7DEB78C01E62EF22E60E0C6
:102EB00049835A83CDDF8E2D8F71C4DFE82E49817F
:102EC000C42E5A81D52EF40EFC1431F08FEFBADFE8
:102ED000F60181936F01F8CF61E0C801B9DF8E2D53
:102EE0000F900F90DF91CF911F910F91FF90EF9076
:102EF000DF90CF9008951F93CF93DF93EC01162FAF
:102F000060E0A6DF812F8F719DDF8FEF9BDF182F91
:102F100061E0CE019DDF812FDF91CF911F91089558
:102F2000CF92DF92EF92FF920F931F93CF93DF9395
:102F300000D0CDB7DEB78C01E62EF22E60E04983DB
:102F40005A8386DF8E2D8F7180627CDFE82E498167
:102F5000C42E5A81D52EF40EFC1429F0F60181916D
:102F60006F0170DFF9CF61E0C80172DF8E2D0F9025
:102F70000F90DF91CF911F910F91FF90EF90DF9015
:102F8000CF900895EF92FF921F93CF93DF931F92FC
:102F9000CDB7DEB77C01162F60E0498359DF812F62
:102FA0008F7180624FDF182F4981842F4BDF61E0E2
:102FB000C7014EDF812F0F90DF91CF911F91FF90BE
:102FC000EF900895AF92BF92CF92DF92EF92FF926F
:102FD0000F931F93CF93DF9300D0CDB7DEB78C0153
:102FE000D62EFC01E380F42EE41608F4FE2CF80142
:102FF0008481811102C0EF1801C0E12C60E0C8019A
:1030000029837A8325DF2981822F1CDFC82EAD2CEE
:103010007A81B72EFD0CFA1429F0F50181915F0138
:1030200011DFF9CFEE2021F080E00CDFEA94FACF37
:1030300061E0C8010DDF8C2D0F900F90DF91CF91D3
:103040001F910F91FF90EF90DF90CF90BF90AF90C6
:103050000895AF92BF92CF92DF92EF92FF920F93BB
:103060001F93CF93DF931F92CDB7DEB78C01D62E7F
:10307000FC01E380F42EE41608F4FE2CF8018481B0
:10308000811102C0EF1801C0E12C60E0C801798312
:10309000DFDE81E6D7DEC82EAD2C7981B72EFD0CA0
:1030A000FA1431F08FEFCEDEF50181935F01F8CF96
:1030B000EE2021F08FEFC6DEEA94FACF61E0C8017E
:1030C000C7DE8C2D0F90DF91CF911F910F91FF9054
:1030D000EF90DF90CF90BF90AF9008951F93CF9364
:1030E000DF93EC01162F60E0B3DE812FABDE182FEB
:1030F00061E0CE01ADDE812FDF91CF911F91089568
:1031000062EEECCF61EEEACF6FEFE8CF862F90E072
:10311000262F21701F922F93959587958770992759
:103120009F938F9364FB882780F91F928F9365FB91
:10313000882780F91F928F9366FB882780F91F925A
:103140008F931F926F938FE792E09F938F930E94CC
:10315000F1218DB79EB70E960FB6F8949EBF0FBEA5
:103160008DBF0895AF92BF92DF92EF92FF920F93BF
:103170001F93CF93DF9300D0CDB7DEB78C01F42E31
:10318000E22ECB0169837A830E94512169817A8181
:10319000089710F489E001C087E01F928F937F9316
:1031A0006F93EDE4F2E0FF93EF930E94F121EF0CB7
:1031B0000F900F900F900F900F900F9035E4A32E6B
:1031C00032E0B32EFE1491F0DD24D394DF0C6F2D8A
:1031D000C80191DE1F928F93BF92AF920E94F1219E
:1031E0000F900F900F900F90FD2CECCF82E492E0A7
:1031F0009F938F930E94F1210F900F900F900F904B
:10320000DF91CF911F910F91FF90EF90DF90BF90D2
:10321000AF9008952F923F924F925F926F927F925C
:103220008F929F92AF92BF92CF92DF92EF92FF92D6
:103230000F931F93CF93DF9300D01F92CDB7DEB7CC
:103240007C01242E322E4DB65EB6CB016A837B8381
:103250000E9451216A817B81089710F489E001C0A6
:1032600087E01F928F937F936F938AE392E09F93FF
:103270008F930E94F121320C0F900F900F900F90BE
:103280000F900F9046E3C42E42E0D42E51E3A52EBA
:1032900052E0B52E2314E1F16DB67EB6F70122851A
:1032A000822E912C8DB79EB7881999090FB6F89484
:1032B0009EBF0FBE8DBF0DB71EB70F5F1F4F91E0B2
:1032C000920D9983A801622DC701E3DDDF92CF92B1
:1032D0000E94F121800E911E0F900F90F1E08F1A45
:1032E00091088016910668F0F40180811F928F93F7
:1032F000BF92AF920E94F1210F900F900F900F900C
:10330000EDCF0FB6F8947EBE0FBE6DBE2980C2CF42
:103310008EE292E09F938F930E94F1210F900F9085
:103320000FB6F8945EBE0FBE4DBE0F900F900F907B
:10333000DF91CF911F910F91FF90EF90DF90CF9091
:10334000BF90AF909F908F907F906F905F904F90C5
:103350003F902F900895FC0160834183128280E2A8
:103360008383148285E082870895462F603808F0B1
:103370004FE765E007CECF93DF93EC0160E0BBDD64
:1033800081FD10C060E0CE01B6DD482F426060E0F4
:10339000CE01F8DD65E070E080E090E0DF91CF9154
:1033A0000C946A11DF91CF910895CF93DF93EC01D4
:1033B000222311F020EB01C020EACE0103DE61E000
:1033C000CE0161DD60E0CE01DF91CF915CCD0F9346
:1033D0001F93CF93DF938C01EB0167E18CDD80FDC0
:1033E0000AC0209751F0C8018FDE90E0959587952F
:1033F0008770888302C080E001C081E0DF91CF91B7
:103400001F910F91089560E070E0E1CFCF93DF93BB
:10341000EC011FDE40E767E0CE01DF91CF91B2CD36
:10342000EF92FF920F931F93CF93DF93EB018A01EB
:10343000790140E767E0A6DD85FB992790F998833D
:1034400084FB992790F9F801908386FB882780F9FF
:10345000F7018083DF91CF911F910F91FF90EF9043
:1034600008950F931F93CF93DF93EC018B012A856F
:10347000AB016AE055DD2A85A80160E1CE0150DD8F
:103480004B8161E1CE01DF91CF911F910F917ACDF8
:10349000FF920F931F93CF93DF93EC01F62E8A01D7
:1034A000611106C04A8550E0B801059612D707C0E1
:1034B00086E0861708F433C081E0681307C0EF2D5B
:1034C000F0E0E553FD4F64912A8506C0E62FF0E059
:1034D000E553FD4F649121E0A801CE0121DD0F2DC0
:1034E00010E0F801EB53FD4F64914B81CE014ADDB2
:1034F00062E0CE0100DDF801EF52FD4F049121E0C2
:1035000030E001C0220F0A95EAF7822B482F62E0D3
:10351000CE01DF91CF911F910F91FF9033CDDF91BD
:10352000CF911F910F91FF9008951F93CF93DF9339
:10353000EC01162F62E0DFDCE12FF0E0EF52FD4FEF
:10354000E49141E050E001C0440FEA95EAF740956C
:10355000482362E0CE01DF91CF911F9113CDCF932D
:10356000DF93EC0108DF60E0CE01C5DC482F41604D
:1035700060E0CE0107DD40E767E0CE0103DD61E0FA
:10358000CE0181DC8D81882341F02A85AE014B5F1D
:103590005F4F6AE0CE01C4DC03C060E0CE01C5DF4E
:1035A0006DE1CE01A8DC81FF04C0CE01DF91CF9197
:1035B000A9CDDF91CF910895CF93DF93EC0160E027
:1035C00047DC80E53FDC83E73DDC61E0CE01DF9155
:1035D000CF913ECCCF93DF93EC01EEDF6DE1CE01D6
:1035E0008ADC482F44606DE1CE01CCDC6CE1CE0179
:1035F00082DC482F4F636CE1CE01C4DC81E08C8318
:10360000DF91CF910895CF93DF93EC01D5DF6DE18A
:10361000CE0171DC482F46606DE1CE01B3DC6CE178
:10362000CE0169DC482F43606CE1CE01ABDC81E068
:103630008C83DF91CF910895CF92DF92FF920F9309
:103640001F93CF93DF9300D01F92CDB7DEB78C01CD
:10365000F62E213208F020E260E0C80129834A8377
:103660005B83F6DB8F2D8770886AECDB4A81C42E82
:103670005B81D52E2981F22EF40EFC1429F0F6017F
:1036800081916F01DFDBF9CF61E0C8010F900F90EE
:103690000F90DF91CF911F910F91FF90DF90CF900E
:1036A000D7CB66E028DC867086950895EF92FF926E
:1036B0000F931F93CF93DF931F92CDB7DEB77C019B
:1036C0008B0166E018DC582F577D0230110531F46C
:1036D00050620BE910E020E030E00DC00130110530
:1036E00029F005E510E020E030E005C0586001E475
:1036F00010E020E030E0F701038714872587368744
:10370000452F66E0C70159833DDC66E0C701F3DB66
:1037100091E05981851390E0892F0F90DF91CF912F
:103720001F910F91FF90EF90089566E0E4DB282F42
:103730002872203231F081E090E0283021F080E0E2
:10374000089582E090E008950F931F93CF93DF9345
:10375000EC018B0160E0CFDB482F437F01151105A1
:1037600031F00130110511F4486001C04C6060E097
:10377000CE01DF91CF911F910F9104CCCF93DF93B6
:10378000EC0188819981891719F061E00E94FD118F
:1037900089819881981719F061E00E94FD11E1D2AA
:1037A00060E0CE0170DB61E0CE0152DB65E070E0ED
:1037B00080E090E00E946A114FE564E0CE01E2DB18
:1037C00062E070E0CE0172DF882311F081E08A832D
:1037D00060E070E0CE016ADF62E070E0CE01B4DF4D
:1037E000CE01EADE40E06DE1CE01CCDB40E06CE1F1
:1037F000CE01C8DB40E767E0CE01C4DB6CE4CE015C
:10380000B4DDCE017DDCCE017DDCCE01B4DD60E037
:10381000CE0171DB482F4E7F60E0CE01DF91CF916A
:10382000B1CB1F93CF93DF93EC0160E064DB182FE3
:1038300061E0CE0160DB13FD02C0882329F012FF96
:1038400006C082E090E005C080E090E002C081E028
:1038500090E0DF91CF911F910895CF93DF93EC011A
:1038600053DC682FCE0152DC22E04AE061E272E0D4
:10387000CE01D0DC24E04CE064E172E0CE0172DCE9
:1038800021E040E16CE072E0CE01C4DC26E041E1E1
:1038900061E072E0CE0166DC21E041E06BEF71E0B7
:1038A000CE0160DC21E042E061EF71E0CE015ADC44
:1038B00021E045E06BEE71E0CE0154DC21E046E012
:1038C00062EE71E0CE014EDC21E040E06BED71E094
:1038D000CE0148DC22E04CE16DEC71E0CE0142DC2F
:1038E000CE0123DF880F991F8F5C9C4FFC018591CF
:1038F00094919F938F938BEB91E09F938F9371D5CE
:10390000EA81F0E0EE0FFF1FE65EFC4F8591949197
:103910009F938F938CEA91E09F938F9362D5CE0112
:1039200080DF880F991F84509D4FFC0185919491F1
:103930009F938F9389E991E09F938F9352D5CE0106
:10394000B0DEE82FF0E0EE0FFF1FE952FD4F85914A
:1039500094919F938F9388E891E09F938F9341D5A3
:103960008DB79EB740960FB6F8949EBF0FBE8DBF21
:10397000DF91CF910895FF920F931F93CF93DF9321
:10398000FC010081C181D281F8948981F02EF094EC
:103990008F21898378941DE7115029F182E090E00E
:1039A0000E948E1188818023B9F3F8948A818F2137
:1039B0008A838981802B8983789480EE91E00E94AC
:1039C0008E11F89489818F21898386E490E00E948A
:1039D0008E118881802311E009F010E078948AE943
:1039E00091E00E948E11812FDF91CF911F910F9155
:1039F000FF9008951F93CF93DF93FC011081C18145
:103A0000D281912F909560FF12C0F8948A8189230A
:103A10008A838981812B89838AE090E00E948E11BC
:103A20008A81812B8A83789487E390E011C0F8948F
:103A30008A8189238A838981812B898381E490E02B
:103A40000E948E118A81812B8A83789485E090E090
:103A5000DF91CF911F910C948E110F931F93CF93F1
:103A6000DF93FC011081C181D281F8948981812B7F
:103A700089838A81012F009580238A8383E090E0E7
:103A80000E948E118981802389838AE090E00E94C0
:103A90008E11C881789485E390E00E948E111C23DA
:103AA00081E009F480E0DF91CF911F910F9108959B
:103AB000CF92DF92EF92FF920F931F93CF93DF93FA
:103AC0001F92CDB7DEB76C01E62E08E010E0FF24B0
:103AD000F39461E09F2D9E2109F460E0C6014983C3
:103AE00089DFFF0C0150110949810115110589F782
:103AF000411115C0F894D6011196ED91FC911297E1
:103B000091818C918095892381831196ED91FC910F
:103B1000129792818C9180958923828378940F905B
:103B2000DF91CF911F910F91FF90EF90DF90CF9099
:103B30000895EF92FF920F931F93CF93DF938C0121
:103B4000C8E0D0E0F12CEE24E394C80186DF8111B7
:103B5000FE28EE0C21972097C1F78F2DDF91CF9192
:103B60001F910F91FF90EF900895CF92DF92FF92F7
:103B70000F931F93CF93DF931F92CDB7DEB78C01C6
:103B8000F62E40E065E5798393DFCF2C7981D72E3F
:103B900088E0F82EF60161916F0140E0C80188DFEE
:103BA000FA94C1F70F90DF91CF911F910F91FF9081
:103BB000DF90CF90089540E06CEC7ACFFC01138643
:103BC0001586148627E030E0DF01A20FB31F13969D
:103BD0001C922115310519F021503109F5CF0895B6
:103BE0001F93CF93DF93EC01162F60E0812F0E948B
:103BF000FD11612F70E0FB01EE5BFE4FE491E88365
:103C0000FB01EA5AFE4FE491F0E0EE0FFF1FE65988
:103C1000FE4F859194919A838983CE01DF91CF9154
:103C20001F91CCCFAF92BF92CF92DF92EF92FF92D3
:103C30000F931F93CF93DF931F92CDB7DEB75C0135
:103C4000E62ED72EFC018585811158C0C50193DE73
:103C5000811105C0F5011386158614866AC040E0FF
:103C600060EFC50125DF01E0F12CC12C11E0C50199
:103C7000F4DE682FC5016983F0DE6981613019F4D3
:103C80008130B9F432C02F2D30E068131BC0F5012C
:103C90008385181730F4E20FF31F8381802349F4E2
:103CA00002C0181731F060E0193058F4F50114879C
:103CB00008C0F501EF0DF11D8381802B838361E046
:103CC00009C0C12EF501E20FF31F8381902F90955B
:103CD00089238383C5018EDE1F5F000F11F4F394E7
:103CE00001E0F7E0FF1508F0C2CF113438F0F5011C
:103CF000C386C11018C081E0858715C0F501138601
:103D00001586148680E0EE2DFD2D20E030E0D501F3
:103D1000A20FB31F13969C9191932F5F3F4F2830B2
:103D20003105A9F706C0F5018381882339F381E0C5
:103D3000EACF0F90DF91CF911F910F91FF90EF90FD
:103D4000DF90CF90BF90AF900895DC0180E061508C
:103D500038F0ED91E827F0E0E55BFC4F8491F7CF78
:103D6000089561E08AE00E94361261E08AE00E94D4
:103D7000FD118CB580618CBD8CB580648CBD61E01B
:103D80008DE00E94FD1161E08BE00C94FD1181112A
:103D900003C08CB5806202C08CB58F7D8CBD089548
:103DA0009CB5937F982B9CBD08952CB5982F93704C
:103DB0002C7F922B9CBD9DB582FB882780F99E7F2E
:103DC000982B9DBD0895AA1BBB1B51E107C0AA1FDC
:103DD000BB1FA617B70710F0A61BB70B881F991FAC
:103DE0005A95A9F780959095BC01CD01089597FB50
:103DF000072E16F4009406D077FD08D0E4DF07FC08
:103E000005D03EF4909581959F4F089570956195EA
:103E10007F4F0895A1E21A2EAA1BBB1BFD010DC006
:103E2000AA1FBB1FEE1FFF1FA217B307E407F5076A
:103E300020F0A21BB30BE40BF50B661F771F881F46
:103E4000991F1A9469F760957095809590959B01DC
:103E5000AC01BD01CF010895EE0FFF1F0590F49155
:103E6000E02D09945058BB27AA270ED075C166D102
:103E700030F06BD120F031F49F3F11F41EF45BC1A0
:103E80000EF4E095E7FB51C1E92F77D180F3BA1723
:103E9000620773078407950718F071F49EF58FC1C8
:103EA0000EF4E0950B2EBA2FA02D0B01B901900155
:103EB0000C01CA01A0011124FF27591B99F0593F99
:103EC00050F4503E68F11A16F040A22F232F342FE1
:103ED0004427585FF3CF469537952795A795F0402F
:103EE0005395C9F77EF41F16BA0B620B730B840B44
:103EF000BAF09150A1F0FF0FBB1F661F771F881FFC
:103F0000C2F70EC0BA0F621F731F841F48F4879553
:103F100077956795B795F7959E3F08F0B3CF939542
:103F2000880F08F09927EE0F979587950895D9D0B7
:103F300008F481E008950CD00FC107D140F0FED005
:103F400030F021F45F3F19F0F0C0511139C1F3C0D6
:103F500014D198F39923C9F35523B1F3951B550B4D
:103F6000BB27AA2762177307840738F09F5F5F4F4C
:103F7000220F331F441FAA1FA9F333D00E2E3AF08D
:103F8000E0E830D091505040E695001CCAF729D0A7
:103F9000FE2F27D0660F771F881FBB1F26173707F6
:103FA0004807AB07B0E809F0BB0B802DBF01FF2726
:103FB00093585F4F2AF09E3F510568F0B6C000C18C
:103FC0005F3FECF3983EDCF3869577956795B79560
:103FD000F7959F5FC9F7880F911D9695879597F97B
:103FE0000895E1E0660F771F881FBB1F62177307F4
:103FF0008407BA0720F0621B730B840BBA0BEE1F09
:1040000088F7E095089504D06894B111D9C0089557
:10401000BCD088F09F5790F0B92F9927B751A0F0E6
:10402000D1F0660F771F881F991F1AF0BA95C9F74C
:1040300012C0B13081F0C3D0B1E00895C0C0672F85
:10404000782F8827B85F39F0B93FCCF386957795FC
:104050006795B395D9F73EF49095809570956195E5
:104060007F4F8F4F9F4F0895E89409C097FB3EF410
:1040700090958095709561957F4F8F4F9F4F9923B5
:10408000A9F0F92F96E9BB279395F6958795779533
:104090006795B795F111F8CFFAF4BB0F11F460FFF3
:1040A0001BC06F5F7F4F8F4F9F4F16C0882311F04B
:1040B00096E911C0772321F09EE8872F762F05C05F
:1040C000662371F096E8862F70E060E02AF09A95FA
:1040D000660F771F881FDAF7880F9695879597F9EF
:1040E0000895990F0008550FAA0BE0E8FEEF161689
:1040F0001706E807F907C0F012161306E407F507DC
:1041000098F0621B730B840B950B39F40A2661F04F
:10411000232B242B252B21F408950A2609F4A140F2
:10412000A6958FEF811D811D089597F99F6780E8FF
:1041300070E060E008959FEF80EC089500240A94F9
:104140001616170618060906089500240A94121672
:104150001306140605060895092E0394000C11F4A5
:10416000882352F0BB0F40F4BF2B11F460FF04C052
:104170006F5F7F4F8F4F9F4F089557FD9058440FAB
:10418000551F59F05F3F71F04795880F97FB991FB6
:1041900061F09F3F79F08795089512161306140673
:1041A000551FF2CF4695F1DF08C016161706180600
:1041B000991FF1CF86957105610508940895E894DB
:1041C000BB2766277727CB0197F908958ADF08F484
:1041D0008FEF08950BD0C0CFB1DF28F0B6DF18F015
:1041E000952309F0A2CFA7CF1124EACFC6DFA0F311
:1041F000959FD1F3950F50E0551F629FF001729F7C
:10420000BB27F00DB11D639FAA27F00DB11DAA1F9A
:10421000649F6627B00DA11D661F829F2227B00DE7
:10422000A11D621F739FB00DA11D621F839FA00D72
:10423000611D221F749F3327A00D611D231F849FC2
:10424000600D211D822F762F6A2F11249F57504019
:104250008AF0E1F088234AF0EE0FFF1FBB1F661FB4
:10426000771F881F91505040A9F79E3F510570F06D
:104270005CCFA6CF5F3FECF3983EDCF38695779555
:104280006795B795F795E7959F5FC1F7FE2B880F68
:10429000911D9695879597F9089523DF880B990BC3
:1042A0000895FC0105900020E9F7809590958E0F08
:1042B0009F1F0895FB01DC014150504048F00590DC
:1042C0000D920020C9F701C01D9241505040E0F707
:1042D0000895FB01DC0102C001900D924150504055
:1042E000D8F70895DC0101C06D9341505040E0F7CC
:1042F0000895FB01DC014150504030F08D91019058
:10430000801919F40020B9F7881B990B0895FB0157
:10431000DC014150504048F001900D920020C9F757
:1043200001C01D9241505040E0F708950F931F9334
:10433000CF93DF93EC018B01009731F46115710588
:1043400019F480E090E037C06EE070E081E090E02A
:1043500069D2FC010097A9F380E883830115110558
:1043600071F01387028781E88383809160059091C3
:104370006105892B21F4F0936105E0936005209796
:10438000C9F0D187C0878381826083838091620571
:1043900090916305892B71F4F0936305E0936205B6
:1043A0008091640590916505892B21F4F093650552
:1043B000E0936405CF01DF91CF911F910F91089594
:1043C000A0E0B0E0E5EEF1E2FEC2FE0135966191BB
:1043D0007191AF0180916205909163054AD0E2E04E
:1043E0000EC3A0E0B0E0E6EFF1E2EBC2FE013796CB
:1043F0006191719102E615E0D8018D919C91DC01EB
:1044000013962C911397286013962C93AF0131D0FB
:10441000D801ED91FC912381277F2383E4E0EDC255
:10442000AEE0B0E0E5E1F2E2CCC28C01CA0146E0C8
:104430004C831A83098377FF02C060E070E8615003
:1044400071097E836D83A901BC01CE01019611D053
:104450004D815E8157FD0AC02F8138854217530771
:104460000CF49A01F801E20FF31F10822E96E4E09B
:10447000C4C2ACE0B0E0EEE3F2E295C27C016B01B5
:104480008A01FC0117821682838181FFB0C1CE01AF
:1044900001964C01F7019381F60193FD859193FFFD
:1044A00081916F01882309F49EC1853239F493FD0F
:1044B000859193FF81916F01853221F4B70190E0DE
:1044C000E2D1E8CF512C312C20E02032A0F48B3205
:1044D00069F030F4803259F0833269F420612CC0E5
:1044E0008D3239F0803339F4216026C02260246097
:1044F00023C0286021C027FD27C030ED380F3A3097
:1045000078F426FF06C0FAE05F9E300D1124532E8A
:1045100013C08AE0389E300D1124332E20620CC067
:104520008E3221F426FD5FC1206406C08C3611F462
:10453000206802C0883641F4F60193FD859193FF0F
:1045400081916F018111C1CF982F9F7D9554933038
:1045500028F40C5F1F4FFFE3F9830DC0833631F061
:10456000833771F0833509F057C021C0F80180818D
:1045700089830E5F1F4F44244394512C540114C06F
:104580003801F2E06F0E711CF801A080B18026FFA7
:1045900003C0652D70E002C06FEF7FEFC5012C876F
:1045A00067D12C0183012C852F77222E16C038016C
:1045B000F2E06F0E711CF801A080B18026FF03C0ED
:1045C000652D70E002C06FEF7FEFC5012C8745D1EC
:1045D0002C012C852068222E830123FC19C0832DF9
:1045E00090E048165906A0F4B70180E290E04BD164
:1045F0003A94F5CFF50127FC859127FE81915F0163
:10460000B70190E040D131103A94F1E04F1A5108CF
:104610004114510479F7DEC0843611F0893631F542
:10462000F80127FF07C060817181828193810C5F4F
:104630001F4F08C060817181882777FD8095982F72
:104640000E5F1F4F2F76B22E97FF09C09095809571
:10465000709561957F4F8F4F9F4F2068B22E2AE053
:1046600030E0A40142D1A82EA81843C0853729F410
:104670002F7EB22E2AE030E025C0F22FF97FBF2E28
:104680008F36C1F018F4883579F0ADC0803719F055
:10469000883721F0A8C02F2F2061B22EB4FE0DC0A4
:1046A0008B2D8460B82E09C024FF0AC09F2F96600E
:1046B000B92E06C028E030E005C020E130E002C09D
:1046C00020E132E0F801B7FE07C06081718182818C
:1046D00093810C5F1F4F06C06081718180E090E084
:1046E0000E5F1F4FA40101D1A82EA818FB2DFF7744
:1046F000BF2EB6FE0BC02B2D2E7FA51450F4B4FE9A
:104700000AC0B2FC08C02B2D2E7E05C07A2C2B2DA2
:1047100003C07A2C01C0752C24FF0DC0FE01EA0DE8
:10472000F11D8081803311F4297E09C022FF06C06B
:104730007394739404C0822F867809F0739423FDD8
:1047400012C020FF06C05A2C731418F4530C5718CB
:10475000732C731460F4B70180E290E02C8793D03F
:1047600073942C85F6CF731410F4371801C0312CD4
:1047700024FF11C0B70180E390E02C8784D02C8502
:1047800022FF16C021FF03C088E590E002C088E741
:1047900090E0B7010CC0822F867851F021FD02C055
:1047A00080E201C08BE227FD8DE2B70190E06BD083
:1047B000A51430F4B70180E390E065D05A94F8CFA7
:1047C000AA94F401EA0DF11D8081B70190E05BD05D
:1047D000A110F6CF332009F45DCEB70180E290E05E
:1047E00052D03A94F7CFF7018681978102C08FEFBC
:1047F0009FEF2C96E2E1F3C0F999FECF92BD81BD07
:10480000F89A992780B50895262FF999FECF1FBAF7
:1048100092BD81BD20BD0FB6F894FA9AF99A0FBEE9
:10482000019608950F931F93CF93DF93869F800186
:10483000879F100D969F100D1124C8010E94EF0A4A
:10484000EC01009721F0A80160E070E04BDDCE01A3
:10485000DF91CF911F910F910895FC010590615058
:1048600070400110D8F7809590958E0F9F1F089586
:10487000FC016150704001900110D8F7809590952F
:104880008E0F9F1F08950F931F93CF93DF93182FC1
:10489000092FEB018B8181FD03C08FEF9FEF20C0BB
:1048A00082FF10C04E815F812C813D8142175307EA
:1048B0007CF4E881F9819F012F5F3F4F3983288382
:1048C000108306C0E885F985812F0995892B29F782
:1048D0002E813F812F5F3F4F3F832E83812F902F6B
:1048E000DF91CF911F910F910895FA01AA272830E7
:1048F00051F1203181F1E8946F936E7F6E5F7F4FAD
:104900008F4F9F4FAF4FB1E03ED0B4E03CD0670F28
:10491000781F891F9A1FA11D680F791F8A1F911D7B
:10492000A11D6A0F711D811D911DA11D20D009F4CB
:1049300068943F912AE0269F11243019305D31930D
:10494000DEF6CF010895462F4770405D4193B3E0F6
:104950000FD0C9F7F6CF462F4F70405D4A3318F09D
:10496000495D31FD4052419302D0A9F7EACFB4E04E
:10497000A6959795879577956795BA95C9F7009706
:104980006105710508959B01AC010A2E06945795A7
:10499000479537952795BA95C9F7620F731F841FFE
:1049A000951FA01D08952F923F924F925F926F9294
:1049B0007F928F929F92AF92BF92CF92DF92EF92AF
:1049C000FF920F931F93CF93DF93CDB7DEB7CA1B30
:1049D000DB0B0FB6F894DEBF0FBECDBF09942A885B
:1049E000398848885F846E847D848C849B84AA8403
:1049F000B984C884DF80EE80FD800C811B81AA8190
:104A0000B981CE0FD11D0FB6F894DEBF0FBECDBF5A
:084A1000ED010895F894FFCFB9
:104A18003135303231310032333039323500CCCE95
:104A2800CCCECCCECCCECCCE8D0295029C02000052
:104A38006605800068656C70003F007265627400EE
:104A480043757272656E742076616C756520666F49
:104A5800722061646472657373200020697320009A
:104A680053657474696E6720746F2000536574749D
:104A7800696E6720625265626F6F7420746F20746C
:104A88007275650053657474696E67206252656259
:104A98006F6F7420746F2066616C73650044656283
:104AA8007567206D6F64652000696E666F006465C8
:104AB800626700746573740072756E0073746F704A
:104AC8000070726F6D005265626F6F74696E672E49
:104AD8002E2E2E00000000007C05F30D30005365DB
:104AE8006E643A4F4B0A0D0041636B205061796C3C
:104AF8006F61643A53656E740A0D0053656E643ACB
:104B08004661696C65640A0D0041636B20506179E8
:104B18006C6F61643A4661696C65640A0D004163B3
:104B28006B3A256C750A0D005265626F6F742063CD
:104B38006F6D6D616E640A0D00476F742070617946
:104B48006C6F616420256C752C207E2025640A0D0D
:104B58000053656E64696E6720636F6D6D616E6486
:104B68002030783031004E6F772073656E64696E3F
:104B78006720256C752C207E25640A0D00526F6C09
:104B8800653A2025730A0D0052462073696E6365E5
:104B980020626F6F743A20256C750A0D00696E7675
:104BA800616C69640053656E646572005265636583
:104BB8006976657200000000006A0CF30D160C3F60
:104BC8000C260C5F0C6E616E00696E66006F76666F
:024BD8000000DB
:00000001FF
